:100000000C9400010C9428010C9428010C942801F4
:100010000C9428010C9428010C9428010C942801BC
:100020000C9428010C9428010C94BE010C948902B4
:100030000C9428010C9428010C9428010C9428019C
:100040000C9428010C9428010C9428010C9428018C
:100050000C9428010C9428010C9428010C94340968
:100060000C9428010C9428010C9428010C9428016C
:100070000C9428010C9428010C9428010C9428015C
:100080000C9428010C9428010C9428010C9428014C
:100090000C94040A0C9428010C9428010C94280157
:1000A0000C9428010C9428010C9428014D0550054E
:1000B0003F0543054905710571057105540558054E
:1000C0005C056205660571056C05080B00020202FD
:1000D00001000904000001020200000524001001D3
:1000E0000524010101042402060524060001070578
:1000F000810310004009040100020A000000070506
:1001000002024000000705830240000004030904C6
:1001100012010002EF02014041233680000101027A
:10012000030141726475696E6F204C4C430041724B
:100130006475696E6F204C656F6E6172646F000547
:10014000010902A1018507050919012908150025E2
:1001500001950875018102050109300931160080F9
:1001600026FF7F75109502810209381581257F755C
:100170000895018106C000000000240027002A0025
:100180002D00300000000000250028002B002E006C
:100190003100000000002300260029002C002F0061
:1001A000040404040403040502020202040302021C
:1001B00002020606060606060404020202040404FD
:1001C0000802011040804010204080408008020456
:1001D00001804020100201108010204040200000CB
:1001E000000200090F0000030401000C00000000E1
:1001F0000000000000000000000000000000320BC2
:1002000011241FBECFEFDAE0DEBFCDBF11E0A0E0CA
:10021000B1E0ECE8FBE102C005900D92AA34B10711
:10022000D9F722E0AAE4B1E001C01D92A738B207D5
:10023000E1F710E0C0E0D1E004C02197FE010E9488
:10024000B90DCF3FD107C9F70E94BC0B0C94C40D68
:100250000C940000CF93DF9300D000D000D0CDB736
:10026000DEB7E8E1F2E093838283758364832681BD
:1002700029839B838A837D836C831E820190F08116
:10028000E02D0190F081E02D46E050E0BE016F5F6F
:100290007F4F88E192E0099526960FB6F894DEBF6D
:1002A0000FBECDBFDF91CF9108950E94BF0DCF92B9
:1002B000DF92EF92FF920F931F93CF93DF931F92E2
:1002C000CDB7DEB7182F062FE42E862F880F8E5F4E
:1002D00099830E94660783E00E946607F12EC12E73
:1002E0009981D92E8C2D8F19801798F4F601E7FE8D
:1002F00002C0849101C080810E946607182F80E0AF
:100300000E9466078123FFEFCF1ADF0A8111EACF2F
:1003100001C081E00F90DF91CF911F910F91FF906D
:10032000EF90DF90CF900895FC0180919D018111A5
:1003300003C08FEF9FEF08959FB7F89482E08093FA
:10034000E9002091F20030E01216130614F421E0C7
:1003500030E02115310559F0289884E680939C01FE
:100360008091F10080838091F200882319F09FBF73
:10037000C90108958BE68093E800F9CF1F920F9290
:100380000FB60F9211248F939F938091E10090916B
:10039000E100937F9093E10083FF0FC01092E9008A
:1003A00091E09093EB001092EC0092E39093ED00BB
:1003B00010929D0198E09093F00082FF20C093E09E
:1003C0009093E9009091F200992319F09AE39093A9
:1003D000E80090914E01992339F090914E0191508F
:1003E00090934E01992389F190919C01992339F0C2
:1003F00090919C01915090939C01992341F184FF2D
:1004000010C08091E2008E7E81608093E200809136
:10041000E1008F7E8093E10080914F018E7E8061AC
:1004200011C080FF16C08091E2008E7E80618093B3
:10043000E2008091E1008E7E8093E10080914F0187
:100440008E7E816080934F0104C05D9ACDCF289A43
:10045000D6CF9F918F910F900FBE0F901F90189540
:10046000DF92EF92FF920F931F93CF93DF93D82EDB
:100470008A017B01E40EF51EEB01CE15DF0571F05C
:10048000D7FE03C0FE01849101C088810E946607E7
:1004900021968111F2CF8FEF9FEF01C0C801DF914C
:1004A000CF911F910F91FF90EF90DF9008950F93E0
:1004B0001F93CF93DF931F92CDB7DEB782E089837E
:1004C00042E450E06AEC70E080E80E9430020E9452
:1004D000A107DC0112960D911C91139701151105CE
:1004E00069F0D801ED91FC910280F381E02DBE010D
:1004F0006F5F7F4FC801099597FF07C089810F90F3
:10050000DF91CF911F910F910895F801008511851A
:10051000E5CF1F920F920FB60F921124CF92DF9268
:10052000EF92FF920F931F932F933F934F935F93FD
:100530006F937F938F939F93AF93BF93EF93FF93AB
:10054000CF93DF93CDB7DEB76C97DEBFCDBF1092F0
:10055000E9008091E80083FFEDC168E0CE01459697
:100560000E94940782EF8093E8008D8987FF05C081
:100570009091E80090FFFCCF03C09EEF9093E800BD
:10058000982F907609F0C6C09E892F89188D9111F9
:100590000CC0803829F48091B8018093F10002C02A
:1005A0001092F1001092F10048C1422F50E0512BFF
:1005B000913051F4811141C14130510509F03DC1E3
:1005C0008091B8018D7F0BC0933061F4811135C1EA
:1005D0004130510509F031C18091B80182608093AA
:1005E000B8012BC1953041F48091E80080FFFCCF29
:1005F00020682093E30021C1963009F05FC0EB8CA6
:10060000FC8C1092E90010924D0110924C011230B6
:1006100091F510924B0110924A010E94570299E005
:10062000BE016F5F7F4FDB01E92F1D92EA95E9F76D
:1006300099831A8391E09E8390EA98879AEF99872D
:1006400020914C0130914D01275F3F4F3C832B831C
:100650008D831092E90010924D0110924C01F0929E
:100660004B01E0924A0149E050E080E00E943002F4
:100670000E945702E2C0F0924B01E0924A010E94B0
:10068000A107DC011296ED90FC901397E114F104A0
:1006900009F4C0C0D701ED91FC910480F581E02DF3
:1006A000BE016B5E7F4FC7010995009719F00CF0F2
:1006B000C4C0C7C0F701E084F184E8CF973009F4E3
:1006C000C0C0983021F481E08093F100B6C0993029
:1006D00009F0B3C0837009F0B4C0E1E0F1E081E05B
:1006E00021E036E39081992361F08093E900209323
:1006F000EB0091919093EC003093ED008F5F873089
:1007000089F78EE78093EA001092EA008F89809340
:100710009D0193C08B8D9C8D1092E90010924D012C
:1007200010924C0190934B0180934A01898D811165
:1007300056C08E899D89913A59F4813209F081C061
:1007400047E050E06BE071E080E00E94300275C04D
:10075000913209F076C0833289F4888D90E0982F29
:1007600088272F89822BA0E0B0E080930701909327
:100770000801A0930901B0930A015FC0803269F4B7
:100780008091E80082FFFCCF67E08BE091E00E945F
:1007900094078BEF8093E80006C0823209F04DC0C9
:1007A0008F89809312018091B701882319F0EEEFB1
:1007B000FAE002C0E0E0F8E080910B0190910C01BA
:1007C000A0910D01B0910E01803B9440A105B105AF
:1007D00009F07BC08091120180FF93C076C00E9417
:1007E000A107DC0112960D911C91139701151105BB
:1007F00041F1D801ED91FC910190F081E02DBE0115
:100800006B5E7F4FC8010995811117C0F801008503
:100810001185ECCF113009F44EC0133091F48F895B
:10082000882309F445C0823081F440E860E18EE21B
:1008300091E00E945701882321F08EEF8093E80019
:1008400079C081E28093EB0075C0813029F440E8E3
:100850006BE082E291E0EDCF833099F70E94A1072F
:10086000DC011296ED90FC9013978E010F5F1F4FE5
:100870006801E114F10479F0D701ED91FC91068053
:10088000F781E02DB801C7010995080F111DF70187
:10089000E084F184EECFD8011C92F6010190002093
:1008A000E9F73197BF016C197D0940E0C601C1CF5E
:1008B0006CE071E002C060E171E06115710509F260
:1008C000FB01449150E080E840CF0FB6F894A89522
:1008D00080916000886180936000109260000FBE7C
:1008E000A895EE3F2AE0F20739F08091FE0A909138
:1008F000FF0A91838083A1CF1092FF0A1092FE0A13
:100900009CCFEE3F8AE0F80731F08081918190938F
:10091000FF0A8093FE0A87E797E7918380839BE035
:1009200088E10FB6F894A895809360000FBE90936D
:10093000600083CF6C960FB6F894DEBF0FBECDBFBC
:10094000DF91CF91FF91EF91BF91AF919F918F91E7
:100950007F916F915F914F913F912F911F910F91D7
:10096000FF90EF90DF90CF900F900FBE0F901F90F1
:1009700018952FB7F89487708093E9009091E8005C
:10098000892F807295FF04C09091F20080E4891B4A
:100990002FBF0895CF92DF92EF92FF920F931F9394
:1009A000CF93DF936C017A018B01C0E0D0E0CE15CC
:1009B000DF0589F0D8016D918D01D601ED91FC9193
:1009C0000190F081E02DC6010995892B11F47E017B
:1009D00002C02196ECCFC701DF91CF911F910F91FB
:1009E000FF90EF90DF90CF900895CF93DF931F9209
:1009F000CDB7DEB76983DC01ED91FC910280F38114
:100A0000E02D41E050E0BE016F5F7F4F09950F90F0
:100A1000DF91CF91089583E08093E9008091F20007
:100A2000882319F08AE38093E800089583E00E9408
:100A3000B90490E00895FC018485958597FD0BC06D
:100A40009FB7F89482E08093E9008091F2009FBF05
:100A500090E0019608959FB7F89482E08093E900B2
:100A60008091F2009FBF90E0089590E0FC013197E3
:100A7000EF30F105B0F5EA5AFF4F0C94B90D8091B3
:100A800080008F7703C0809180008F7D80938000ED
:100A9000089580918000877FF9CF84B58F7702C059
:100AA00084B58F7D84BD0895809190008F7707C0B5
:100AB000809190008F7D03C080919000877F80930C
:100AC000900008958091C0008F7703C08091C0008E
:100AD0008F7D8093C00008958091C200877F8093AE
:100AE000C20008953FB7F894809177029091780200
:100AF000A0917902B0917A0226B5A89B05C02F3F3C
:100B000019F00196A11DB11D3FBFBA2FA92F982F33
:100B10008827820F911DA11DB11DBC01CD0142E0AE
:100B2000660F771F881F991F4A95D1F70895DC013A
:100B3000FB0112968C91129790E0248135818217E7
:100B40009307D1F491818081813A31F481E0913031
:100B500091F0933089F411C0813271F49B3021F40B
:100B600082811F968C9305C09A3031F48281509611
:100B70008C9381E00895089580E00895DC01FB01E5
:100B800088E4808389E4818384E482831D969C9138
:100B90001D979F709F5B93831D968D919C911E97CF
:100BA00024E0969587952A95E1F78F708F5B848373
:100BB00085E00895FC0182818F5BFB01808381E0E9
:100BC000089585ED8093BC008091BC0084FDFCCF2E
:100BD00010927801089540914D02262F30E0240FA5
:100BE000311D21323105DCF4209178012430C9F423
:100BF000FC0180E090E0861758F430914D0221917D
:100C0000DC01A55DBD4FA30FB11D2C930196F3CF61
:100C100080914D02680F60934D0280E0089581E05D
:100C2000089582E00895089581E090E030915101A7
:100C300020915001321710F480E090E09195819559
:100C4000910908958091510190915001891730F4D4
:100C50008F5F8093510180E090E008958FEF9FEFC8
:100C600008958091500190E020915101821B9109DB
:100C70000895CF92DF92EF92FF920F931F93CF933D
:100C8000DF937C01262F972F8A0180917901882399
:100C900091F0C62FD72F6E01C40ED51ECC15DD05E1
:100CA00071F06991D701ED91FC910190F081E02DF7
:100CB000C7010995F3CF642F822F0E94EB05C8016D
:100CC000DF91CF911F910F91FF90EF90DF90CF9028
:100CD0000895CF93DF931F92CDB7DEB7698320913C
:100CE00079012223D1F020919B01203240F021E0B4
:100CF00030E0FC013383228380E090E015C08091D6
:100D00007A01E82FF0E0E558FE4F998190838F5FDC
:100D100080937A0180939B0105C061E0CE0101962A
:100D20000E94EB0581E090E00F90DF91CF91089554
:100D3000089580E090E00895CF93DF931F92CDB7A0
:100D4000DEB7FC018485958597FD05C02FEF3FEF49
:100D5000358724870BC0CE0101960E94940101972C
:100D600019F4898190E002C08FEF9FEF0F90DF911F
:100D7000CF9108950F931F93CF93DF931F92CDB719
:100D8000DEB78C01FC018485958597FF0EC0CE01EE
:100D900001960E949401019719F4298130E002C064
:100DA0002FEF3FEFF80135872487F801848595857B
:100DB0000F90DF91CF911F910F910895EF92FF92C5
:100DC0000F931F93CF93DF93FB012081213851F5BF
:100DD0002381223239F5DC0112962C9130E04481D6
:100DE000558142175307F1F4EC010B851C85E12C6A
:100DF000F12C0115110591F0F801448155816281B2
:100E0000738180E80E9430028F3FFFEF9F0769F0F7
:100E1000E80EF91ED8010D911C91EBCF81E08F8770
:100E2000C70105C080E090E002C08FEF9FEFDF9127
:100E3000CF911F910F91FF90EF900895CF93DF9383
:100E4000CDB7DEB769970FB6F894DEBF0FBECDBF42
:100E5000FC01DB018C918F5F8C93BE016F5F7F4F34
:100E600089E1DB011D928A95E9F729E0298384E075
:100E70008A8391E09D8383E08E832A8721E22B87FA
:100E80009C879D879F8722E2288B27E02B8B25E07C
:100E90002C8B8E8B20E430E0388F2F8B998F8281C2
:100EA0008B8395858685998B8A8B838180688D8BD2
:100EB00049E150E080E00E94300269960FB6F89454
:100EC000DEBF0FBECDBFDF91CF91089540914C01A1
:100ED00050914D0120914A0130914B014217530727
:100EE000B4F49091E8009570E1F39091E80092FDE0
:100EF00019C08093F10080914C0190914D010196B1
:100F00008F739927892B19F48EEF8093E8008091D5
:100F10004C0190914D01019690934D0180934C01AD
:100F200081E0089580E00895615030F02091F10053
:100F3000FC0120830196F8CF289884E680939C01D9
:100F4000089580917F0281110DC082E080937B0221
:100F500084E080937C0210927E0210927D0281E0F8
:100F600080937F028BE792E00895CF93DF93282F41
:100F700030E0F901E252FE4F8491F901E154FE4F55
:100F8000D491F901E056FE4FC491CC2391F0811128
:100F90000E943505EC2FF0E0EE0FFF1FEE56FE4FDE
:100FA000A591B491EC91ED2381E090E021F480E0F3
:100FB00002C080E090E0DF91CF9108951F93CF931E
:100FC000DF93282F30E0F901E252FE4F8491F901BE
:100FD000E154FE4FD491F901E056FE4FC491CC2369
:100FE000C9F0162F81110E943505EC2FF0E0EE0FAD
:100FF000FF1FEC57FE4FA591B4918FB7F8941111D4
:1010000005C09C91ED2FE095E92302C0EC91ED2BFA
:10101000EC938FBFDF91CF911F910895CF93DF9312
:1010200090E0FC01E154FE4F2491FC01E056FE4F9C
:101030008491882361F190E0880F991FFC01EA58A0
:10104000FE4FC591D491FC01EC57FE4FA591B49190
:10105000611109C09FB7F894888120958223888305
:10106000EC912E230BC0623061F49FB7F894388165
:10107000822F809583238883EC912E2B2C939FBF06
:1010800006C08FB7F894E8812E2B28838FBFDF919D
:10109000CF9108958F929F92AF92BF92CF92DF929D
:1010A000EF92FF926B017C010E9472054B015C0183
:1010B000C114D104E104F104F1F00E947205DC01D5
:1010C000CB0188199909AA09BB09883E9340A1055B
:1010D000B10570F321E0C21AD108E108F10888EEE9
:1010E000880E83E0981EA11CB11CC114D104E10438
:1010F000F10419F7DDCFFF90EF90DF90CF90BF9014
:10110000AF909F908F9008957F928F929F92AF9211
:10111000BF92CF92DF92EF92FF920F931F93CF93E4
:10112000DF93C82E8B017A0180919D01811103C04C
:101130008FEF9FEF75C080914F0180FF05C08091B8
:10114000E00082608093E000CE2DDF2DD12C8AEF6D
:10115000882E8C2D8770B82E8C2D8072A82E8C2D09
:101160008074982E9AE3792E209709F452C08C2D22
:101170000E94B904282F81110AC08A948820C1F2E4
:1011800061E070E080E090E00E944A08EDCF90E0DE
:10119000C817D9070CF42C2F3FB7F894B092E90088
:1011A0008091E80085FF33C0822F90E0C81BD90BE7
:1011B000AA2029F02150A8F01092F100FBCFF801ED
:1011C000C7FE07C0215058F044914093F10031967A
:1011D000F9CF215020F041914093F100FACF080F50
:1011E000191FDD2019F07092E8000AC08091E80014
:1011F00085FD08C07092E800DD24D394209739F073
:10120000D12C05C0209719F491107092E8003FBFCF
:10121000ABCFD110ACCF5D9884E680934E01C7016F
:10122000DF91CF911F910F91FF90EF90DF90CF90C2
:10123000BF90AF909F908F907F900895CF93DF9352
:10124000EC0180911201882331F083E00E94840830
:101250001816190634F081E090E09B838A8380E0C1
:1012600090E0DF91CF9108951F920F920FB60F92E9
:1012700011242F933F938F939F93AF93BF938091AC
:10128000730290917402A0917502B0917602309130
:10129000720223E0230F2D3720F40196A11DB11D0A
:1012A00005C026E8230F0296A11DB11D20937202EE
:1012B0008093730290937402A0937502B0937602A8
:1012C0008091770290917802A0917902B0917A0290
:1012D0000196A11DB11D8093770290937802A0938F
:1012E0007902B0937A02BF91AF919F918F913F9114
:1012F0002F910F900FBE0F901F901895CF93DF93F3
:10130000EC0181E08C838D839E01265F3F4F3F83FC
:101310002E831986188621E431E0398328831C86C0
:101320001B861E861D868F87888B81EC8A870E948C
:10133000A107FC0121818C8190E0820F911D08970B
:1013400074F5A281B381109719F4D383C2830CC0C2
:1013500018968D919C911997009711F0DC01F8CFA8
:101360001996DC93CE93189780818A8381818B8331
:1013700090818D81890F808380E09C81891778F42A
:10138000AE81BF81A80FB11D9C91A181B0E0A0509A
:10139000BF4F9C9391819F5F91838F5FEECFDF91D1
:1013A000CF910895EF92FF920F931F93CF93DF9306
:1013B0001F92CDB7DEB78B017A018091AF01811109
:1013C00007C08EE991E00E947E0981E08093AF0121
:1013D00087E0898341E050E0BE016F5F7F4F8091DD
:1013E000A1010E94840897FD07C08091A101A70177
:1013F000B80180640E9484080F90DF91CF911F9103
:101400000F91FF90EF9008951F920F920FB60F92D9
:1014100011242F933F934F935F936F937F938F93F9
:101420009F93AF93BF93EF93FF938091B900887F11
:10143000803609F49CC068F5883209F45BC090F4EA
:10144000803109F454C038F4882309F4F6C0883098
:1014500009F44DC0F6C0883109F44CC0803209F45B
:101460005DC0EFC0803409F468C048F4803309F4EB
:1014700055C0883309F0E5C080937601D8C0803527
:1014800009F44FC0883509F45DC0883409F0D9C02B
:10149000D6C0883909F4C7C0A8F4883709F467C0F2
:1014A00038F4883609F463C0803709F460C0C9C0D5
:1014B000883809F4B8C0803909F45FC0803809F071
:1014C000C0C05BC0803B09F486C038F4803A09F4A0
:1014D00066C0883A09F47FC0B4C0803C09F4A7C054
:1014E000883C09F4A4C0883B09F48AC0AAC0809152
:1014F000530110C09091750180917401981770F597
:10150000E091750181E08E0F80937501F0E0EC5A57
:10151000FE4F80818093BB0085EC86C0809376016E
:101520008EC0E091750181E08E0F809375018091EE
:10153000BB00F0E0EC5AFE4F8083909175018091E2
:1015400074016EC0E091750181E08E0F809375018A
:101550008091BB00F0E0EC5AFE4F808380917701D0
:1015600081116DC081E08093520184EA61C083E003
:101570008093780110927102CFCF809171028032F6
:1015800008F051C0E091710281E08E0F80937102EA
:101590008091BB00F0E0EF5AFD4F8083BDCF85EC1A
:1015A0008093BC001092780180917102803230F4F7
:1015B000E0917102F0E0EF5AFD4F108260917102EC
:1015C00070E0E0914F02F091500281E592E00995C0
:1015D0001092710236C084E08093780110924E021E
:1015E00010924D02E0914B02F0914C0209958091CE
:1015F0004D02811105C081E080934D0210922B02B3
:10160000E0914E0281E08E0F80934E02F0E0E55DA6
:10161000FD4F80818093BB0090914E0280914D02DE
:10162000981708F479CF85E88093BC000AC085EC50
:101630008093BC001092780104C0109276010E9441
:10164000E105FF91EF91BF91AF919F918F917F91B4
:101650006F915F914F913F912F910F900FBE0F901F
:101660001F9018951092BD011092BC0188EE93E076
:10167000A0E0B0E08093BE019093BF01A093C001B1
:10168000B093C10187E191E09093BB018093BA01CF
:101690008FEF9FEF9093C7018093C60110921B02BA
:1016A00010921A0210921D0210921C0210921E0239
:1016B00089E291E0909319028093180280911002C0
:1016C000811113C010920B0210920A028FE391E075
:1016D00090930D0280930C0287E390E090930F02A9
:1016E00080930E0281E0809310028091AF018111FE
:1016F00007C08EE991E00E947E0981E08093AF01EE
:10170000E091A901F091AA01309739F48AE092E0C2
:101710009093AA018093A9010AC0808191810097CA
:1017200011F0FC01FACF8AE092E09183808320914E
:101730000E0230910F028091AB019091AC01820FAB
:10174000931F9093AC018093AB01109222021092F0
:10175000210288EE93E0A0E0B0E080932302909312
:101760002402A0932502B09326028FE291E0909389
:10177000200280931F020895789484B5826084BD0E
:1017800084B5816084BD85B5826085BD85B5816085
:1017900085BD80916E00816080936E001092810003
:1017A00080918100826080938100809181008160BE
:1017B000809381008091800081608093800080917F
:1017C000910082608093910080919100816080936C
:1017D0009100809190008160809390008091C10081
:1017E00084608093C1008091C10082608093C100B9
:1017F0008091C10081608093C1008091C3008160AD
:101800008093C3008091C00082608093C00080916B
:10181000C20081608093C20080917A0084608093CE
:101820007A0080917A00826080937A0080917A00B9
:10183000816080937A0080917A00806880937A003A
:1018400010929D011092B80110924F018091D70023
:1018500081608093D70080EA8093D80089B5806149
:1018600089BD89B5826089BD09B400FEFDCF61E004
:1018700070E080E090E00E944A088091D8008F7C60
:1018800080618093D8008091E000807F8093E000A9
:101890008091E1008E7E8093E1008DE08093E200F4
:1018A000559A209AEEEFFFE7859194918B3F9C4DDE
:1018B00019F481E08093B7018FEF9FEF9093C701F8
:1018C0008093C60160E088E00E940E0860E08AE034
:1018D0000E940E0860E089E00E940E0861E08AE044
:1018E0000E940E0861E080E10E940E0861E08FE036
:1018F0000E940E0861E085E00E940E0861E08DE024
:101900000E940E0860E080E10E94DE0760E08FE048
:101910000E94DE0760E085E00E94DE0760E08DE067
:101920000E94DE0764E670E080E090E00E944A08D2
:1019300061E080E10E940E0861E08FE00E940E08E5
:1019400061E085E00E940E0861E08DE00E940E08D3
:1019500060E08DE00E94DE076AE070E080E090E0E9
:101960000E944A0861E08DE00E94DE076AE070E0B4
:1019700080E090E00E944A0860E08DE00E940E083E
:1019800060E08DE00E94DE0710925101109250013C
:1019900010927A0110929B0110927801C1E0C093DD
:1019A00077011092520161E082E00E94DE0761E05F
:1019B00083E00E94DE078091B9008E7F8093B9009A
:1019C0008091B9008D7F8093B90088E48093B8003E
:1019D00085E48093BC00C093790184E28093B901CF
:1019E00010927A0110929B0160E08FE192E00E94D8
:1019F000690680919B01813208F045C09091780181
:101A00009111FCCF92E09093780191E0909377014F
:101A10009FEF909376011092750180937401ABE76C
:101A2000B1E024E531E0F9019E2F921B981718F4DC
:101A30009D919193F9CF1092530180915301886445
:101A40008093530180915201813061F410925201D0
:101A5000809153018093BB008091BC0083FDF8CF3F
:101A600085EC01C085EE8093BC00809178018230C6
:101A7000E1F3809176018F3F31F0809176018032E1
:101A800011F08091760110927A0110929B011092D0
:101A9000790110921E0260911C0270911D028091CA
:101AA0001A0290911B020E942A01C0E0D0E011E0CE
:101AB00088E00E94B507892BF1F410931E02609113
:101AC0001C0270911D0280911A0290911B020E94CB
:101AD0002A0110921E0260911C0270911D028091D9
:101AE0001A0290911B020E942A016CE271E080E0D0
:101AF00090E00E944A088AE00E94B507892B61F4B1
:101B000060E070E080E090E00E942A016CE271E009
:101B100080E090E00E944A0889E00E94B507892B86
:101B200011F560911C0270911D0260368FE77807F5
:101B30001CF460567F4F02C06FEF7FE780911A025E
:101B400090911B0280362FE792071CF480569F4F1E
:101B500002C08FEF9FE70E942A016CE271E080E0F3
:101B600090E00E944A08209709F4A2CF0E9400004A
:101B70009FCFEE0FFF1F0590F491E02D099481E0B7
:0C1B800090E0F8940C94C40DF894FFCF92
:101B8C0000C18081000000FFFFFFFF00E1000000AA
:101B9C0000000000000000F5041E0916050B051BD3
:101BAC00059C06BA0600000000D20900000000697E
:101BBC0006390699061306310622061406000000A3
:0A1BCC000097051E07DE06BE0500A7
:2070000055C000006EC000006CC000006AC0000068C0000066C0000064C0000062C0000043
:2070200060C000005EC00000F2C400005AC0000058C0000056C0000054C0000052C00000EE
:2070400050C0000078C000004CC000004AC0000048C0000046C0000044C0000042C00000BE
:2070600040C000003EC000003CC000003AC0000038C0000036C0000034C0000032C0000048
:2070800030C000002EC000002CC000002AC0000028C0000026C0000024C0000022C00000A8
:2070A00020C000001EC000001CC0000011241FBECFEFDAE0DEBFCDBF11E0A0E0B1E0E2E3BC
:2070C000FFE702C005900D92A83AB107D9F711E0A8EAB1E001C01D92AE3BB107E1F78FD30B
:2070E00026C78ECFF89410926F0010928100109285001092840081E085BF15BE47985D9AEB
:20710000289A0C94000008952091B2013091B3012F5F3F4F3093B3012093B201932F37FFA6
:2071200003C08EEF831B982F990F921710F447980895479A08951F920F920FB60F9211246E
:207140002F938F939F93EF93FF9310928500109284008091A8019091A901009741F00197D3
:207160009093A9018093A801892B09F45D9A8091AA019091AB01009741F001979093AB0126
:207180008093AA01892B09F4289AE0E0F0E0859194918F5F9F4F49F08091AC019091AD0151
:2071A00001969093AD018093AC01FF91EF919F918F912F910F900FBE0F901F90189584E0BC
:2071C0008093E9000DC08091E8008B778093E80003C08EB3882351F08091E80082FFF9CFBE
:2071E0008091E80085FFEFCF8091F1000895982F83E08093E9008091E80085FD0DC0809136
:20720000E8008E778093E80003C08EB3882369F08091E80080FFF9CF9093F1005D9884E6CB
:2072200090E09093A9018093A80108954F925F926F927F928F929F92AF92BF92CF92DF921E
:20724000EF92FF920F931F93CF93DF9384E08093E9008091E80082FF57C2289884E690E067
:207260009093AB018093AA01AADF182F853481F48CE49DE19093AD018093AC0107B600FC4B
:20728000FDCFF999FECF81E180935700E89503C0843519F494DF8DE00DC28C34E1F38035F9
:2072A000D1F3843721F484E4A2DF80E003C2813611F489E5FFC18134B1F481DF182F7FDFE3
:2072C00090E0880F991FAA2797FDA095BA2F312F330F20E0442737FD4095542F822B932B68
:2072E000A42BB52BB8C1803711F483E5E3C1833549F4C0E0D1E089917ADF21E0C730D20714
:20730000D1F7D9C1863521F481E371DF80E3D2C1833731F487E86BDF85E969DF8EE1CAC149
:207320008536B9F4E0E0F0E093E085E090935700E89507B600FCFDCF80935700E89507B65D
:2073400000FCFDCFE058FF4FA0E7E030FA0771F7A2CF823739F4E1E0F0E089E08093570024
:207360008491A8C1863439F4E0E0F0E089E08093570084919FC18E3439F4E3E0F0E089E0E5
:2073800080935700849196C1813539F4E2E0F0E089E08093570084918DC1823631F489E521
:2073A00026DF80E024DF80E885C1823419F0873609F0E5C01092AD011092AC0100DF082FE8
:2073C000FEDEF82EFCDE682E8554823008F071C1902F80E0CF2DD0E0C82BD92B10926F00B3
:2073E000173609F04BC081E180935700E895DD24CC24C3943FC0E090AE01F090AF010091CC
:20740000B0011091B101B6E46B16D9F4ED2DF0E0EE29FF29E4918E2FEADEDD2081F082E08D
:2074200090E0A0E0B0E0E80EF91E0A1F1B1FE092AE01F092AF010093B0011093B101DC2470
:2074400018C0D801C701B695A7959795879559D5CEDE82E090E0A0E0B0E0E80EF91E0A1FF2
:207460001B1FE092AE01F092AF010093B0011093B1012197209709F0BECF7DC08090AE01F5
:207480009090AF01A090B001B090B10196E4691609F05DC083E0F40180935700E89507B63E
:2074A00000FCFDCF54C0F6E46F1661F5772031F1E090AE01F090AF010091B0011091B1019E
:2074C0007EDED82ECC24852D90E08C299D29F7010C0140925700E895112482E090E0A0E08B
:2074E000B0E0E80EF91E0A1F1B1FE092AE01F092AF010093B0011093B10102C060DE582E1A
:20750000742423C0E090AE01F090AF010091B0011091B10116950795F794E79450DE682FFA
:20752000C701F7D48091AE019091AF01A091B001B091B1010296A11DB11D8093AE01909349
:20754000AF01A093B001B093B101219704C05524772444244394209709F0A5CF96E46916B6
:2075600041F485E0F40180935700E89507B600FCFDCF8DE03CDE82E080936F009CC0833492
:2075800071F40091AE011091AF0119DE90E021E0F8010C0120935700E89511247CCE8336C8
:2075A00019F5E090AE01F090AF010091B0011091B10105DEF701E16090E021E00C0120938C
:2075C0005700E895112482E090E0A0E0B0E0E80EF91E0A1F1B1FE092AE01F092AF0100936A
:2075E000B0011093B10157CE8D3661F4E091AE01F091AF0185E080935700E89507B600FCF2
:20760000FDCF49CE823551F4E091AE01F091AF0105911491812FEBDD802F4CC0843421F5FE
:20762000E090AE01F090AF010091B0011091B10116950795F794E794C2DD682FC70169D4DE
:207640008091AE019091AF01A091B001B091B1010296A11DB11D8093AE019093AF01A093D8
:20766000B001B093B10117CE843609F5E090AE01F090AF010091B0011091B101D801C70142
:20768000B695A795979587953CD4B1DD82E090E0A0E0B0E0E80EF91E0A1F1B1FE092AE010A
:2076A000F092AF010093B0011093B10104C08B3111F08FE39CDD83E08093E9009091E8002B
:2076C0008091E8008E778093E80095FF04C010C08EB38823C9F08091E80080FFF9CF809193
:2076E000E8008E778093E80003C08EB3882361F08091E80080FFF9CF84E08093E9008091F1
:20770000E8008B778093E800DF91CF911F910F91FF90EF90DF90CF90BF90AF909F908F90AC
:207720007F906F905F904F9008959091B601892F8F77813249F58091B7018032A1F081328A
:2077400019F5913A09F58091E800877F8093E8008DE091E067E070E00BD28091E8008B770B
:207760008093E8000895913279F48091E800877F8093E8008DE091E067E070E05DD2809192
:20778000E8008E778093E800089582E061EC42E0B5D083E061E842E1B1D084E060E842E1EF
:2077A000ADC084B7877F84BF88E10FB6F89480936000109260000FBE20E880E090E00FB63F
:2077C000F89420936100809361000FBE81E085BF92E095BF3F9A209A559AE1E6F0E02083A1
:2077E000108247985D9A289A109289008AEF8093880090936F0083E080938100F0C0409116
:20780000000850910108109201081092000894B714BE88E10FB6F8948093600010926000D5
:207820000FBE292F30E0F901E270F07091FD18C090FF05C0859194918F5F9F4F81F423FFFF
:207840000FC08091090190910A014817590741F0E0E0F0E0859194918F5F9F4F09F042DC64
:20786000A0DF78941092AD011092AC010CC0DEDC36D38091AC019091AD0181549F4110F00D
:207880001092140141DC80911401882381F78091E00081608093E00025DC80E090E0089598
:2078A000FA01923049F0933061F09130F9F485E191E022E130E01EC087E291E02EE330E04D
:2078C00019C0882329F485E691E024E030E012C0813029F489E691E022E230E00BC0823006
:2078E00029F48DE891E028E130E004C080E090E020E030E091838083C90108958093E9004E
:207900008091EB0081608093EB001092ED006093EC004093ED008091EE00881F8827881F62
:2079200008958091B60188238CF403C08EB38823B1F08091E80082FFF9CF8091E8008B772A
:207940008093E80008958EB3882349F08091E80080FFF9CF8091E8008E778093E800089594
:20796000EF92FF920F931F9345D04CD008ED10E0F80180818F77808380818068808380819B
:207980008F7D808319BC1EBA1092B40180EEE82EF12CF70180818B7F8083F8018081816052
:2079A000808380E060E042E0A9DFE1EEF0E080818E7F8083E2EEF0E0808181608083808144
:2079C00088608083F70180818E7F8083F8018081806180831F910F91FF90EF900895E7ED06
:2079E000F0E08081816080838AE482BF81E08093B501B6CFE8EDF0E080818E7F808310921C
:207A0000E20008951092DA001092E10008951F920F920FB60F9211242F933F934F935F93F6
:207A20006F937F938F939F93AF93BF93EF93FF938091DA0080FF1BC08091D80080FF17C0B2
:207A40008091DA008E7F8093DA008091D90080FF0BC080E189BD82E189BD09B400FEFDCF36
:207A600081E08EBB3BD203C019BC1EBA37D28091E10080FF17C08091E20080FF13C0809138
:207A8000E2008E7F8093E2008091E20080618093E2008091D80080628093D80019BC85E049
:207AA0008EBB1CD28091E10084FF2CC08091E20084FF28C080E189BD82E189BD09B400FEC5
:207AC000FDCF8091D8008F7D8093D8008091E1008F7E8093E1008091E2008F7E8093E20012
:207AE0008091E20081608093E2008091B401882331F48091E30087FD02C081E001C084E067
:207B00008EBBECD18091E10083FF21C08091E20083FF1DC08091E100877F8093E10082E06A
:207B20008EBB1092B4018091E1008E7F8093E1008091E2008E7F8093E2008091E2008061E9
:207B40008093E20080E060E042E0D8DEC7D1FF91EF91BF91AF919F918F917F916F915F9130
:207B60004F913F912F910F900FBE0F901F9018959C014091BC015091BD014617570718F49D
:207B8000F90190E044C06115710511F0AB01F8CF8091E8008E778093E80040E050E0F0CF0F
:207BA0008EB3882309F444C0853009F443C08091E80083FF02C081E008958091E80082FD70
:207BC00031C08091E80080FF22C08091F3009091F200782F60E0292F30E0262B372B07C07A
:207BE00081918093F100415050402F5F3F4F4115510519F02830310598F390E02830310566
:207C000009F491E08091E8008E778093E8004115510531F6992321F605C08EB3882341F075
:207C2000853041F08091E80082FFF7CF80E0089582E0089583E008959C016115710529F47C
:207C40008091E8008B778093E800F90126C08EB3882391F1853091F18091E80083FF02C06C
:207C600081E008958091E80082FFF1CF06C08091F10081936150704059F02091F300809191
:207C8000F200322F20E090E0822B932B892B79F78091E8008B778093E80061157105B9F601
:207CA00005C08EB3882341F0853041F08091E80080FFF7CF80E0089582E0089583E00895C2
:207CC0000F931F93DF93CF9300D0CDB7DEB7E6EBF1E08091F100819381E0EE3BF807C9F792
:207CE00024DD8091E80083FFE4C08091B6019091B701953009F46DC0963040F4913081F1A7
:207D0000913070F0933009F0D4C02AC0983009F4A3C0993009F4B2C0963009F0CAC07CC023
:207D2000803809F4C6C0823809F0C3C08091BA0187708093E9008091EB001092E9002091DB
:207D4000E800277F2093E80090E025E0969587952A95E1F781708093F1001092F10087C0D8
:207D6000882319F0823009F0A4C08F71823009F0A0C08091B801882331F52091BA01277097
:207D800009F497C02093E9008091EB0080FF1BC0933021F48091EB00806213C08091EB0018
:207DA00080618093EB0081E090E002C0880F991F2A95E2F78093EA001092EA008091EB00E5
:207DC00088608093EB001092E9008091E800877F51C0882309F06DC01091B8011F770FB79B
:207DE000F8948091E800877F8093E8009ADD8091E80080FFFCCF8091E3008078812B809398
:207E0000E30080688093E300112311F482E001C083E08EBB0FBF4DC08058823008F049C033
:207E20008091B8019091B9016091BA01AE014F5F5F4F36DDBC01009709F43BC08091E8008E
:207E4000877F8093E80089819A8192DE8091E8008B778093E8002DC0803859F58091E800AA
:207E6000877F8093E8008091B4018093F1008091E8008E778093E80054DD1BC08823C9F4CA
:207E80009091B8019230A8F48091E800877F8093E8009093B40145DD8091B401882331F420
:207EA0008091E30087FD02C081E001C084E08EBB6CDC8091E80083FF0AC08091EB0080624E
:207EC0008093EB008091E800877F8093E8000F900F90CF91DF911F910F91089508951F9360
:207EE0008EB3882361F01091E9001092E9008091E80083FF01C0E4DE17701093E9001F916F
:207F00000895F999FECF92BD81BDF89A992780B50895262FF999FECF1FBA92BD81BD20BDBD
:207F20000FB6F894FA9AF99A0FBE01960895F894FFCF4341544552494E4100777700080031
:207F40000000000000080112011001020000084123360001000201000109023E00020100FF
:207F600080320904000001020201000524001001042402040524060001070582030800FF0C
:207F800009040100020A000000070504021000010705830210000104030904220341007216
:207FA000006400750069006E006F0020004C0065006F006E006100720064006F0000001836
:1A7FC00003410072006400750069006E006F0020004C004C004300000000D7
:00000001FF
