:100000000C9494010C94BC010C94BC010C94BC01A4
:100010000C94BC010C94BC010C94BC010C94BC016C
:100020000C94BC010C94BC010C94370B0C94160C72
:100030000C94BC010C94BC010C94BC010C94BC014C
:100040000C94BC010C94BC010C94BC010C94BC013C
:100050000C94BC010C94BC010C94BC010C944204A3
:100060000C94BC010C94BC010C94BC010C94BC011C
:100070000C94BC010C94BC010C94BC010C94BC010C
:100080000C94BC010C94BC010C94BC010C94BC01FC
:100090000C944C050C94BC010C94BC010C94BC0158
:1000A0000C94BC010C94BC010C94BC015E0E610E5E
:1000B000500E540E5A0E820E820E820E650E690E7E
:1000C0006D0E730E770E820E7D0E95109A109F1096
:1000D000A910B310FD10FD10FD10BD10C710D110F8
:1000E000DB10E810FD10F010000000000000000020
:1000F0002A2B280000000000000000000000000083
:1001000000000000000000002C9EB4A0A1A2A434B6
:10011000A6A7A5AE362D3738271E1F20212223245F
:100120002526B333B62EB7B89F8485868788898AFB
:100130008B8C8D8E8F909192939495969798999A97
:100140009B9C9D2F3130A3AD350405060708090A95
:100150000B0C0D0E0F101112131415161718191A77
:100160001B1C1DAFB1B0B500070605040100080A4D
:100170000B0C0D0900000000240027002A002D00B0
:10018000300000000000250028002B002E00310068
:10019000080B000202020100090400000102020033
:1001A00000052400100105240101010424020605B4
:1001B0002406000107058103100040090401000224
:1001C0000A00000007050202400000070583024004
:1001D00000000403090412010002EF020140412360
:1001E000368000010102030141726475696E6F205F
:1001F0004C4C430041726475696E6F204C656F6EA4
:100200006172646F00000000002300260029002CAA
:10021000002F000404040404030405020202020483
:100220000302020202060606060606040402020291
:1002300004040408020110408040102040804080E7
:10024000080204018040201002011080102040406C
:10025000200000000200090F0000030401000C0050
:10026000000000000000000000000000000000008E
:1002700005010902A10185010509190129081500D7
:1002800025019508750181020501093009310938F8
:100290001581257F750895038106C005010906A112
:1002A000018502050719E029E7150025017501956B
:1002B000088102050C95017508150026FF0019003C
:1002C00029FF8100050795067508150026E7001926
:1002D0000029E78100C005010904A101850605097F
:1002E00019012920150025017501952081020501BC
:1002F000A100093009310933093416008026FF7F37
:10030000751095048102093209351580257F75081D
:1003100095028102C00501093909391501250895A1
:100320000275048102C00F1A11241FBECFEFDAE05C
:10033000DEBFCDBF11E0A0E0B1E0EEE7F6E302C022
:1003400005900D92A23CB107D9F723E0A2ECB1E0F1
:1003500001C01D92A03DB207E1F711E0C4E9D1E070
:1003600004C02197FE010E94321BC339D107C9F78F
:100370000E94B5110C943D1B0C940000DC01FB01A4
:1003800012968C91129790E0248135818217930701
:10039000D1F491818081813A31F481E0913091F002
:1003A000933089F411C0813271F49B3021F4828141
:1003B0001F968C9305C09A3031F4828150968C93AD
:1003C00081E00895089580E00895DC01FB0188E450
:1003D000808389E4818384E482831D969C911D97A8
:1003E0009F709F5B93831D968D919C911E9724E037
:1003F000969587952A95E1F78F708F5B848385E0CA
:100400000895FC0182818F5BFB01808381E0089568
:10041000FC0134969C01245F3F4F80E090E04081D6
:10042000411101961192E217F307C9F70895FC01F3
:1004300020E2260F2830F0F0DC01169620E030E0B4
:100440008D91442349F0861304C0E20FF31F6683A5
:1004500026C0811107C0F9CF861304C0E20FF31F35
:1004600016821DC02F5F3F4F2630310549F780E0CF
:1004700090E008953481442349F081E090E001C088
:10048000880F2A95EAF7832B848309C041E050E066
:1004900001C0440F2A95EAF740954323448381E045
:1004A00090E00895EF92FF920F931F93CF93DF9305
:1004B000E62FF0E0E038F10540F021E030E0DC012B
:1004C00013963C932E93129722C0D42F7C01E851AF
:1004D000FF4FC491DC01ED91FC916C2F6F77048488
:1004E000F585E02D09958C01C7FF13C0892B11F408
:1004F000D1110DC0D701ED91FC910484F585E02D5B
:100500004D2F61EEC7010995802B912B02C080E031
:1005100090E0DF91CF911F910F91FF90EF900895A0
:10052000FF920F931F93CF93DF93EC01F62E41E0E0
:100530000E9452028C01892BA9F0E881F981028482
:10054000F385E02DCE01099540E06F2DCE010E948C
:100550005202892B39F0E881F9810284F385E02D7C
:10056000CE010995C801DF91CF911F910F91FF90A6
:10057000089585ED8093BC008091BC0084FDFCCF84
:100580001092ED0108954091D002262F30E0240F03
:10059000311D21323105DCF42091ED012430C9F404
:1005A000FC0180E090E0861758F43091D002219150
:1005B000DC01A255BD4FA30FB11D2C930196F3CFC3
:1005C0008091D002680F6093D00280E0089581E0AE
:1005D000089582E008950895E091C6018091C501D3
:1005E000E81730F4F0E0E257FD4F808190E0089585
:1005F0008FEF9FEF08959091C6018091C5019817E4
:1006000050F4E92FF0E0E257FD4F208130E09F5F8A
:100610009093C60102C02FEF3FEFC901089580916A
:10062000C50190E02091C601821B91090895CF92E7
:10063000DF92EF92FF920F931F93CF93DF937C0192
:10064000262F972F8A018091EE01882391F0C62FE3
:10065000D72F6E01C40ED51ECC15DD0571F0699142
:10066000D701ED91FC910190F081E02DC701099532
:10067000F3CF642F822F0E94C302C801DF91CF9174
:100680001F910F91FF90EF90DF90CF900895CF933F
:10069000DF931F92CDB7DEB769832091EE0122234D
:1006A000D1F020911002203240F021E030E0FC0136
:1006B0003383228380E090E015C08091EF01E82F22
:1006C000F0E0E051FE4F998190838F5F8093EF01BE
:1006D0008093100205C061E0CE0101960E94C30222
:1006E00081E090E00F90DF91CF910895089580E030
:1006F00090E00895AF92BF92CF92DF92EF92FF9277
:100700000F931F93CF93DF931F92CDB7DEB77C017A
:1007100069836A01590141E050E0BE016F5F7F4F7C
:10072000FC0183810E94540F8C0197FD0BC0F701DF
:100730008381A501B60180640E94540F97FD02C019
:10074000800F911F0F90DF91CF911F910F91FF901C
:10075000EF90DF90CF90BF90AF900895EF92FF920F
:100760000F931F93CF93DF93FB012081213851F525
:100770002381223239F5DC0112962C9130E044813C
:10078000558142175307F1F4EC010B851C85E12CD0
:10079000F12C0115110591F0F80144815581628118
:1007A000738180E80E94A90B8F3FFFEF9F0769F0DC
:1007B000E80EF91ED8010D911C91EBCF81E08F87D7
:1007C000C70105C080E090E002C08FEF9FEFDF918E
:1007D000CF911F910F91FF90EF900895CF93DF93EA
:1007E000CDB7DEB769970FB6F894DEBF0FBECDBFA9
:1007F000FC01DB018C918F5F8C93BE016F5F7F4F9B
:1008000089E1DB011D928A95E9F729E0298384E0DB
:100810008A8391E09D8383E08E832A8721E22B8760
:100820009C879D879F8722E2288B27E02B8B25E0E2
:100830002C8B8E8B20E430E0388F2F8B998F828128
:100840008B8395858685998B8A8B838180688D8B38
:1008500049E150E080E00E94A90B69960FB6F89438
:10086000DEBF0FBECDBFDF91CF910895682F80E12D
:100870000E94830E60E08FE00E94830E61E08FE0B3
:100880000C94830E1F920F920FB60F9211242F9388
:100890003F938F939F93AF93BF9380910F0390915A
:1008A0001003A0911103B091120330910E0323E0C5
:1008B000230F2D3720F40196A11DB11D05C026E898
:1008C000230F0296A11DB11D20930E0380930F03E9
:1008D00090931003A0931103B0931203809113031C
:1008E00090911403A0911503B09116030196A11DD8
:1008F000B11D8093130390931403A0931503B09339
:100900001603BF91AF919F918F913F912F910F90BF
:100910000FBE0F901F901895FC01A385B48510970A
:1009200019F47487638709C08D919C911197009782
:1009300011F0DC01F9CF6D937C9325853685DB01C1
:1009400014968D919C911597820F931F968785879A
:1009500008958091060381116BC081E08093F902B4
:100960008093FA022FEF32E03093FC022093FB02D7
:100970001092FE021092FD022EE631E03093F60254
:100980002093F502109201031092000310920303CA
:1009900010920203809304038093050381EC8093FB
:1009A000FF020E94D00BFC0121818091F90290E0AE
:1009B000820F911D089724F081E08093060338C0D0
:1009C000A281B381109729F485EF92E0938382830B
:1009D0000EC018968D919C911997009711F0DC012B
:1009E000F8CF85EF92E019969C938E9318978081AB
:1009F0008093F70281818093F80290818091FA02BE
:100A0000890F808380E09091F9028917A8F6A09160
:100A1000FB02B091FC02A80FB11D9C91A181B0E036
:100A2000A95ABE4F9C9391819F5F91838F5FEBCFBB
:100A300085EF92E008950F931F93CF93DF93EB011F
:100A40008A010E94A9049801AE0161E0DF91CF9173
:100A50001F910F910C947A03CF93DF93EC010E94C6
:100A6000A904AE014C5F5F4F28E030E062E0DF9107
:100A7000CF910C947A030F931F93CF93DF93EB01E5
:100A80008A010E94A9049801AE0166E0DF91CF912E
:100A90001F910F910C947A031F920F920FB60F9231
:100AA00011242F933F934F935F936F937F938F9373
:100AB0009F93AF93BF93EF93FF938091B900887F8B
:100AC000803609F49CC068F5883209F45BC090F464
:100AD000803109F454C038F4882309F4F6C0883012
:100AE00009F44DC0F6C0883109F44CC0803209F4D5
:100AF0005DC0EFC0803409F468C048F4803309F465
:100B000055C0883309F0E5C08093EB01D8C080352B
:100B100009F44FC0883509F45DC0883409F0D9C0A4
:100B2000D6C0883909F4C7C0A8F4883709F467C06B
:100B300038F4883609F463C0803709F460C0C9C04E
:100B4000883809F4B8C0803909F45FC0803809F0EA
:100B5000C0C05BC0803B09F486C038F4803A09F419
:100B600066C0883A09F47FC0B4C0803C09F4A7C0CD
:100B7000883C09F4A4C0883B09F48AC0AAC08091CB
:100B8000C80110C09091EA018091E901981770F5B1
:100B9000E091EA0181E08E0F8093EA01F0E0E753F3
:100BA000FE4F80818093BB0085EC86C08093EB0173
:100BB0008EC0E091EA0181E08E0F8093EA0180917E
:100BC000BB00F0E0E753FE4F80839091EA018091F3
:100BD000E9016EC0E091EA0181E08E0F8093EA01A5
:100BE0008091BB00F0E0E753FE4F80838091EC01E1
:100BF00081116DC081E08093C70184EA61C083E008
:100C00008093ED011092F402CFCF8091F4028032F4
:100C100008F051C0E091F40281E08E0F8093F4025D
:100C20008091BB00F0E0EC52FD4F8083BDCF85EC9E
:100C30008093BC001092ED018091F402803230F478
:100C4000E091F402F0E0EC52FD4F10826091F4026A
:100C500070E0E091D202F091D30284ED92E0099528
:100C60001092F40236C084E08093ED011092D1021C
:100C70001092D002E091CE02F091CF0209958091BE
:100C8000D002811105C081E08093D0021092AE02A3
:100C9000E091D10281E08E0F8093D102F0E0E25525
:100CA000FD4F80818093BB009091D1028091D00252
:100CB000981708F479CF85E88093BC000AC085ECCA
:100CC0008093BC001092ED0104C01092EB010E94D1
:100CD000B902FF91EF91BF91AF919F918F917F9159
:100CE0006F915F914F913F912F910F900FBE0F9099
:100CF0001F90189561E085E00E94B30E60E085E0EA
:100D00000C94830E0F931F93CF93082F81E00E94C2
:100D10003604C8E010E0C150C8010C2E02C0959501
:100D200087950A94E2F781700E943604C111F3CFCF
:100D3000CF911F910F9108950F931F93CF93082F79
:100D400080E00E943604C8E010E0C150C8010C2EBB
:100D500002C0959587950A94E2F781700E94360447
:100D6000C111F3CFCF911F910F91089581110C9470
:100D70007A0661E085E00E94830E60E085E00E94D3
:100D8000B30E60E085E00E94830E60E08FE00E9479
:100D9000830E60E080E10C94830E61E080E10E94AC
:100DA000B30E61E08FE00E94B30E61E085E00E9427
:100DB000B30E61E08DE00E94B30E60E08DE00E9412
:100DC000830E6AE070E080E090E00E941A0F61E01C
:100DD0008DE00E94830E6AE070E080E090E00E9467
:100DE0001A0F60E08DE00E94B30E60E08DE00E947B
:100DF000830E0E947A0689EB0E949C068FEF0E9468
:100E0000820683E80E94820683E60E94820680E0D2
:100E10000E94B6060E947A0681EB0E949C0681E839
:100E20000E94820680E30E94820684E00E9482067D
:100E300084E30E94820682E00E94820683E10E948F
:100E4000820681E10E94820680E00E9482068AE397
:100E50000E94820682E40E9482068FE30E9482063C
:100E60008FE30E94820680E00E94B6060E947A0606
:100E700084EB0E949C0688E00E94820682E10E9428
:100E8000820682E70E94820682E10E94820686E054
:100E90000E94820683E00E94820684E50E94820608
:100EA00083E00E9482068EE40E94820680E00E9417
:100EB000B6060E947A068FEB0E949C0680E00E9494
:100EC000820680E10E94820680E00E94B6060E94AF
:100ED0007A0686EB0E949C0682E10E94820680E0F0
:100EE0000E94B6060E947A0683EB0E949C0681E06F
:100EF0000E94820680E00E94B6060E947A0686E37F
:100F00000E949C068AE00E94820680E00E94B6064B
:100F10000E947A068CEC0E949C0682E00E94820667
:100F200080E00E94B6060E947A0680EE0E949C062F
:100F300080E00E94820680E80E94820680E00E9493
:100F400082068CE80E94820683E10E94820687EA7C
:100F50000E94820685E00E9482068DE00E94820641
:100F600080E50E94820684E10E94820686E10E945A
:100F7000820685E50E94820686E10E94820687E855
:100F80000E94820683E00E94820680E00E94820620
:100F900080E80E94820680E00E9482068CE80E941F
:100FA000820683E10E94820687EA0E94820685E02B
:100FB0000E9482068DE00E94820680E50E948206E1
:100FC00084E10E94820686E10E94820685E50E94F5
:100FD000820686E10E94820687E80E94820683E0FC
:100FE0000E94820680E00E94B6060E947A068AE38A
:100FF0000E949C0680E60E94820680E00E94B6065F
:101000000E947A0681E10E949C0680E00E94B6065A
:1010100066E970E080E090E00E941A0F0E947A0674
:1010200089E20E949C0680E00E94B60666E970E0B4
:1010300080E090E00C941A0FCF92DF92EF92FF9233
:101040001F93CF93DF93CDB7DEB760970FB6F894B9
:10105000DEBF0FBECDBF8091ED018111FCCF81E0DD
:101060008093ED018093EC019FEF9093EB01109240
:10107000EA018093E9018093C8018091C8018864E6
:101080008093C8018091C701813061F41092C7013B
:101090008091C8018093BB008091BC0083FDF8CF94
:1010A00085EC01C085EE8093BC008091ED0181301C
:1010B000E1F38091EA01823018F48091EA0101C0E5
:1010C00082E0A9ECB1E02EE832E0F9019E2F921BFC
:1010D000981718F49D919193F9CF1092C6018093BF
:1010E000C50110E09091C5018091C601981729F1C2
:1010F00089E893E00E94FB02809548E0149FB001CC
:10110000112420E030E090E0F901E60FF71F41E004
:1011100050E04C0F5D1FE40FF51FAC01022E02C022
:10112000559547950A94E2F7417040832F5F3F4FF2
:101130002830310549F71F5FD5CF8B81809313028B
:101140008D81809314028C81809315028E8180930F
:1011500016028A85809317028985809318028C85F0
:10116000809319028B8580931A02888580931B02D5
:101170008F8180931C028A8180931D0289818093D4
:101180001E028E8580931F028D85809320028F859D
:101190008093210288898093220280E090E0C12C14
:1011A000D12C7601C394FC01ED5EFD4F20812223FA
:1011B00081F020911102B701A601082E04C0440F4E
:1011C000551F661F771F0A94D2F7422B40931102D6
:1011D00011C030911102B701A601082E04C0440FBE
:1011E000551F661F771F0A94D2F74095242F23239B
:1011F00020931102019688309105A9F680E090E0D5
:10120000C12CD12C7601C394FC01E55EFD4F3081E9
:10121000332381F030911202B701A601082E04C0D9
:10122000440F551F661F771F0A94D2F7432B409334
:10123000120211C030911202B701A601082E04C09B
:10124000440F551F661F771F0A94D2F74095242F2D
:10125000232320931202019688309105A9F68091EC
:10126000110290912302892B809323028091120214
:1012700090912402892B8093240260960FB6F894F3
:10128000DEBF0FBECDBFDF91CF911F91FF90EF90DA
:10129000DF90CF9008950F931F93CF93DF9300E3D8
:1012A00011E0C0E0D0E0CE010E94B11AF8018193B4
:1012B0008F012196C732D105B1F7DF91CF911F91F0
:1012C0000F910895EF92FF920F931F93CF93DF93A7
:1012D0001F92CDB7DEB700E311E0E12CF12CF8014D
:1012E00061918F01C70169830E94B11A69816817F2
:1012F00019F0C7010E94B91AFFEFEF1AFF0A87E23F
:10130000E816F10461F70F90DF91CF911F910F91D3
:10131000FF90EF900895882329F081E080933301B6
:1013200060E003C01092330161E08BE00E94B30ED5
:101330000C946209882341F081E08093320160E0DF
:1013400089E00E94B30E10C01092320161E089E082
:101350000E94B30E61E089E00E94830E64EF71E0A9
:1013600080E090E00E941A0F0C9462099091310184
:10137000813051F49B3EB8F4913E10F4965F0EC05C
:101380008BEE809331010FC0823069F4992359F0BC
:10139000292F30E02B30310524F09A509093310101
:1013A00002C0109231018091310190E00E947210D0
:1013B0000C94620940912503509126032091230348
:1013C0003091240342175307B4F49091E8009570CC
:1013D000E1F39091E80092FD19C08093F1008091B3
:1013E00025039091260301968F739927892B19F471
:1013F0008EEF8093E800809125039091260301965B
:10140000909326038093250381E0089580E008955A
:10141000CF92DF92EF92FF920F931F93CF93DF93C0
:101420001F92CDB7DEB7182F062FE42E862F880F18
:101430008E5F99830E94DA0983E00E94DA09F12E17
:10144000C12E9981D92E8C2D8F19801798F4F60111
:10145000E7FE02C0849101C080810E94DA09182F42
:1014600080E00E94DA098123FFEFCF1ADF0A8111A1
:10147000EACF01C081E00F90DF91CF911F910F91D2
:10148000FF90EF90DF90CF9008952FB7F89487707A
:101490008093E9009091E800892F807295FF04C045
:1014A0009091F20080E4891B2FBF0895615030F0C5
:1014B0002091F100FC0120830196F8CF289884E662
:1014C000809328030895CF92DF92EF92FF920F93BB
:1014D0001F93CF93DF936C017A018B01C0E0D0E0C2
:1014E000CE15DF0589F0D8016D918D01D601ED9102
:1014F000FC910190F081E02DC6010995892B11F432
:101500007E0102C02196ECCFC701DF91CF911F91E0
:101510000F91FF90EF90DF90CF900895CF93DF93DE
:101520001F92CDB7DEB76983DC01ED91FC9102809B
:10153000F381E02D41E050E0BE016F5F7F4F0995E0
:101540000F90DF91CF91089583E08093E90080911F
:10155000F200882319F08AE38093E800089583E07D
:101560000E94450A90E00895FC018485958597FDC9
:101570000BC09FB7F89482E08093E9008091F2005D
:101580009FBF90E0019608959FB7F89482E0809302
:10159000E9008091F2009FBF90E008953FB7F89472
:1015A0008091130390911403A0911503B091160339
:1015B00026B5A89B05C02F3F19F00196A11DB11DAE
:1015C0003FBFBA2FA92F982F8827820F911DA11DE9
:1015D000B11DBC01CD0142E0660F771F881F991F26
:1015E0004A95D1F708950E94381BCF93DF931F923D
:1015F000CDB7DEB7FC018485958597FD05C02FEF3B
:101600003FEF358724870BC0CE0101960E943F1122
:10161000019719F4898190E002C08FEF9FEF0F903E
:10162000DF91CF9108950F931F93CF93DF931F9274
:10163000CDB7DEB78C01FC018485958597FF0EC080
:10164000CE0101960E943F11019719F4298130E0E3
:1016500002C02FEF3FEFF80135872487F80184851A
:1016600095850F90DF91CF911F910F9108951F9253
:101670000F920FB60F9211248F939F938091E100E8
:101680009091E100937F9093E10083FF0FC010924F
:10169000E90091E09093EB001092EC0092E39093BC
:1016A000ED001092290398E09093F00082FF20C093
:1016B00093E09093E9009091F200992319F09AE356
:1016C0009093E80090912703992339F09091270394
:1016D000915090932703992389F19091280399239E
:1016E00039F090912803915090932803992341F168
:1016F00084FF10C08091E2008E7E81608093E200C2
:101700008091E1008F7E8093E1008091C3018E7E05
:10171000806111C080FF16C08091E2008E7E8061E2
:101720008093E2008091E1008E7E8093E1008091C1
:10173000C3018E7E81608093C30104C05D9ACDCFCA
:10174000289AD6CF9F918F910F900FBE0F901F9028
:101750001895DF92EF92FF920F931F93CF93DF9331
:10176000D82E8A017B01E40EF51EEB01CE15DF05B4
:1017700071F0D7FE03C0FE01849101C088810E94F0
:10178000DA0921968111F2CF8FEF9FEF01C0C801D6
:10179000DF91CF911F910F91FF90EF90DF9008950F
:1017A00080911B0381110DC082E08093170384E0B8
:1017B0008093180310921A031092190381E080930A
:1017C0001B0387E193E008950F931F93CF93DF935B
:1017D0001F92CDB7DEB782E0898342E450E060E932
:1017E00071E080E80E94A90B0E94D00BDC011296E8
:1017F0000D911C9113970115110569F0D801ED9118
:10180000FC910280F381E02DBE016F5F7F4FC80124
:10181000099597FF07C089810F90DF91CF911F91A4
:101820000F910895F80100851185E5CF1F920F9261
:101830000FB60F921124CF92DF92EF92FF920F9387
:101840001F932F933F934F935F936F937F938F9348
:101850009F93AF93BF93EF93FF93CF93DF93CDB756
:10186000DEB76C97DEBFCDBF1092E9008091E80033
:1018700083FFEDC168E0CE0145960E94560A82EFD3
:101880008093E8008D8987FF05C09091E80090FF64
:10189000FCCF03C09EEF9093E800982F907609F05C
:1018A000C6C09E892F89188D91110CC0803829F4EB
:1018B0008091C4018093F10002C01092F100109257
:1018C000F10048C1422F50E0512B913051F4811169
:1018D00041C14130510509F03DC18091C4018D7F66
:1018E0000BC0933061F4811135C14130510509F0CD
:1018F00031C18091C40182608093C4012BC19530B5
:1019000041F48091E80080FFFCCF20682093E30041
:1019100021C1963009F05FC0EB8CFC8C1092E9007D
:101920001092260310922503123091F51092240391
:10193000109223030E94E40B99E0BE016F5F7F4F7A
:10194000DB01E92F1D92EA95E9F799831A8391E06B
:101950009E8390EA98879AEF99872091250330918A
:101960002603275F3F4F3C832B838D831092E90032
:101970001092260310922503F0922403E092230391
:1019800049E050E080E00E94A90B0E94E40BE2C015
:10199000F0922403E09223030E94D00BDC01129604
:1019A000ED90FC901397E114F10409F4C0C0D70145
:1019B000ED91FC910480F581E02DBE016B5E7F4FBF
:1019C000C7010995009719F00CF0C4C0C7C0F70112
:1019D000E084F184E8CF973009F4C0C0983021F456
:1019E00081E08093F100B6C0993009F0B3C08370F4
:1019F00009F0B4C0E8E5F1E081E021E036E3908150
:101A0000992361F08093E9002093EB0091919093EA
:101A1000EC003093ED008F5F873089F78EE780937D
:101A2000EA001092EA008F898093290393C08B8D7E
:101A30009C8D1092E900109226031092250390933A
:101A4000240380932303898D811156C08E899D893B
:101A5000913A59F4813209F081C047E050E062E6E2
:101A600071E080E00E94A90B75C0913209F076C048
:101A7000833289F4888D90E0982F88272F89822BD4
:101A8000A0E0B0E080935E0190935F01A0936001BD
:101A9000B09361015FC0803269F48091E80082FFF9
:101AA000FCCF67E082E691E00E94560A8BEF8093BC
:101AB000E80006C0823209F04DC08F898093690129
:101AC0008091C201882319F0EEEFFAE002C0E0E055
:101AD000F8E08091620190916301A0916401B0915E
:101AE0006501803B9440A105B10509F07BC0809160
:101AF000690180FF93C076C00E94D00BDC01129672
:101B00000D911C9113970115110541F1D801ED912B
:101B1000FC910190F081E02DBE016B5E7F4FC8010A
:101B20000995811117C0F80100851185ECCF11309E
:101B300009F44EC0133091F48F89882309F445C00D
:101B4000823081F440E860E184EF91E00E94080A6D
:101B5000882321F08EEF8093E80079C081E28093A2
:101B6000EB0075C0813029F440E86BE088EE91E02D
:101B7000EDCF833099F70E94D00BDC011296ED90E7
:101B8000FC9013978E010F5F1F4F6801E114F10461
:101B900079F0D701ED91FC910680F781E02DB80135
:101BA000C7010995080F111DF701E084F184EECFFC
:101BB000D8011C92F60101900020E9F73197BF018E
:101BC0006C197D0940E0C601C1CF62ED71E002C031
:101BD00066ED71E06115710509F2FB01449150E079
:101BE00080E840CF0FB6F894A89580916000886196
:101BF00080936000109260000FBEA895EE3F2AE02F
:101C0000F20739F08091FE0A9091FF0A9183808358
:101C1000A1CF1092FF0A1092FE0A9CCFEE3F8AE0FD
:101C2000F80731F0808191819093FF0A8093FE0A3A
:101C300087E797E7918380839BE088E10FB6F8946C
:101C4000A895809360000FBE9093600083CF6C9640
:101C50000FB6F894DEBF0FBECDBFDF91CF91FF91DD
:101C6000EF91BF91AF919F918F917F916F915F9114
:101C70004F913F912F911F910F91FF90EF90DF9027
:101C8000CF900F900FBE0F901F90189590E0FC0121
:101C90003197EF30F105B0F5EA5AFF4F0C94321B43
:101CA000809180008F7703C0809180008F7D80932A
:101CB0008000089580918000877FF9CF84B58F7769
:101CC00002C084B58F7D84BD0895809190008F7788
:101CD00007C0809190008F7D03C080919000877F26
:101CE0008093900008958091C0008F7703C0809109
:101CF000C0008F7D8093C00008958091C200877FCF
:101D00008093C20008951F93CF93DF93282F30E074
:101D1000F901EF5AFD4F8491F901EE5CFD4FD4912A
:101D2000F901ED5EFD4FC491CC23C9F0162F81114E
:101D30000E94460EEC2FF0E0EE0FFF1FEE57FE4F15
:101D4000A591B4918FB7F894111105C09C91ED2F16
:101D5000E095E92302C0EC91ED2BEC938FBFDF916E
:101D6000CF911F910895CF93DF9390E0FC01EE5C3B
:101D7000FD4F2491FC01ED5EFD4F8491882361F1BC
:101D800090E0880F991FFC01EC58FE4FC591D4914B
:101D9000FC01EE57FE4FA591B491611109C09FB7A8
:101DA000F8948881209582238883EC912E230BC0A0
:101DB000623061F49FB7F8943881822F8095832335
:101DC0008883EC912E2B2C939FBF06C08FB7F8947D
:101DD000E8812E2B28838FBFDF91CF910895823128
:101DE00008F08251E82FF0E0E859FE4FE49180912D
:101DF0007B00E3FB222720F930E095E0220F331F20
:101E00009A95E1F78F7D282B20937B00E770E064A3
:101E1000E0937C0080917A00806480937A008091C6
:101E20007A0086FDFCCF809178002091790090E0C7
:101E3000922B08958F929F92AF92BF92CF92DF9292
:101E4000EF92FF926B017C010E94CE0A4B015C0174
:101E5000C114D104E104F104F1F00E94CE0ADC01C6
:101E6000CB0188199909AA09BB09883E9340A105AD
:101E7000B10570F321E0C21AD108E108F10888EE3B
:101E8000880E83E0981EA11CB11CC114D104E1048A
:101E9000F10419F7DDCFFF90EF90DF90CF90BF9066
:101EA000AF909F908F9008957F928F929F92AF9264
:101EB000BF92CF92DF92EF92FF920F931F93CF9337
:101EC000DF93C82E8B017A0180912903811103C011
:101ED0008FEF9FEF75C08091C30180FF05C0809197
:101EE000E00082608093E000CE2DDF2DD12C8AEFC0
:101EF000882E8C2D8770B82E8C2D8072A82E8C2D5C
:101F00008074982E9AE3792E209709F452C08C2D74
:101F10000E94450A282F81110AC08A948820C1F2A4
:101F200061E070E080E090E00E941A0FEDCF90E059
:101F3000C817D9070CF42C2F3FB7F894B092E900DA
:101F40008091E80085FF33C0822F90E0C81BD90B39
:101F5000AA2029F02150A8F01092F100FBCFF8013F
:101F6000C7FE07C0215058F044914093F1003196CC
:101F7000F9CF215020F041914093F100FACF080FA2
:101F8000191FDD2019F07092E8000AC08091E80066
:101F900085FD08C07092E800DD24D394209739F0C5
:101FA000D12C05C0209719F491107092E8003FBF22
:101FB000ABCFD110ACCF5D9884E680932703C701E7
:101FC000DF91CF911F910F91FF90EF90DF90CF9015
:101FD000BF90AF909F908F907F900895CF93DF93A5
:101FE000EC0180916901882331F083E00E94540F55
:101FF0001816190634F081E090E09B838A8380E014
:1020000090E0DF91CF9108952FB7F89460910F037E
:102010007091100380911103909112032FBF0895C6
:10202000CF93DF93E0917D03F0917E030484F585E7
:10203000E02D41E0682F8DE793E00995EC01892BB5
:1020400051F0E0917D03F0917E030284F385E02D51
:102050008DE793E00995CE01DF91CF910895CF935D
:10206000DF93E0917D03F0917E030484F585E02DFC
:1020700040E0682F8DE793E00995EC01892B51F042
:10208000E0917D03F0917E030284F385E02D8DE7DE
:1020900093E00995CE01DF91CF910895CF93DF931F
:1020A000E9E5F2E08491EAE3F2E0D491EBE1F2E0D9
:1020B000C491CC2391F081110E94460EEC2FF0E0E8
:1020C000EE0FFF1FEB5FFD4FA591B491EC91ED2357
:1020D00081E090E021F480E002C080E090E0DF91B8
:1020E000CF910895CF93DF93EC0161E08AE00E94E5
:1020F000B30E209711F460E004C0CF3FD10531F456
:1021000061E08AE0DF91CF910C94830EEBE5F2E081
:10211000E4918E2F90E0FC013197EF30F10508F04B
:102120006CC0EB59FF4F0C94321B84B5806884BDA2
:10213000C7BD68C084B5806284BDC8BD63C08091DE
:102140008000806880938000D0938900C0938800CD
:1021500059C080918000806280938000D0938B0072
:10216000C0938A004FC08091800088608093800077
:10217000D0938D00C0938C0045C080919000806802
:1021800080939000D0939900C09398003BC08091B9
:102190009000806280939000D0939B00C0939A003F
:1021A00031C080919000886080939000D0939D0012
:1021B000C0939C0027C08091C00080688093C000BD
:1021C0008091C0008F7B8093C000C093CF001AC065
:1021D0008091C00080628093C000C093D00012C084
:1021E0008091C20088608093C2008091C2008B7F82
:1021F0008093C200C093D20005C0C038D1050CF056
:102200007FCF79CFDF91CF910895CF93DF9300D027
:1022100000D0CDB7DEB7EAE7F3E0928199838A83F5
:102220006B831C820190F081E02D0190F081E02D04
:1022300044E050E0BE016F5F7F4F8AE793E009956D
:102240000F900F900F900F90DF91CF910895BC01E8
:10225000009791F0FC0101900020E9F73197AF0160
:10226000481B590BE0912A03F0912B030280F38164
:10227000E02D8AE293E0099480E090E00895FC016B
:1022800080912903811103C08FEF9FEF08959FB7BD
:10229000F89482E08093E9002091F20030E0121679
:1022A000130614F421E030E02115310559F0289887
:1022B00084E6809328038091F10080838091F2006E
:1022C000882319F09FBFC90108958BE68093E80029
:1022D000F9CF8F929F92AF92BF920F931F93CF939C
:1022E000DF93CDB7DEB7A1970FB6F894DEBF0FBE70
:1022F000CDBF19A2423008F44AE08E010F5D1F4F96
:10230000842E912CA12CB12CA50194010E94F11ACC
:10231000E62FB901CA0101501109EA3014F4E05D59
:1023200001C0E95CD801EC93232B242B252B61F70A
:10233000C8010E942711A1960FB6F894DEBF0FBE08
:10234000CDBFDF91CF911F910F91BF90AF909F9024
:102350008F900895E0912A03F0912B030190F08172
:10236000E02D682F8AE293E00994CF93DF9300D0A9
:1023700000D0CDB7DEB7789484B5826084BD84B5D3
:10238000816084BD85B5826085BD85B5816085BD70
:1023900080916E00816080936E0010928100809128
:1023A00081008260809381008091810081608093B0
:1023B00081008091800081608093800080919100F5
:1023C0008260809391008091910081608093910060
:1023D000809190008160809390008091C100846022
:1023E0008093C1008091C10082608093C100809180
:1023F000C10081608093C1008091C300816080939F
:10240000C3008091C00082608093C0008091C200B0
:1024100081608093C20080917A00846080937A000A
:1024200080917A00826080937A0080917A00816046
:1024300080937A0080917A00806880937A0010926D
:1024400029031092C4011092C3018091D7008160CA
:102450008093D70080EA8093D80089B5806189BDD8
:1024600089B5826089BD09B400FEFDCF61E070E0EE
:1024700080E090E00E941A0F8091D8008F7C8061EC
:102480008093D8008091E000807F8093E00080916D
:10249000E1008E7E8093E1008DE08093E200559A0A
:1024A000209AEEEFFFE7859194918B3F9C4D19F4B4
:1024B00081E08093C20168EE73E080E090E00E94CA
:1024C0001A0F8FEF9FEF909337038093360361E0ED
:1024D00086E00E94B30E14E061E086E00E94830E65
:1024E00062E370E080E090E00E941A0F60E086E016
:1024F0000E94830E62E370E080E090E00E941A0F79
:10250000115051F761E08AE00E94B30E61E080E172
:102510000E94B30E61E08FE00E94B30E61E085E09F
:102520000E94B30E61E08DE00E94B30E60E080E196
:102530000E94830E60E08FE00E94830E60E085E0E1
:102540000E94830E60E08DE00E94830E64E670E0DE
:1025500080E090E00E941A0F0E94CD0660E087E1C3
:102560000E94B30E60E08DE10E94B30E60E088E14E
:102570000E94B30E60E085E10E94B30E60E084E14A
:102580000E94B30E1092320180E090E00E94B11AD6
:10259000833611F00E9462090E944B09809131013B
:1025A0000E94B60981E090913201911101C080E052
:1025B0000E949A0981E090913301911101C080E05D
:1025C0000E948B0980913401882321F081E080935F
:1025D000340102C0109234010E9462091092C601B7
:1025E0001092C5011092EF01109210021092ED01AD
:1025F00011E01093EC011092C70161E082E00E94AB
:10260000830E61E083E00E94830E8091B9008E7F8B
:102610008093B9008091B9008D7F8093B90088E4E0
:102620008093B80085E48093BC001093EE0184E2AF
:10263000809325021092EF011092100260E089E869
:1026400093E00E94470380911002813208F045C058
:102650009091ED019111FCCF92E09093ED0191E00A
:102660009093EC019FEF9093EB011092EA0180931D
:10267000E901A0EFB1E029EC31E0F9019E2F921BB6
:10268000981718F49D919193F9CF1092C8018091F9
:10269000C80188648093C8018091C701813061F4CA
:1026A0001092C7018091C8018093BB008091BC004B
:1026B00083FDF8CF85EC01C085EE8093BC0080914E
:1026C000ED018230E1F38091EB018F3F31F0809199
:1026D000EB01803211F08091EB011092EF0110922A
:1026E00010021092EE010E941C0880911B028823A8
:1026F00009F497C08DE10E94EF0E8C014C0188E136
:102700000E94EF0E9A8389831C010E9404102B0102
:102710003C01E980FA8068010E940410DC01CB01D1
:1027200084199509A609B70980319742A105B10519
:1027300008F04AC061E086E00E94830E8DE10E94AD
:10274000EF0E5C0161E070E080E090E00E941A0F03
:1027500088E10E94EF0E48018C0C9D1C97FE03C07F
:102760003FEF831A930A9594879429813A812E0D1D
:102770003F1D37FF02C02F5F3F4F1901359427944B
:10278000A016B10608F4850149815A81841795077E
:1027900010F49A838983CA14DB0408F46501E816EF
:1027A000F90608F47C0164E670E080E090E00E94A5
:1027B0001A0F60E086E00E94830E64E670E080E01D
:1027C00090E00E941A0FA8CFC818D908E218F308A1
:1027D0000819190910933A010093390189819A81E6
:1027E0008219930990933C0180933B01D0923E0162
:1027F000C0923D01F0924001E0923F01909236017B
:1028000080923501309238012092370181E0809327
:102810004F0182E390E090934E0180934D010E941E
:10282000620910927C0360E080E00E940511E09153
:102830007D03F0917E030084F185E02D8DE793E028
:102840000995E0917D03F0917E030284F385E02DEC
:102850008DE793E0099504E013E08AE293E00E949B
:10286000B40A181619060CF004C18AE293E00E941B
:10287000F50A813609F47CC004F5893409F44CC0AA
:102880004CF4823409F490C08334F1F1813409F0BE
:10289000EDC077C0863599F1873509F456C08C3480
:1028A00009F0E4C064E170E080E090E00E941A0F5B
:1028B0001092670210926602B4C08D3609F4A2C06D
:1028C0008CF4893631F18C3609F4CCC0823609F0AB
:1028D000CDC0609111028AE293E00E948E0A60915D
:1028E000120291C0833709F47DC0873759F18237CE
:1028F00009F0BCC01092230210922402B5C060916E
:1029000078027091790237C06091760270917702F7
:1029100032C0609134012EC08AE293E00E94B40A72
:10292000019709F0A3C08AE293E00E94F50A81337F
:1029300021F481E08093340102C0109234010E949E
:10294000620992C06091320115C08AE293E00E9450
:10295000B40A019709F08AC08AE293E00E94F50A5E
:10296000813311F481E001C080E00E949A097CC0AB
:102970006091330170E080E090E04AE00E946911CC
:1029800078C08AE293E00E94B40A019709F06EC011
:102990008AE293E00E94F50A813311F481E001C0DC
:1029A00080E00E948B0960C0609123028AE293E07C
:1029B0000E948E0A609124028AE293E00E948E0AAD
:1029C00010922302109224020E9404106093840249
:1029D00070938502809386029093870291E0909392
:1029E000880247C060917F0280913201811162604C
:1029F000809133018111646080913401882319F042
:102A0000686001C061E28AE293E00E948E0A31C0F0
:102A10008AE293E00E94F50A813259F4A1E0A09382
:102A200066028AE293E00E94B40A1816190684F33B
:102A30000BC090916702E92FF0E0EA5DFD4F8083C3
:102A40009F5F90936702EDCF80916602882339F0F3
:102A5000D0906702D0FEBEC48EEB91E0B8C48BEB81
:102A600091E0B5C40E94CD0681E301C08FE30E94CE
:102A7000AA110E940410C0908902D0908A02E090AE
:102A80008B02F0908C02DC01CB018C199D09AE0900
:102A9000BF094197A105B10508F4FEC361E086E0D6
:102AA0000E94830E0E941C0880918802811189C3B4
:102AB00080915501882359F0813061F0823069F0AE
:102AC000833071F0843079F48DE249E10EC089E100
:102AD0004DE70BC08EE144E608C083E24BE405C03D
:102AE00088E242E302C080E040E050E060E070E055
:102AF0004093040150930501609306017093070110
:102B000090E0A0E0B0E08093080190930901A093C9
:102B10000A01B0930B01409310015093110160938F
:102B20001201709313018093140190931501A093E7
:102B30001601B093170140931C0150931D0160933F
:102B40001E0170931F018093200190932101A09397
:102B50002201B093230140932801509329016093EF
:102B60002A0170932B0180932C0190932D01A09347
:102B70002E01B0932F0180914F01882309F4CEC01C
:102B80008DE10E94EF0E7C0188E10E94EF0E209102
:102B9000350130913601A701421B530B9A01409138
:102BA0003701509138011C01241A350A40914D011A
:102BB00050914E01421753071CF4241B350B0CC0D7
:102BC00088279927841B950B281739071CF4240F95
:102BD000351F02C020E030E0421553051CF4241AD2
:102BE000350A0CC088279927841B950B28163906AF
:102BF0001CF4240E351E02C0212C312CC09008017B
:102C0000D0900901E0900A01F0900B0126013701F4
:102C1000552466247724D12CD194C194D1080D2C4D
:102C2000000CEE08FF088090390190903A0152E3C1
:102C3000850E911C092C000CAA08BB08C901330F92
:102C4000AA0BBB0B9C01AD01281939094A095B0984
:102C5000C301B2016C197D098E099F090E94221BD4
:102C600020913D0130913E0122533109032E000C89
:102C7000440B550B281939094A095B090E94C71AE8
:102C8000DA01C9018C0D9D1DAE1DBF1D89839A837C
:102C9000AB83BC8380913B0190913C01C2964C0177
:102CA000990FAA08BB08C101330CAA0BBB0B9C01EE
:102CB000AD01281939094A095B09C701B601641930
:102CC0007509860997090E94221B20913F013091C6
:102CD0004001225331096901330FEE08FF08A701B3
:102CE0009601281939094A095B090E94C71A420E40
:102CF000531E641E751E80915201811103C089818B
:102D0000642D02C0842D69819091530191118195A8
:102D100090915401992321F0619502C060E080E018
:102D20000E94051180911302882321F08AE10E94FC
:102D3000101003C08AE10E942F1080911402882392
:102D400021F086E10E94101003C086E10E942F103E
:102D500080911502882321F084E00E94101003C0A6
:102D600084E00E942F1080911602882321F087E0D2
:102D70000E94101003C087E00E942F1080911F0254
:102D8000882321F084EE0E94101003C084EE0E947C
:102D90002F1080911D02882321F08CE20E941010D8
:102DA00003C08CE20E942F1080911E02882321F024
:102DB00088E00E94101003C088E00E942F108091CC
:102DC0002002882321F081EE0E94101003C081EEC2
:102DD0000E942F1080911702882321F08FE40E9417
:102DE000101003C08FE40E942F10809118028823D6
:102DF00021F081E50E94101003C081E50E942F1090
:102E000080911A02882321F082E50E94101003C0ED
:102E100082E50E942F1080911902882321F080E51D
:102E20000E94101003C080E50E942F1080911B02A9
:102E3000882321F088E20E94101003C088E20E94DB
:102E40002F1080911C02882321F089E20E9410102B
:102E500003C089E20E942F1080917F02882309F429
:102E600025C180911D02882309F456C080916E020D
:102E700090916F02A0917002B0917102892B8A2B00
:102E80008B2B51F40E94041060936E0270936F02BA
:102E900080937002909371020E940410C0906E02A1
:102EA000D0906F02E0907002F0907102DC01CB01D3
:102EB0008C199D09AE09BF098838E3E19E07A10579
:102EC000B10530F4F1E0F0936D028BE490E00BC0BB
:102ED000803127E29207A105B10540F482E080939A
:102EE0006D0286E990E00E94721055C088393AE37D
:102EF0009307A105B10528F410936D0288EC90E0CA
:102F0000F2CF80329E44A105B10508F044C0009381
:102F10006D0281EE90E0E7CF80916D028823D9F1B8
:102F2000813049F4809155018F5F853009F074C27A
:102F30001092550115C0823039F48091530151E04F
:102F40008527809353010CC0833051F48091510147
:102F50008F5F823019F08093510102C010925101AD
:102F60000E9462098FEF90E00E94721064EF71E09E
:102F700080E090E00E941A0F8091310190E00E9461
:102F8000721010926E0210926F02109270021092E4
:102F9000710210926D0280911F02882309F456C0BD
:102FA0008091690290916A02A0916B02B0916C02CB
:102FB000892B8A2B8B2B51F40E9404106093690299
:102FC00070936A0280936B0290936C020E940410CB
:102FD000C0906902D0906A02E0906B02F0906C029F
:102FE000DC01CB018C199D09AE09BF098838E3E1EA
:102FF0009E07A105B10530F4F1E0F09368028BE47F
:1030000090E021C0803127E29207A105B10530F49C
:1030100082E08093680286E990E015C088393AE33F
:103020009307A105B10528F41093680288EC90E09D
:103030000AC080329E44A105B10508F04BC0009340
:10304000680281EE90E00E94721044C08091680294
:10305000882309F43FC0813031F4909152018927CF
:103060008093520111C0823039F48091540151E0B3
:1030700085278093540108C0833031F48091560134
:1030800091E08927809356010E9462098FEF90E0BA
:103090000E94721064EF71E080E090E00E941A0FCD
:1030A0008091310190E00E9472100AC010926E026D
:1030B00010926F02109270021092710210926D02C3
:1030C0001092690210926A0210926B0210926C02C6
:1030D0001092680280917F0281118AC0809156010E
:1030E000882309F485C0E12CF12CF701ED5EFD4F3A
:1030F0008081882351F00E940410609372027093C3
:1031000073028093740290937502AFEFEA1AFA0A81
:10311000B0E1EB16F10449F70E940410C09072026E
:10312000D0907302E0907402F0907502DC01CB0144
:103130008C199D09AE09BF0926013701E0E24E0E48
:10314000EFEB5E1EE2E06E1E711C809031014816AE
:1031500059066A067B0680F5F8EBCF0EF9EFDF1E05
:10316000F2E0EF1EF11C912CA12CB12CC816D9064F
:10317000EA06FB0610F4D701C6019C01AD01241933
:103180003509460957096FEF70E080E090E0681953
:1031900079098A099B090E94221BA701960124191B
:1031A0003509460957090E94C71ADA01C901880D75
:1031B000991DAA1DBB1D01C0882D90E00E947210B0
:1031C00017C00E940410C0908402D0908502E09045
:1031D0008602F0908702DC01CB018C199D09AE09B3
:1031E000BF09893E9340A105B10510F010928802F5
:1031F00080917F02882309F441C0809113028823C3
:1032000019F082E00E94B60980911402882319F017
:1032100081E00E94B60980911702882319F081E0AD
:103220000E949A0980911802882319F080E00E9478
:103230009A0980911A02882319F081E00E948B0973
:1032400080911902882319F080E00E948B098091F7
:103250001B02882329F031E0309334010E94620977
:1032600080911C02882321F0109234010E9462098F
:1032700068EC70E080E090E00E941A0F60E086E069
:103280000E94830E0E9404106093890270938A0248
:1032900080938B0290938C020E940410C090800255
:1032A000D0908102E0908202F0908302DC01CB0199
:1032B0008C199D09AE09BF09893C9105A105B1058D
:1032C00008F187E10E94EF0E059740F40E944E102E
:1032D000892B21F041E040937F0202C010927F02CF
:1032E00080917F02882321F0109223021092240201
:1032F0000E94041060938002709381028093820286
:10330000909383020E940410C0907B02D0907C02B4
:10331000E0907D02F0907E02DC01CB018C199D09CA
:10332000AE09BF09893E9340A105B105D8F161E01E
:1033300070E080E090E00E941A0F84E10E94EF0E9E
:10334000909379028093780261E070E080E090E0F1
:103350000E941A0F85E10E94EF0E909377028093EE
:10336000760261E070E080E090E00E941A0F0E9417
:103370004E1020917A02892B41F0211109C081E081
:1033800080937A020E94CD0603C0211110927A0226
:103390000E94041060937B0270937C0280937D02F4
:1033A00090937E02A0E0B0E0AB2B09F456CA0E94D5
:1033B000000053CAC0FC16C0C394EFEFEE1AFE0A19
:1033C000CD10F8CF80E00E94B60688EB91E00E9415
:1033D00027114FCB0E947A0686E2E82E82E0F82E73
:1033E000C12CEECFF7018081319790819A3314F48C
:1033F000905301C097539295907F8A3314F4805371
:1034000001C08753890FB1E0CB1203C00E949C0614
:10341000D3CF0E948206D0CF80935501A1CD1092C8
:103420002D0310922C0388EE93E0A0E0B0E080938F
:103430002E0390932F03A0933003B09331038AE7B8
:1034400091E090932B0380932A038FEF9FEF90934B
:1034500037038093360310927C038CE891E09093BD
:103460007B0380937A0380919B03811113C0109298
:1034700096031092950380E792E0909398038093CF
:1034800097038BE290E090939A038093990381E0F5
:1034900080939B030E94A90465E973E00E948C0459
:1034A0001092800310927F0382E991E090937E0353
:1034B00080937D038091A903811113C01092A4030E
:1034C0001092A3038BE992E09093A6038093A50347
:1034D0008BE390E09093A8038093A70381E080930F
:1034E000A9030E94A90463EA73E00E948C0484EAA1
:1034F00091E09093C0038093BF038091B703811143
:1035000013C01092B2031092B10386ED92E0909333
:10351000B4038093B30380E590E09093B603809367
:10352000B50381E08093B7030E94A90461EB73E0C7
:103530000E948C0410928C0310928B0388EE93E00F
:10354000A0E0B0E080938D0390938E03A0938F034F
:10355000B09390038AEA91E090938A038093890361
:103560000895F999FECF92BD81BDF89A992780B54B
:103570000895262FF999FECF1FBA92BD81BD20BDB7
:103580000FB6F894FA9AF99A0FBE01960895052E8F
:1035900097FB1EF400940E94DE1A57FD07D00E948C
:1035A000F11A07FC03D04EF40C94DE1A50954095A6
:1035B000309521953F4F4F4F5F4F089590958095DF
:1035C000709561957F4F8F4F9F4F08950E94131BF9
:1035D000A59F900DB49F900DA49F800D911D112467
:1035E0000895A1E21A2EAA1BBB1BFD010DC0AA1F44
:1035F000BB1FEE1FFF1FA217B307E407F50720F05C
:10360000A21BB30BE40BF50B661F771F881F991FD6
:103610001A9469F760957095809590959B01AC011F
:10362000BD01CF010895A29FB001B39FC001A39F28
:10363000700D811D1124911DB29F700D811D1124EB
:10364000911D0895DB018F939F930E94E61ABF910D
:10365000AF91A29F800D911DA39F900DB29F900DE1
:1036600011240895EE0FFF1F0590F491E02D0994A9
:0E36700081E090E0F8940C943D1BF894FFCF9D
:10367E0000000000640000000A00000000000000CE
:10368E00640000000A00000000000000640000005A
:10369E000A00000000000000640000000A000000A4
:1036AE0063000101000000000000000000000000A7
:1036BE0000000000000000000000000000320000CA
:1036CE000000000000000000C18081000000FFFF2C
:1036DE00FFFF00E100000000000000000000BE013E
:1036EE00EE03AE03E501000000008E0AEE0FAF0AF6
:1036FE00A40AB40AF50A130B000000001B05000013
:10370E0000009002630A7703760308022C05170265
:10371E00000000003B05000000004703170377037D
:10372E00EB020F03FB02EC024C5300463100463213
:02373E00000089
:00000001FF
