:100000000C9421010C9449010C9449010C94490170
:100010000C9449010C9449010C9449010C94490138
:100020000C9449010C9449010C94A8020C94870388
:100030000C9449010C9449010C9449010C94490118
:100040000C9449010C9449010C9449010C94490108
:100050000C9449010C9449010C9449010C94140925
:100060000C9449010C9449010C9449010C944901E8
:100070000C9449010C9449010C9449010C944901D8
:100080000C9449010C9449010C9449010C944901C8
:100090000C94E4090C9449010C9449010C94490115
:1000A0000C9449010C9449010C944901CF05D205E7
:1000B000C105C505CB05F305F305F305D605DA053E
:1000C000DE05E405E805F305EE05150D1A0D1F0D17
:1000D000290D330D7D0D7D0D7D0D3D0D470D510D10
:1000E0005B0D680D7D0D700D070605040100080A03
:1000F0000B0C0D0900000000240027002A002D0031
:10010000300000000000250028002B002E003100E8
:10011000080B0002020201000904000001020200B3
:100120000005240010010524010101042402060534
:1001300024060001070581031000400904010002A4
:100140000A00000007050202400000070583024084
:1001500000000403090412010002EF0201404123E0
:10016000368000010102030141726475696E6F20DF
:100170004C4C430041726475696E6F204C656F6E24
:100180006172646F00000000002300260029002C2B
:10019000002F000404040404030405020202020404
:1001A0000302020202060606060606040402020212
:1001B0000404040802011040804010204080408068
:1001C00008020401804020100201108010204040ED
:1001D000200000000200090F0000030401000C00D1
:1001E000000000000000000000000000000000000F
:1001F00005010904A1018506050919012920150039
:1002000025017501952081020501A1000930093100
:100210000933093416008026FF7F7510950481028A
:10022000093209351580257F750895028102C005C0
:10023000010939093915012508950275048102C0A3
:10024000751511241FBECFEFDAE0DEBFCDBF11E080
:10025000A0E0B1E0E6EFFCE202C005900D92A43709
:10026000B107D9F723E0A4E7B1E001C01D92A9349A
:10027000B207E1F711E0C1E2D1E004C02197FE012D
:100280000E946E16C032D107C9F70E94470E0C9427
:1002900079160C9400004091470250914802209139
:1002A00045023091460242175307B4F49091E8009A
:1002B0009570E1F39091E80092FD19C08093F100F0
:1002C000809147029091480201968F739927892B5C
:1002D00019F48EEF8093E8008091470290914802D4
:1002E0000196909348028093470281E0089580E050
:1002F0000895CF92DF92EF92FF920F931F93CF93C7
:10030000DF931F92CDB7DEB7182F062FE42E862F6E
:10031000880F8E5F99830E944B0183E00E944B01FE
:10032000F12EC12E9981D92E8C2D8F19801798F41A
:10033000F601E7FE02C0849101C080810E944B015A
:10034000182F80E00E944B018123FFEFCF1ADF0AB4
:100350008111EACF01C081E00F90DF91CF911F9111
:100360000F91FF90EF90DF90CF9008952FB7F89402
:1003700087708093E9009091E800892F807295FF43
:1003800004C09091F20080E4891B2FBF0895615052
:1003900030F02091F100FC0120830196F8CF2898DD
:1003A00084E68093B3020895CF92DF92EF92FF929A
:1003B0000F931F93CF93DF936C017A018B01C0E001
:1003C000D0E0CE15DF0589F0D8016D918D01D60101
:1003D000ED91FC910190F081E02DC6010995892BEA
:1003E00011F47E0102C02196ECCFC701DF91CF91BD
:1003F0001F910F91FF90EF90DF90CF900895CF93D2
:10040000DF931F92CDB7DEB76983DC01ED91FC91DC
:100410000280F381E02D41E050E0BE016F5F7F4F2D
:1004200009950F90DF91CF91089583E08093E900C3
:100430008091F200882319F08AE38093E800089500
:1004400083E00E94B60190E00895FC0184859585C3
:1004500097FD0BC09FB7F89482E08093E9008091EC
:10046000F2009FBF90E0019608959FB7F89482E054
:100470008093E9008091F2009FBF90E008953FB71C
:10048000F8948091350290913602A0913702B09194
:10049000380226B5A89B05C02F3F19F00196A11D73
:1004A000B11D3FBFBA2FA92F982F8827820F911D0A
:1004B000A11DB11DBC01CD0142E0660F771F881F51
:1004C000991F4A95D1F708950E9474160F931F93B0
:1004D000CF93DF931F92CDB7DEB78C01FC018485EB
:1004E000958597FF0EC0CE0101960E94D10D019710
:1004F00019F4298130E002C02FEF3FEFF801358772
:100500002487F801848595850F90DF91CF911F9105
:100510000F910895CF93DF931F92CDB7DEB7FC0103
:100520008485958597FD05C02FEF3FEF358724879C
:100530000BC0CE0101960E94D10D019719F489815B
:1005400090E002C08FEF9FEF0F90DF91CF91089561
:100550001F920F920FB60F9211248F939F93809149
:10056000E1009091E100937F9093E10083FF0FC041
:100570001092E90091E09093EB001092EC0092E36E
:100580009093ED001092B40298E09093F00082FFF7
:1005900020C093E09093E9009091F200992319F024
:1005A0009AE39093E80090914902992339F0909151
:1005B0004902915090934902992389F19091B30295
:1005C000992339F09091B30291509093B3029923FB
:1005D00041F184FF10C08091E2008E7E81608093A3
:1005E000E2008091E1008F7E8093E10080917501AF
:1005F0008E7E806111C080FF16C08091E2008E7EE9
:1006000080618093E2008091E1008E7E8093E10022
:10061000809175018E7E81608093750104C05D9A22
:10062000CDCF289AD6CF9F918F910F900FBE0F906C
:100630001F901895DF92EF92FF920F931F93CF9325
:10064000DF93D82E8A017B01E40EF51EEB01CE1557
:10065000DF0571F0D7FE03C0FE01849101C08881DF
:100660000E944B0121968111F2CF8FEF9FEF01C0C5
:10067000C801DF91CF911F910F91FF90EF90DF9014
:10068000089580913D0281110DC082E0809339026E
:1006900084E080933A0210923C0210923B0281E087
:1006A00080933D0289E392E008950F931F93CF93C7
:1006B000DF931F92CDB7DEB782E0898342E450E03A
:1006C00060E171E080E80E941A030E944103DC01AE
:1006D00012960D911C9113970115110569F0D8011F
:1006E000ED91FC910280F381E02DBE016F5F7F4FA1
:1006F000C801099597FF07C089810F90DF91CF91BD
:100700001F910F910895F80100851185E5CF1F9283
:100710000F920FB60F921124CF92DF92EF92FF92B9
:100720000F931F932F933F934F935F936F937F93F9
:100730008F939F93AF93BF93EF93FF93CF93DF93E9
:10074000CDB7DEB76C97DEBFCDBF1092E9008091C8
:10075000E80083FFEDC168E0CE0145960E94C70125
:1007600082EF8093E8008D8987FF05C09091E800B3
:1007700090FFFCCF03C09EEF9093E800982F9076F7
:1007800009F0C6C09E892F89188D91110CC0803840
:1007900029F4809176018093F10002C01092F1005B
:1007A0001092F10048C1422F50E0512B913051F48A
:1007B000811141C14130510509F03DC1809176015F
:1007C0008D7F0BC0933061F4811135C141305105EB
:1007D00009F031C1809176018260809376012BC14E
:1007E000953041F48091E80080FFFCCF2068209391
:1007F000E30021C1963009F05FC0EB8CFC8C1092B5
:10080000E9001092480210924702123091F51092BE
:100810004602109245020E94550399E0BE016F5FA7
:100820007F4FDB01E92F1D92EA95E9F799831A833F
:1008300091E09E8390EA98879AEF998720914702EA
:1008400030914802275F3F4F3C832B838D8310926A
:10085000E9001092480210924702F0924602E0929C
:10086000450249E050E080E00E941A030E945503CF
:10087000E2C0F0924602E09245020E944103DC0190
:100880001296ED90FC901397E114F10409F4C0C0A6
:10089000D701ED91FC910480F581E02DBE016B5EE6
:1008A0007F4FC7010995009719F00CF0C4C0C7C06D
:1008B000F701E084F184E8CF973009F4C0C09830A4
:1008C00021F481E08093F100B6C0993009F0B3C003
:1008D000837009F0B4C0E2E2F1E081E021E036E3A8
:1008E0009081992361F08093E9002093EB0091912E
:1008F0009093EC003093ED008F5F873089F78EE79F
:100900008093EA001092EA008F898093B40293C02A
:100910008B8D9C8D1092E900109248021092470234
:100920009093460280934502898D811156C08E892D
:100930009D89913A59F4813209F081C047E050E035
:100940006CE271E080E00E941A0375C0913209F0F8
:1009500076C0833289F4888D90E0982F88272F897C
:10096000822BA0E0B0E08093280190932901A0930E
:100970002A01B0932B015FC0803269F48091E800B6
:1009800082FFFCCF67E08CE291E00E94C7018BEF11
:100990008093E80006C0823209F04DC08F898093B1
:1009A000330180917401882319F0EEEFFAE002C060
:1009B000E0E0F8E080912C0190912D01A0912E01B2
:1009C000B0912F01803B9440A105B10509F07BC097
:1009D0008091330180FF93C076C00E944103DC0107
:1009E00012960D911C9113970115110541F1D80133
:1009F000ED91FC910190F081E02DBE016B5E7F4F87
:100A0000C8010995811117C0F80100851185ECCF47
:100A1000113009F44EC0133091F48F89882309F402
:100A200045C0823081F440E860E184E791E00E94B3
:100A30007901882321F08EEF8093E80079C081E26C
:100A40008093EB0075C0813029F440E86BE088E6C4
:100A500091E0EDCF833099F70E944103DC011296BB
:100A6000ED90FC9013978E010F5F1F4F6801E1140A
:100A7000F10479F0D701ED91FC910680F781E02D2A
:100A8000B801C7010995080F111DF701E084F18431
:100A9000EECFD8011C92F60101900020E9F73197C2
:100AA000BF016C197D0940E0C601C1CF62E571E06C
:100AB00002C066E571E06115710509F2FB01449120
:100AC00050E080E840CF0FB6F894A8958091600080
:100AD000886180936000109260000FBEA895EE3F81
:100AE0002AE0F20739F08091FE0A9091FF0A918383
:100AF0008083A1CF1092FF0A1092FE0A9CCFEE3F96
:100B00008AE0F80731F0808191819093FF0A809309
:100B1000FE0A87E797E7918380839BE088E10FB621
:100B2000F894A895809360000FBE9093600083CFE7
:100B30006C960FB6F894DEBF0FBECDBFDF91CF919C
:100B4000FF91EF91BF91AF919F918F917F916F91A5
:100B50005F914F913F912F911F910F91FF90EF90D7
:100B6000DF90CF900F900FBE0F901F90189590E0E0
:100B7000FC013197EF30F105B0F5EA5AFF4F0C94C4
:100B80006E16809180008F7703C0809180008F7DEA
:100B900080938000089580918000877FF9CF84B58D
:100BA0008F7702C084B58F7D84BD089580919000B9
:100BB0008F7707C0809190008F7D03C08091900057
:100BC000877F8093900008958091C0008F7703C045
:100BD0008091C0008F7D8093C00008958091C200F5
:100BE000877F8093C20008951F93CF93DF93282FB0
:100BF00030E0F901EF52FE4F8491F901EE54FE4FBF
:100C0000D491F901ED56FE4FC491CC23C9F0162FB3
:100C100081110E94B705EC2FF0E0EE0FFF1FEE5F91
:100C2000FE4FA591B4918FB7F894111105C09C9116
:100C3000ED2FE095E92302C0EC91ED2BEC938FBFF3
:100C4000DF91CF911F910895CF93DF9390E0FC0146
:100C5000EE54FE4F2491FC01ED56FE4F8491882303
:100C600061F190E0880F991FFC01EC50FF4FC59196
:100C7000D491FC01EE5FFE4FA591B491611109C0C2
:100C80009FB7F8948881209582238883EC912E2346
:100C90000BC0623061F49FB7F8943881822F809541
:100CA00083238883EC912E2B2C939FBF06C08FB794
:100CB000F894E8812E2B28838FBFDF91CF91089580
:100CC000823108F08251E82FF0E0E851FF4FE491C3
:100CD00080917B00E3FB222720F930E095E0220F92
:100CE000331F9A95E1F78F7D282B20937B00E770C7
:100CF000E064E0937C0080917A00806480937A00C5
:100D000080917A0086FDFCCF809178002091790057
:100D100090E0922B08958F929F92AF92BF92CF92C4
:100D2000DF92EF92FF926B017C010E943F024B0128
:100D30005C01C114D104E104F104F1F00E943F020E
:100D4000DC01CB0188199909AA09BB09883E9340A7
:100D5000A105B10570F321E0C21AD108E108F1083C
:100D600088EE880E83E0981EA11CB11CC114D1042A
:100D7000E104F10419F7DDCFFF90EF90DF90CF9001
:100D8000BF90AF909F908F9008957F928F929F9287
:100D9000AF92BF92CF92DF92EF92FF920F931F9389
:100DA000CF93DF93C82E8B017A018091B402811119
:100DB00003C08FEF9FEF75C08091750180FF05C064
:100DC0008091E00082608093E000CE2DDF2DD12C59
:100DD0008AEF882E8C2D8770B82E8C2D8072A82ECD
:100DE0008C2D8074982E9AE3792E209709F452C0A6
:100DF0008C2D0E94B601282F81110AC08A94882068
:100E0000C1F261E070E080E090E00E948B06EDCFDF
:100E100090E0C817D9070CF42C2F3FB7F894B09284
:100E2000E9008091E80085FF33C0822F90E0C81B65
:100E3000D90BAA2029F02150A8F01092F100FBCF85
:100E4000F801C7FE07C0215058F044914093F100CB
:100E50003196F9CF215020F041914093F100FACF23
:100E6000080F191FDD2019F07092E8000AC0809168
:100E7000E80085FD08C07092E800DD24D394209737
:100E800039F0D12C05C0209719F491107092E80028
:100E90003FBFABCFD110ACCF5D9884E680934902C1
:100EA000C701DF91CF911F910F91FF90EF90DF90DD
:100EB000CF90BF90AF909F908F907F900895CF93E9
:100EC000DF93EC0180913301882331F083E00E94AD
:100ED000C5061816190634F081E090E09B838A83DA
:100EE00080E090E0DF91CF9108952FB7F894609162
:100EF00031027091320280913302909134022FBFFF
:100F00000895DC01FB0112968C91129790E02481E8
:100F1000358182179307D1F491818081813A31F430
:100F200081E0913091F0933089F411C0813271F4F5
:100F30009B3021F482811F968C9305C09A3031F446
:100F4000828150968C9381E00895089580E0089501
:100F5000DC01FB0188E4808389E4818384E482836B
:100F60001D969C911D979F709F5B93831D968D91FD
:100F70009C911E9724E0969587952A95E1F78F70AE
:100F80008F5B848385E00895FC0182818F5BFB0188
:100F9000808381E0089585ED8093BC008091BC0042
:100FA00084FDFCCF10929F01089540918D02262F61
:100FB00030E0240F311D21323105DCF420919F01F6
:100FC0002430C9F4FC0180E090E0861758F4309199
:100FD0008D022191DC01A559BD4FA30FB11D2C93AA
:100FE0000196F3CF80918D02680F60938D0280E0AF
:100FF000089581E0089582E008950895E0917801D0
:1010000080917701E81730F4F0E0E55BFD4F8081D7
:1010100090E008958FEF9FEF08959091780180916F
:101020007701981750F4E92FF0E0E55BFD4F208140
:1010300030E09F5F9093780102C02FEF3FEFC9012E
:1010400008958091770190E020917801821B9109A9
:101050000895CF92DF92EF92FF920F931F93CF9359
:10106000DF937C01262F972F8A018091A00188238E
:1010700091F0C62FD72F6E01C40ED51ECC15DD05FD
:1010800071F06991D701ED91FC910190F081E02D13
:10109000C7010995F3CF642F822F0E94D507C8019D
:1010A000DF91CF911F910F91FF90EF90DF90CF9044
:1010B0000895CF93DF931F92CDB7DEB76983209158
:1010C000A0012223D1F02091C201203240F021E082
:1010D00030E0FC013383228380E090E015C08091F2
:1010E000A101E82FF0E0EE55FE4F998190838F5FCC
:1010F0008093A1018093C20105C061E0CE010196F9
:101100000E94D50781E090E00F90DF91CF91089584
:10111000089580E090E00895EF92FF920F931F935F
:10112000CF93DF93FB012081213851F523812232B7
:1011300039F5DC0112962C9130E04481558142173B
:101140005307F1F4EC010B851C85E12CF12C011502
:10115000110591F0F801448155816281738180E825
:101160000E941A038F3FFFEF9F0769F0E80EF91EF8
:10117000D8010D911C91EBCF81E08F87C70105C08D
:1011800080E090E002C08FEF9FEFDF91CF911F9141
:101190000F91FF90EF900895CF93DF93CDB7DEB717
:1011A00069970FB6F894DEBF0FBECDBFFC01DB011F
:1011B0008C918F5F8C93BE016F5F7F4F89E1DB0164
:1011C0001D928A95E9F729E0298384E08A8391E0DA
:1011D0009D8383E08E832A8721E22B879C879D87CE
:1011E0009F8722E2288B27E02B8B25E02C8B8E8B90
:1011F00020E430E0388F2F8B998F82818B83958507
:101200008685998B8A8B838180688D8B49E150E03C
:1012100080E00E941A0369960FB6F894DEBF0FBEF5
:10122000CDBFDF91CF9108951F920F920FB60F920D
:1012300011242F933F938F939F93AF93BF938091EC
:10124000310290913202A0913302B0913402309178
:10125000B20223E0230F2D3720F40196A11DB11D0A
:1012600005C026E8230F0296A11DB11D2093B202EE
:101270008093310290933202A0933302B0933402F0
:101280008091350290913602A0913702B0913802D8
:101290000196A11DB11D8093350290933602A09353
:1012A0003702B0933802BF91AF919F918F913F91D8
:1012B0002F910F900FBE0F901F901895CF93DF9333
:1012C000EC0181E08C838D839E01265F3F4F3F833D
:1012D0002E831986188628E331E0398328831C86FB
:1012E0001B861E861D868F87888B81EC8A870E94CD
:1012F0004103FC0121818C8190E0820F911D0897B0
:1013000074F5A281B381109719F4D383C2830CC002
:1013100018968D919C911997009711F0DC01F8CFE8
:101320001996DC93CE93189780818A8381818B8371
:1013300090818D81890F808380E09C81891778F46A
:10134000AE81BF81A80FB11D9C91A181B0E0AF5DBE
:10135000BE4F9C9391819F5F91838F5FEECFDF9112
:10136000CF910895EF92FF920F931F93CF93DF9346
:101370001F92CDB7DEB78B017A01809116038111E0
:1013800007C085E093E00E945E0981E08093160328
:1013900086E0898341E050E0BE016F5F7F4F80911E
:1013A00008030E94C50697FD07C080910803A701A6
:1013B000B80180640E94C5060F90DF91CF911F9104
:1013C0000F91FF90EF9008951F920F920FB60F921A
:1013D00011242F933F934F935F936F937F938F933A
:1013E0009F93AF93BF93EF93FF938091B900887F52
:1013F000803609F49CC068F5883209F45BC090F42B
:10140000803109F454C038F4882309F4F6C08830D8
:1014100009F44DC0F6C0883109F44CC0803209F49B
:101420005DC0EFC0803409F468C048F4803309F42B
:1014300055C0883309F0E5C080939D01D8C0803540
:1014400009F44FC0883509F45DC0883409F0D9C06B
:10145000D6C0883909F4C7C0A8F4883709F467C032
:1014600038F4883609F463C0803709F460C0C9C015
:10147000883809F4B8C0803909F45FC0803809F0B1
:10148000C0C05BC0803B09F486C038F4803A09F4E0
:1014900066C0883A09F47FC0B4C0803C09F4A7C094
:1014A000883C09F4A4C0883B09F48AC0AAC0809192
:1014B0007A0110C090919C0180919B01981770F562
:1014C000E0919C0181E08E0F80939C01F0E0E55853
:1014D000FE4F80818093BB0085EC86C080939D0188
:1014E0008EC0E0919C0181E08E0F80939C018091E1
:1014F000BB00F0E0E558FE4F808390919C01809105
:101500009B016EC0E0919C0181E08E0F80939C0155
:101510008091BB00F0E0E558FE4F808380919E01F2
:1015200081116DC081E08093790184EA61C083E01C
:1015300080939F011092B102CFCF8091B10280328F
:1015400008F051C0E091B10281E08E0F8093B102AA
:101550008091BB00F0E0EF56FD4F8083BDCF85EC5E
:101560008093BC0010929F018091B102803230F4D0
:10157000E091B102F0E0EF56FD4F10826091B102B0
:1015800070E0E0918F02F091900281E992E009957C
:101590001092B10236C084E080939F0110928E02B7
:1015A00010928D02E0918B02F0918C02099580914E
:1015B0008D02811105C081E080938D0210926B0233
:1015C000E0918E0281E08E0F80938E02F0E0E5596B
:1015D000FD4F80818093BB0090918E0280918D029F
:1015E000981708F479CF85E88093BC000AC085EC91
:1015F0008093BC0010929F0104C010929D010E9434
:10160000CB07FF91EF91BF91AF919F918F917F9108
:101610006F915F914F913F912F910F900FBE0F905F
:101620001F901895682F80E10E94F40560E08FE01C
:101630000E94F40561E08FE00C94F40561E080E124
:101640000E94240661E08FE00E94240661E085E0AC
:101650000E94240661E08DE00E94240660E08DE097
:101660000E94F4056AE070E080E090E00E948B0642
:1016700061E08DE00E94F4056AE070E080E090E0B7
:101680000E948B0660E08DE00E94240660E08DE001
:101690000C94F405CF92DF92EF92FF921F93CF93B9
:1016A000DF93CDB7DEB760970FB6F894DEBF0FBEFD
:1016B000CDBF80919F018111FCCF81E080939F017C
:1016C00080939E019FEF90939D0110929C018093C7
:1016D0009B0180937A0180917A01886480937A01DA
:1016E00080917901813061F41092790180917A01C1
:1016F0008093BB008091BC0083FDF8CF85EC01C0D6
:1017000085EE8093BC0080919F018130E1F3809150
:101710009C01823018F480919C0101C082E0ABE70B
:10172000B1E02BE432E0F9019E2F921B981718F4D8
:101730009D919193F9CF109278018093770110E0F9
:101740009091770180917801981729F18FE293E0C9
:101750000E940D08809548E0149FB001112420E0FC
:1017600030E090E0F901E60FF71F41E050E04C0F48
:101770005D1FE40FF51FAC01022E02C05595479581
:101780000A94E2F7417040832F5F3F4F28303105C4
:1017900049F71F5FD5CF8B818093C5018D818093E1
:1017A000C6018C818093C7018E818093C8018A8590
:1017B0008093C90189858093CA018C858093CB0170
:1017C0008B858093CC0188858093CD018F81809318
:1017D000CE018A818093CF0189818093D0018E854B
:1017E0008093D1018D858093D2018F858093D30121
:1017F00088898093D40180E090E0C12CD12C7601BF
:10180000C394FC01EB53FE4F2081222381F02091F1
:10181000C301B701A601082E04C0440F551F661F5F
:10182000771F0A94D2F7422B4093C30111C0309125
:10183000C301B701A601082E04C0440F551F661F3F
:10184000771F0A94D2F74095242F23232093C301B6
:10185000019688309105A9F680E090E0C12CD12C4A
:101860007601C394FC01E353FE4F3081332381F0B2
:101870003091C401B701A601082E04C0440F551FC2
:10188000661F771F0A94D2F7432B4093C40111C0FF
:101890003091C401B701A601082E04C0440F551FA2
:1018A000661F771F0A94D2F74095242F2323209395
:1018B000C401019688309105A9F68091C3019091E9
:1018C000D501892B8093D5018091C4019091D601D7
:1018D000892B8093D60160960FB6F894DEBF0FBEB9
:1018E000CDBFDF91CF911F91FF90EF90DF90CF9010
:1018F00008950F931F93CF93DF9300E011E0C0E0B2
:10190000D0E0CE010E94F515F80181938F01219658
:10191000C132D105B1F7DF91CF911F910F91089599
:101920000F931F93CF93DF9300E011E0C0E0D0E06E
:10193000F80161918F01CE010E94FD152196C132FF
:10194000D105B1F7DF91CF911F910F9108958823B1
:1019500029F081E08093030160E003C0109203014D
:1019600061E08BE00E9424060C94900C882341F0E7
:1019700081E08093020160E089E00E94240610C0AB
:101980001092020161E089E00E94240661E089E092
:101990000E94F40564EF71E080E090E00E948B0605
:1019A0000C94900C1F93CF93DF93909101018130A1
:1019B00051F49B3EB8F4913E10F4965F0EC08BEE4E
:1019C000809301010FC0823069F4992359F0292FC7
:1019D00030E02B30310524F09A509093010102C081
:1019E0001092010110910101C12FD0E061E08AE065
:1019F0000E942406209711F460E004C0CF3FD10577
:101A000029F461E08AE00E94F4057CC0EBEDF1E08E
:101A1000E4918E2F90E0FC013197EF30F10508F052
:101A20006CC0EB59FF4F0C946E1684B5806884BD72
:101A300017BD68C084B5806284BD18BD63C0809145
:101A40008000806880938000D0938900C0938800D4
:101A500059C080918000806280938000D0938B0079
:101A6000C0938A004FC0809180008860809380007E
:101A7000D0938D00C0938C0045C080919000806809
:101A800080939000D0939900C09398003BC08091C0
:101A90009000806280939000D0939B00C0939A0046
:101AA00031C080919000886080939000D0939D0019
:101AB000C0939C0027C08091C00080688093C000C4
:101AC0008091C0008F7B8093C0001093CF001AC01C
:101AD0008091C00080628093C0001093D00012C03B
:101AE0008091C20088608093C2008091C2008B7F89
:101AF0008093C2001093D20005C0C038D1050CF00D
:101B000080CF7ACFDF91CF911F910C94900CCF931F
:101B1000DF93E9EDF1E08491EAEBF1E0D491EBE9B8
:101B2000F1E0C491CC2391F081110E94B705EC2F14
:101B3000F0E0EE0FFF1FEB57FE4FA591B491EC9133
:101B4000ED2381E090E021F480E002C080E090E0AD
:101B5000DF91CF910895E0911E03F0911F03019052
:101B6000F081E02D4FE050E060E273E08EE193E021
:101B70000994BC01009791F0FC0101900020E9F765
:101B80003197AF01481B590BE091B502F091B602B5
:101B90000280F381E02D85EB92E0099480E090E0F3
:101BA0000895FC018091B402811103C08FEF9FEF73
:101BB00008959FB7F89482E08093E9002091F200A5
:101BC00030E01216130614F421E030E0211531053F
:101BD00059F0289884E68093B3028091F1008083C5
:101BE0008091F200882319F09FBFC90108958BE608
:101BF0008093E800F9CF8F929F92AF92BF920F939C
:101C00001F93CF93DF93CDB7DEB7A1970FB6F894AC
:101C1000DEBF0FBECDBF19A2423008F44AE08E01EC
:101C20000F5D1F4F842E912CA12CB12CA501940186
:101C30000E943D16E62FB901CA0101501109EA3090
:101C400014F4E05D01C0E95CD801EC93232B242B54
:101C5000252B61F7C8010E94B90DA1960FB6F89423
:101C6000DEBF0FBECDBFDF91CF911F910F91BF900F
:101C7000AF909F908F900895E091B502F091B602D9
:101C80000190F081E02D682F85EB92E00994789423
:101C900084B5826084BD84B5816084BD85B5826071
:101CA00085BD85B5816085BD80916E008160809322
:101CB0006E0010928100809181008260809381008B
:101CC000809181008160809381008091800081609B
:101CD0008093800080919100826080939100809138
:101CE0009100816080939100809190008160809349
:101CF00090008091C10084608093C1008091C100F8
:101D000082608093C1008091C10081608093C10096
:101D10008091C30081608093C3008091C000826085
:101D20008093C0008091C20081608093C200809146
:101D30007A00846080937A0080917A008260809338
:101D40007A0080917A00816080937A0080917A0095
:101D5000806880937A001092B402109276011092FB
:101D600075018091D70081608093D70080EA8093CD
:101D7000D80089B5806189BD89B5826089BD09B403
:101D800000FEFDCF61E070E080E090E00E948B06F5
:101D90008091D8008F7C80618093D8008091E00092
:101DA000807F8093E0008091E1008E7E8093E1004F
:101DB0008DE08093E200559A209AEEEFFFE785913F
:101DC00094918B3F9C4D19F481E08093740168EEEF
:101DD00073E080E090E00E948B068FEF9FEF90937E
:101DE000C2028093C10261E086E00E942406C4E042
:101DF00061E086E00E94F40562E370E080E090E03C
:101E00000E948B0660E086E00E94F40562E370E0C9
:101E100080E090E00E948B06C15051F761E08AE0BB
:101E20000E94240661E080E10E94240661E08FE0C8
:101E30000E94240661E085E00E94240661E08DE0B6
:101E40000E94240660E080E10E94F40560E08FE0DB
:101E50000E94F40560E085E00E94F40560E08DE0FA
:101E60000E94F40564E670E080E090E00E948B063A
:101E70000E941E0B60E087E10E94240660E088E17A
:101E80000E94240660E08DE10E94240660E085E166
:101E90000E94240660E084E10E9424061092020160
:101EA00080E090E00E94F515833611F00E94900CBE
:101EB0000E94790C809101010E94D20C81E09091E6
:101EC0000201911101C080E00E94B60C81E0909166
:101ED0000301911101C080E00E94A70C80910401D0
:101EE000882321F081E08093040102C01092040154
:101EF0000E94900C10927801109277011092A1012B
:101F00001092C20110929F01C1E0C0939E011092F5
:101F1000790161E082E00E94F40561E083E00E94C3
:101F2000F4058091B9008E7F8093B9008091B9004B
:101F30008D7F8093B90088E48093B80085E4809316
:101F4000BC00C093A00184E28093D7011092A1014C
:101F50001092C20160E08FE293E00E9459088091E4
:101F6000C201813208F045C090919F019111FCCFD0
:101F700092E090939F0191E090939E019FEF909348
:101F80009D0110929C0180939B01A2EAB1E02BE796
:101F900031E0F9019E2F921B981718F49D919193AF
:101FA000F9CF10927A0180917A01886480937A0146
:101FB00080917901813061F41092790180917A01E8
:101FC0008093BB008091BC0083FDF8CF85EC01C0FD
:101FD00085EE8093BC0080919F018230E1F3809177
:101FE0009D018F3F31F080919D01803211F08091F1
:101FF0009D011092A1011092C2011092A0010E94B5
:102000004A0B8091CD01882309F48FC088E10E949A
:1020100060068C014C018DE10E946006EC011C0100
:102020000E9475072B013C017E0168010E94750723
:10203000DC01CB0184199509A609B70980319742C3
:10204000A105B10508F046C061E086E00E94F405F4
:1020500088E10E9460065C0161E070E080E090E051
:102060000E948B068DE10E94600648018C0C9D1C2D
:1020700097FE03C04FEF841A940A959487949E01AB
:102080002E0D3F1D37FF02C02F5F3F4F19013594C2
:102090002794A016B10608F485018C179D0708F453
:1020A000EC01CA14DB0408F46501E816F90608F42B
:1020B0007C0164E670E080E090E00E948B0660E0C6
:1020C00086E00E94F40564E670E080E090E00E9403
:1020D0008B06ACCFC818D908E218F30808191909FB
:1020E00010930A0100930901C219D309D0930C017E
:1020F000C0930B01D0920E01C0920D01F09210011D
:10210000E0920F0190920601809205013092080141
:102110002092070181E080931F0182E390E0909379
:102120001E0180931D010E94900C8FE0E0E2F3E01D
:10213000DF011D928A95E9F7E0911E03F0911F03DC
:102140000190F081E02D4FE050E060E273E08EE11D
:1021500093E00995C0E0D0E0FF24F39485EB92E092
:102160000E942502181619060CF001C185EB92E0B9
:102170000E948A02813609F47BC004F5893409F48F
:102180004CC04CF4823409F48FC08334F1F18134B3
:1021900009F0EAC076C0863599F1873509F455C053
:1021A0008C3409F0E1C064E170E080E090E00E94CE
:1021B0008B061092190210921802B1C08D3609F4E4
:1021C000A0C08CF4893631F18C3609F4C9C082364E
:1021D00009F0CAC06091C30185EB92E00E94FF0143
:1021E0006091C4018FC0833709F47BC0873751F1F8
:1021F000823709F0B9C01092D5011092D601B2C051
:1022000060911C0270911D0236C060911A0270919B
:102210001B0231C0609104012DC085EB92E00E9449
:102220002502019709F0A0C085EB92E00E948A0286
:10223000813319F4F092040102C0109204010E944B
:10224000900C90C06091020115C085EB92E00E9455
:102250002502019709F088C085EB92E00E948A026E
:10226000813311F481E001C080E00E94B60C7AC095
:102270006091030170E080E090E04AE00E94FB0D75
:1022800076C085EB92E00E942502019709F06CC0B0
:1022900085EB92E00E948A02813311F481E001C053
:1022A00080E00E94A70C5EC06091D50185EB92E0B2
:1022B0000E94FF016091D60185EB92E00E94FF0130
:1022C0001092D5011092D6010E94750760932802E2
:1022D0007093290280932A0290932B02F0922C0291
:1022E00046C0609123028091020181116260809159
:1022F00003018111646080910401882319F06860F2
:1023000001C061E285EB92E00E94FF0130C085EBE5
:1023100092E00E948A02813251F4F092180285EB19
:1023200092E00E942502181619068CF30BC09091BA
:102330001902E92FF0E0E852FE4F80839F5F9093EF
:102340001902EDCF80911802882339F0A09019026C
:10235000A0FE81C380E791E07BC38DE691E078C366
:102360000E941E0B81E301C08FE30E943C0E0E947D
:10237000750700912D0210912E0220912F023091AD
:102380003002DC01CB01801B910BA20BB30B4197F8
:10239000A105B10508F4B4C261E086E00E94F4052D
:1023A0000E944A0B80912C02811140C280912E0321
:1023B000807F80932E039091C6019923A1F08560C0
:1023C00080932E039091C701992321F0807F86602E
:1023D00080932E038091C801882351F180912E03B0
:1023E000807F846023C09091C5019923A1F0816012
:1023F00080932E039091C701992321F0807F8860FC
:1024000080932E038091C801882391F080912E0340
:10241000807F82600BC09091C701992311F0876083
:1024200005C09091C801992319F0836080932E0311
:102430002091C9018091200390912103A091220352
:10244000B0912303222311F0816001C08E7F80931D
:10245000200390932103A0932203B09323032091A0
:10246000CA018091200390912103A0912203B09191
:102470002303222311F0826001C08D7F809320030B
:1024800090932103A0932203B09323032091CB01C7
:102490008091200390912103A0912203B091230306
:1024A000222311F0846001C08B7F809320039093DE
:1024B0002103A0932203B09323032091CC018091A8
:1024C000200390912103A0912203B09123032223A2
:1024D00011F0886001C0877F8093200390932103CF
:1024E000A0932203B09323032091CD018091200378
:1024F00090912103A0912203B0912303222311F094
:10250000806101C08F7E8093200390932103A0936C
:102510002203B09323032091CE0180912003909158
:102520002103A0912203B0912303222311F08062A2
:1025300001C08F7D8093200390932103A0932203F9
:10254000B09323032091CF01809120039091210328
:10255000A0912203B0912303222311F0806401C0D3
:102560008F7B8093200390932103A0932203B09349
:1025700023032091D0018091200390912103A09109
:102580002203B0912303222311F0806801C08F77CA
:102590008093200390932103A0932203B0932303FD
:1025A0002091D1018091200390912103A0912203D9
:1025B000B0912303222311F0916001C09E7F80938C
:1025C000200390932103A0932203B093230320912F
:1025D000D2018091200390912103A0912203B09118
:1025E0002303222311F0926001C09D7F809320037A
:1025F00090932103A0932203B09323032091D3014E
:102600008091200390912103A0912203B091230394
:10261000222311F0946001C09B7F8093200390934C
:102620002103A0932203B09323032091D40180912E
:10263000200390912103A0912203B0912303222330
:1026400011F0986001C0977F80932003909321033D
:10265000A0932203B093230380912302811102C02F
:102660000E94AB0D80911F01882309F4D0C088E13E
:102670000E9460068C018DE10E9460062091050198
:1026800030910601A801421B530B9A0140910701AA
:10269000509108018C01041B150BC0901D01D090B6
:1026A0001E01C216D3061CF42C193D090CC0882744
:1026B00099278C199D09281739071CF42C0D3D1DED
:1026C00002C020E030E08090090190900A0152E3BE
:1026D000850E911C092C000CAA08BB08C901330FF8
:1026E000AA0BBB0B9C01AD01281939094A095B09EA
:1026F000ACE4BFEF0E942A1620910D0130910E012B
:10270000225331092901330F66087708A30192018A
:10271000281939094A095B090E940B1657FD0EC09A
:102720002D348FEF3807410551056CF4DA01C901EA
:10273000865A9F47A109B1095C0109C02AE5A22E6A
:1027400020E8B22E04C096EAA92E9FE7B92EC01643
:10275000D10624F498012C193D090DC0882799272A
:102760008C199D090817190724F498012C0D3D1D9B
:1027700002C020E030E040900B0150900C01A2E339
:102780004A0E511C052C000C66087708C901330F4E
:10279000AA0BBB0B9C01AD01241935094609570949
:1027A000A4EBB0E00E94381620910F013091100187
:1027B000225331098901330F220B330BA9019801F0
:1027C00024193509460957090E940B16243B310587
:1027D000BFEF4B075B076CF01216130614061506C5
:1027E0005CF0DA01C9018A559048AF4FBF4F9C0198
:1027F00005C02AE530E802C026EA3FE7B09225038B
:10280000A0922403309327032093260308C010923C
:10281000250310922403109227031092260380911F
:10282000230281111AC00E94AB0D17C00E947507C8
:10283000009128021091290220912A0230912B0246
:10284000DC01CB01801B910BA20BB30B893E9340A3
:10285000A105B10510F010922C028091230288236B
:1028600009F440C08091C501882319F082E00E94DC
:10287000D20C8091C601882319F081E00E94D20C0D
:102880008091C901882319F081E00E94B60C8091E3
:10289000CA01882319F080E00E94B60C8091CC0117
:1028A000882319F081E00E94A70C8091CB01882336
:1028B00019F080E00E94A70C8091CD01882321F0BF
:1028C000F09204010E94900C8091CE01882321F0A7
:1028D000109204010E94900C68EC70E080E090E09F
:1028E0000E948B0660E086E00E94F4050E94750756
:1028F00060932D0270932E0280932F0290933002EA
:102900000E94750700912402109125022091260251
:1029100030912702DC01CB01801B910BA20BB30B82
:10292000893C9105A105B10500F187E10E9460068F
:10293000059738F40E94870D892B19F0F092230235
:1029400002C01092230280912302882321F010926A
:10295000D5011092D6010E947507609324027093EE
:10296000250280932602909327020E94750700910A
:102970001F02109120022091210230912202DC01DD
:10298000CB01801B910BA20BB30B893E9340A10599
:10299000B105D0F161E070E080E090E00E948B062C
:1029A00084E10E94600690931D0280931C0261E006
:1029B00070E080E090E00E948B0685E10E94600656
:1029C00090931B0280931A0261E070E080E090E037
:1029D0000E948B060E94870D20911E02892B39F0E0
:1029E000211108C0F0921E020E941E0B03C021118B
:1029F00010921E020E94750760931F0270932002BE
:102A00008093210290932202209709F4A7CB0E9481
:102A10000000A4CBE0FC2DC0E394EFEFCE1ADE0A59
:102A2000EA10F8CF61E085E00E94F40560E085E0FF
:102A30000E94240660E085E00E94F40560E08FE0DB
:102A40000E94F40560E080E10E94F4058AE691E0CE
:102A50000E94B90D8CCC61E085E00E94240660E004
:102A600085E00E94F40588EDC82E81E0D82EE12C87
:102A7000D7CFD6010C91F601319780818A3314F4B7
:102A8000805301C087538295807F0A3314F400532A
:102A900001C00753080F10E0B1E0EB1213C080E053
:102AA0000E94120B48E0B42EBA94C8010B2C02C04D
:102AB000959587950A94E2F781700E94120BB110E8
:102AC000F3CFAACF81E00E94120B38E0B32EBA9464
:102AD000C8010B2C02C0959587950A94E2F7817086
:102AE0000E94120BB110F3CF97CF1092B802109240
:102AF000B70288EE93E0A0E0B0E08093B902909333
:102B0000BA02A093BB02B093BC0284E491E090931C
:102B1000B6028093B5028FEF9FEF9093C20280932D
:102B2000C10286E591E090931F0380931E0380917C
:102B30004103811113C010923C0310923B0380EFBC
:102B400091E090933E0380933D0380E590E0909365
:102B5000400380933F0381E08093410380911603FB
:102B6000811107C085E093E00E945E0981E08093B7
:102B70001603E0911003F0911103309739F48BE3C1
:102B800093E090931103809310030AC08081918198
:102B9000009711F0FC01FACF8BE393E091838083DF
:102BA00020913F03309140038091120390911303D1
:102BB000820F931F9093130380931203109232039A
:102BC0001092310388EE93E0A0E0B0E080933303ED
:102BD00090933403A0933503B09336038CE591E0D2
:102BE0009093300380932F030895F999FECF92BDFF
:102BF00081BDF89A992780B50895262FF999FECFBF
:102C00001FBA92BD81BD20BD0FB6F894FA9AF99A09
:102C10000FBE01960895052E97FB1EF400940E94A6
:102C2000221657FD07D00E943D1607FC03D04EF434
:102C30000C94221650954095309521953F4F4F4F5B
:102C40005F4F089590958095709561957F4F8F4F58
:102C50009F4F08950E945F16A59F900DB49F900D01
:102C6000A49F800D911D11240895B7FF0C942A167E
:102C70000E942A16821B930B0895A1E21A2EAA1B0A
:102C8000BB1BFD010DC0AA1FBB1FEE1FFF1FA2171C
:102C9000B307E407F50720F0A21BB30BE40BF50B19
:102CA000661F771F881F991F1A9469F760957095A2
:102CB000809590959B01AC01BD01CF010895A29F25
:102CC000B001B39FC001A39F700D811D1124911D00
:102CD000B29F700D811D1124911D0895EE0FFF1FED
:102CE0000590F491E02D099481E090E0F8940C9423
:062CF0007916F894FFCFF5
:102CF6006300010100000000000000000000000069
:102D0600000000000000000000000000003200008B
:102D16000000C18081000000FFFFFFFF00E100000E
:102D260000000000000000008107CC088C08A807FE
:102D360000000000FF015F072002150225028A023B
:102D4600660200000000B2090000000059082908C8
:102D56008908FD0721080D08FE074C53004631007F
:042D660046320000F1
:00000001FF
