:100000000C9494010C94BC010C94BC010C94BC01A4
:100010000C94BC010C94BC010C94BC010C94BC016C
:100020000C94BC010C94BC010C942C0A0C940B0B8A
:100030000C94BC010C94BC010C94BC010C94BC014C
:100040000C94BC010C94BC010C94BC010C94BC013C
:100050000C94BC010C94BC010C94BC010C943604AF
:100060000C94BC010C94BC010C94BC010C94BC011C
:100070000C94BC010C94BC010C94BC010C94BC010C
:100080000C94BC010C94BC010C94BC010C94BC01FC
:100090000C9440050C94BC010C94BC010C94BC0164
:1000A0000C94BC010C94BC010C94BC01530D560D76
:1000B000450D490D4F0D770D770D770D5A0D5E0DDE
:1000C000620D680D6C0D770D720D8A0F8F0F940FF6
:1000D0009E0FA80FF20FF20FF20FB20FBC0FC60F58
:1000E000D00FDD0FF20FE50F000000000000000050
:1000F0002A2B280000000000000000000000000083
:1001000000000000000000002C9EB4A0A1A2A434B6
:10011000A6A7A5AE362D3738271E1F20212223245F
:100120002526B333B62EB7B89F8485868788898AFB
:100130008B8C8D8E8F909192939495969798999A97
:100140009B9C9D2F3130A3AD350405060708090A95
:100150000B0C0D0E0F101112131415161718191A77
:100160001B1C1DAFB1B0B500070605040100080A4D
:100170000B0C0D0900000000240027002A002D00B0
:10018000300000000000250028002B002E00310068
:10019000080B000202020100090400000102020033
:1001A00000052400100105240101010424020605B4
:1001B0002406000107058103100040090401000224
:1001C0000A00000007050202400000070583024004
:1001D00000000403090412010002EF020140412360
:1001E000368000010102030141726475696E6F205F
:1001F0004C4C430041726475696E6F204C656F6EA4
:100200006172646F00000000002300260029002CAA
:10021000002F000404040404030405020202020483
:100220000302020202060606060606040402020291
:1002300004040408020110408040102040804080E7
:10024000080204018040201002011080102040406C
:10025000200000000200090F0000030401000C0050
:10026000000000000000000000000000000000008E
:1002700005010902A10185010509190129081500D7
:1002800025019508750181020501093009310938F8
:100290001581257F750895038106C005010906A112
:1002A000018502050719E029E7150025017501956B
:1002B000088102050C95017508150026FF0019003C
:1002C00029FF8100050795067508150026E7001926
:1002D0000029E78100C005010904A101850605097F
:1002E00019012920150025017501952081020501BC
:1002F000A100093009310933093416008026FF7F37
:10030000751095048102093209351580257F75081D
:1003100095028102C00501093909391501250895A1
:100320000275048102C0CA1911241FBECFEFDAE0A2
:10033000DEBFCDBF11E0A0E0B1E0E4EFF5E302C025
:1003400005900D92A23CB107D9F723E0A2ECB1E0F1
:1003500001C01D92A43DB207E1F711E0C4E9D1E06C
:1003600004C02197FE010E94ED1AC339D107C9F7D5
:100370000E94B5100C94F81A0C940000DC01FB01EB
:1003800012968C91129790E0248135818217930701
:10039000D1F491818081813A31F481E0913091F002
:1003A000933089F411C0813271F49B3021F4828141
:1003B0001F968C9305C09A3031F4828150968C93AD
:1003C00081E00895089580E00895DC01FB0188E450
:1003D000808389E4818384E482831D969C911D97A8
:1003E0009F709F5B93831D968D919C911E9724E037
:1003F000969587952A95E1F78F708F5B848385E0CA
:100400000895FC0182818F5BFB01808381E0089568
:10041000FC0134969C01245F3F4F80E090E04081D6
:10042000411101961192E217F307C9F70895FC01F3
:1004300020E2260F2830F0F0DC01169620E030E0B4
:100440008D91442349F0861304C0E20FF31F6683A5
:1004500026C0811107C0F9CF861304C0E20FF31F35
:1004600016821DC02F5F3F4F2630310549F780E0CF
:1004700090E008953481442349F081E090E001C088
:10048000880F2A95EAF7832B848309C041E050E066
:1004900001C0440F2A95EAF740954323448381E045
:1004A00090E00895EF92FF920F931F93CF93DF9305
:1004B000E62FF0E0E038F10540F021E030E0DC012B
:1004C00013963C932E93129722C0D42F7C01E851AF
:1004D000FF4FC491DC01ED91FC916C2F6F77048488
:1004E000F585E02D09958C01C7FF13C0892B11F408
:1004F000D1110DC0D701ED91FC910484F585E02D5B
:100500004D2F61EEC7010995802B912B02C080E031
:1005100090E0DF91CF911F910F91FF90EF900895A0
:10052000FF920F931F93CF93DF93EC01F62E41E0E0
:100530000E9452028C01892BA9F0E881F981028482
:10054000F385E02DCE01099540E06F2DCE010E948C
:100550005202892B39F0E881F9810284F385E02D7C
:10056000CE010995C801DF91CF911F910F91FF90A6
:10057000089585ED8093BC008091BC0084FDFCCF84
:100580001092ED0108954091D402262F30E0240FFF
:10059000311D21323105DCF42091ED012430C9F404
:1005A000FC0180E090E0861758F43091D40221914C
:1005B000DC01AE54BD4FA30FB11D2C930196F3CFB8
:1005C0008091D402680F6093D40280E0089581E0A6
:1005D000089582E008950895E091C6018091C501D3
:1005E000E81730F4F0E0EE56FD4F808190E008957A
:1005F0008FEF9FEF08959091C6018091C5019817E4
:1006000050F4E92FF0E0EE56FD4F208130E09F5F7F
:100610009093C60102C02FEF3FEFC901089580916A
:10062000C50190E02091C601821B91090895CF92E7
:10063000DF92EF92FF920F931F93CF93DF937C0192
:10064000262F972F8A018091EE01882391F0C62FE3
:10065000D72F6E01C40ED51ECC15DD0571F0699142
:10066000D701ED91FC910190F081E02DC701099532
:10067000F3CF642F822F0E94C302C801DF91CF9174
:100680001F910F91FF90EF90DF90CF900895CF933F
:10069000DF931F92CDB7DEB769832091EE0122234D
:1006A000D1F020911002203240F021E030E0FC0136
:1006B0003383228380E090E015C08091EF01E82F22
:1006C000F0E0E051FE4F998190838F5F8093EF01BE
:1006D0008093100205C061E0CE0101960E94C30222
:1006E00081E090E00F90DF91CF910895089580E030
:1006F00090E00895AF92BF92CF92DF92EF92FF9277
:100700000F931F93CF93DF931F92CDB7DEB77C017A
:1007100069836A01590141E050E0BE016F5F7F4F7C
:10072000FC0183810E94490E8C0197FD0BC0F701EB
:100730008381A501B60180640E94490E97FD02C025
:10074000800F911F0F90DF91CF911F910F91FF901C
:10075000EF90DF90CF90BF90AF900895EF92FF920F
:100760000F931F93CF93DF93FB012081213851F525
:100770002381223239F5DC0112962C9130E044813C
:10078000558142175307F1F4EC010B851C85E12CD0
:10079000F12C0115110591F0F80144815581628118
:1007A000738180E80E949E0A8F3FFFEF9F0769F0E8
:1007B000E80EF91ED8010D911C91EBCF81E08F87D7
:1007C000C70105C080E090E002C08FEF9FEFDF918E
:1007D000CF911F910F91FF90EF900895CF93DF93EA
:1007E000CDB7DEB769970FB6F894DEBF0FBECDBFA9
:1007F000FC01DB018C918F5F8C93BE016F5F7F4F9B
:1008000089E1DB011D928A95E9F729E0298384E0DB
:100810008A8391E09D8383E08E832A8721E22B8760
:100820009C879D879F8722E2288B27E02B8B25E0E2
:100830002C8B8E8B20E430E0388F2F8B998F828128
:100840008B8395858685998B8A8B838180688D8B38
:1008500049E150E080E00E949E0A69960FB6F89444
:10086000DEBF0FBECDBFDF91CF9108951F920F92D3
:100870000FB60F9211242F933F938F939F93AF93B3
:10088000BF938091130390911403A0911503B0912D
:1008900016033091120323E0230F2D3720F4019625
:1008A000A11DB11D05C026E8230F0296A11DB11D93
:1008B000209312038093130390931403A0931503C2
:1008C000B09316038091170390911803A091190318
:1008D000B0911A030196A11DB11D80931703909347
:1008E0001803A0931903B0931A03BF91AF919F917E
:1008F0008F913F912F910F900FBE0F901F901895E1
:10090000FC01A385B485109719F47487638709C027
:100910008D919C911197009711F0DC01F9CF6D93A7
:100920007C9325853685DB0114968D919C911597D6
:10093000820F931F96878587089580910A038111FE
:100940006BC081E08093FD028093FE0223E033E0E0
:10095000309300032093FF021092020310920103D0
:100960002EE631E03093FA022093F902109205034B
:100970001092040310920703109206038093080359
:100980008093090381EC809303030E94C50AFC0154
:1009900021818091FD0290E0820F911D089724F043
:1009A00081E080930A0338C0A281B381109729F4B3
:1009B00089EF92E0938382830EC018968D919C916B
:1009C0001997009711F0DC01F8CF89EF92E01996A2
:1009D0009C938E93189780818093FB0281818093F2
:1009E000FC0290818091FE02890F808380E09091CB
:1009F000FD028917A8F6A091FF02B0910003A80F8D
:100A0000B11D9C91A181B0E0A95ABE4F9C939181E8
:100A10009F5F91838F5FEBCF89EF92E008950F93F3
:100A20001F93CF93DF93EB018A010E949D049801ED
:100A3000AE0161E0DF91CF911F910F910C947A0389
:100A4000CF93DF93EC010E949D04AE014C5F5F4F9A
:100A500028E030E062E0DF91CF910C947A030F93AD
:100A60001F93CF93DF93EB018A010E949D049801AD
:100A7000AE0166E0DF91CF911F910F910C947A0344
:100A80001F920F920FB60F9211242F933F934F9303
:100A90005F936F937F938F939F93AF93BF93EF93E6
:100AA000FF938091B900887F803609F49CC068F577
:100AB000883209F45BC090F4803109F454C038F4F2
:100AC000882309F4F6C0883009F44DC0F6C0883197
:100AD00009F44CC0803209F45DC0EFC0803409F4E1
:100AE00068C048F4803309F455C0883309F0E5C084
:100AF0008093EB01D8C0803509F44FC0883509F4E4
:100B00005DC0883409F0D9C0D6C0883909F4C7C09F
:100B1000A8F4883709F467C038F4883609F463C04C
:100B2000803709F460C0C9C0883809F4B8C080397A
:100B300009F45FC0803809F0C0C05BC0803B09F495
:100B400086C038F4803A09F466C0883A09F47FC058
:100B5000B4C0803C09F4A7C0883C09F4A4C0883B19
:100B600009F48AC0AAC08091C80110C09091EA011E
:100B70008091E901981770F5E091EA0181E08E0F0C
:100B80008093EA01F0E0E753FE4F80818093BB0041
:100B900085EC86C08093EB018EC0E091EA0181E094
:100BA0008E0F8093EA018091BB00F0E0E753FE4F87
:100BB00080839091EA018091E9016EC0E091EA01A1
:100BC00081E08E0F8093EA018091BB00F0E0E75353
:100BD000FE4F80838091EC0181116DC081E0809394
:100BE000C70184EA61C083E08093ED011092F802AE
:100BF000CFCF8091F802803208F051C0E091F80226
:100C000081E08E0F8093F8028091BB00F0E0E85203
:100C1000FD4F8083BDCF85EC8093BC001092ED0129
:100C20008091F802803230F4E091F802F0E0E8526E
:100C3000FD4F10826091F80270E0E091D602F091D1
:100C4000D70288ED92E009951092F80236C084E050
:100C50008093ED011092D5021092D402E091D2025D
:100C6000F091D30209958091D402811105C081E0F1
:100C70008093D4021092B202E091D50281E08E0FEF
:100C80008093D502F0E0EE54FD4F80818093BB004D
:100C90009091D5028091D402981708F479CF85E815
:100CA0008093BC000AC085EC8093BC001092ED01DB
:100CB00004C01092EB010E94B902FF91EF91BF9125
:100CC000AF919F918F917F916F915F914F913F91E4
:100CD0002F910F900FBE0F901F90189580911702C3
:100CE000882321F082E50E94050F03C082E50E945F
:100CF000240F80911802882321F081E50E94050FBE
:100D000003C081E50E94240F80911902882321F0FD
:100D100080E50E94050F03C080E50E94240F8091AA
:100D20001A02882319F08FE40C94050F8FE40C94B9
:100D3000240F8F929F92AF92BF92CF92DF92EF9249
:100D4000FF920F931F93CF93DF93082F10E09CE047
:100D5000899FE0011124C050DF4FC880D980EA800C
:100D6000FB808C809D80AE80BF800E94F90EC80CF5
:100D7000D91CEA1CFB1C6C157D058E059F0560F0D7
:100D80000E94F90E688379838A839B83F801ED5E64
:100D9000FD4F80818F5F8083DF91CF911F910F91F5
:100DA000FF90EF90DF90CF90BF90AF909F908F908B
:100DB0000895682F80E10E94780D60E08FE00E9426
:100DC000780D61E08FE00C94780D61E080E10E9485
:100DD000A80D61E08FE00E94A80D61E085E00E940F
:100DE000A80D61E08DE00E94A80D60E08DE00E94FA
:100DF000780D6AE070E080E090E00E940F0E61E004
:100E00008DE00E94780D6AE070E080E090E00E9442
:100E10000F0E60E08DE00E94A80D60E08DE00C9464
:100E2000780DCF92DF92EF92FF921F93CF93DF93D3
:100E3000CDB7DEB760970FB6F894DEBF0FBECDBF5B
:100E40008091ED018111FCCF81E08093ED018093D1
:100E5000EC019FEF9093EB011092EA018093E9017E
:100E60008093C8018091C80188648093C8018091F3
:100E7000C701813061F41092C7018091C80180934D
:100E8000BB008091BC0083FDF8CF85EC01C085EEEE
:100E90008093BC008091ED018130E1F38091EA0103
:100EA000823018F48091EA0101C082E0A9ECB1E03F
:100EB00022E932E0F9019E2F921B981718F49D91B8
:100EC0009193F9CF1092C6018093C50110E09091E3
:100ED000C5018091C601981729F18DE893E00E9421
:100EE000FB02809548E0149FB001112420E030E01F
:100EF00090E0F901E60FF71F41E050E04C0F5D1F55
:100F0000E40FF51FAC01022E02C0559547950A94D7
:100F1000E2F7417040832F5F3F4F2830310549F79A
:100F20001F5FD5CF8B81809317028D81809318022C
:100F30008C81809319028E8180931A028A85809316
:100F40001B02898580931C028C8580931D028B85F2
:100F500080931E02888580931F028F8180932002D8
:100F60008A81809321028981809322028E858093D9
:100F700023028D85809324028F85809325028889A2
:100F80008093260280E090E0C12CD12C7601C3949E
:100F9000FC01E95EFD4F2081222381F020911102A6
:100FA000B701A601082E04C0440F551F661F771F06
:100FB0000A94D2F7422B4093110211C030911102D2
:100FC000B701A601082E04C0440F551F661F771FE6
:100FD0000A94D2F74095242F2323209311020196DF
:100FE00088309105A9F680E090E0C12CD12C7601E3
:100FF000C394FC01E15EFD4F3081332381F03091D9
:101000001202B701A601082E04C0440F551F661F27
:10101000771F0A94D2F7432B4093120211C03091EC
:101020001202B701A601082E04C0440F551F661F07
:10103000771F0A94D2F74095242F2323209312027E
:10104000019688309105A9F68091110290912702AE
:10105000892B809327028091120290912802892B7C
:101060008093280260960FB6F894DEBF0FBECDBF06
:10107000DF91CF911F91FF90EF90DF90CF90089577
:101080000F931F93CF93DF9300E311E0C0E0D0E014
:10109000CE010E946C1AF80181938F012196C7320C
:1010A000D105B1F7DF91CF911F910F910895EF9284
:1010B000FF920F931F93CF93DF931F92CDB7DEB7AD
:1010C00000E311E0E12CF12CF80161918F01C701DF
:1010D00069830E946C1A6981681719F0C7010E9420
:1010E000741AFFEFEF1AFF0A87E2E816F10461F7BE
:1010F0000F90DF91CF911F910F91FF90EF90089586
:10110000882329F081E08093330160E003C01092CE
:10111000330161E08BE00E94A80D0C9457088823EE
:1011200041F081E08093320160E089E00E94A80DE7
:1011300010C01092320161E089E00E94A80D61E0C8
:1011400089E00E94780D64EF71E080E090E00E94F9
:101150000F0E0C94570890913101813051F49B3E51
:10116000B8F4913E10F4965F0EC08BEE809331017F
:101170000FC0823069F4992359F0292F30E02B30C9
:10118000310524F09A509093310102C01092310140
:101190008091310190E00E94670F0C9457084091B4
:1011A000290350912A0320912703309128034217E5
:1011B0005307B4F49091E8009570E1F39091E80042
:1011C00092FD19C08093F1008091290390912A0328
:1011D00001968F739927892B19F48EEF8093E8007D
:1011E0008091290390912A03019690932A0380937A
:1011F000290381E0089580E00895CF92DF92EF9275
:10120000FF920F931F93CF93DF931F92CDB7DEB75B
:10121000182F062FE42E862F880F8E5F99830E9449
:10122000CF0883E00E94CF08F12EC12E9981D92EDC
:101230008C2D8F19801798F4F601E7FE02C0849177
:1012400001C080810E94CF08182F80E00E94CF0843
:101250008123FFEFCF1ADF0A8111EACF01C081E0BD
:101260000F90DF91CF911F910F91FF90EF90DF9042
:10127000CF9008952FB7F89487708093E9009091EC
:10128000E800892F807295FF04C09091F20080E4FD
:10129000891B2FBF0895615030F02091F100FC01AF
:1012A00020830196F8CF289884E680932C03089534
:1012B000CF92DF92EF92FF920F931F93CF93DF9322
:1012C0006C017A018B01C0E0D0E0CE15DF0589F01A
:1012D000D8016D918D01D601ED91FC910190F081C5
:1012E000E02DC6010995892B11F47E0102C02196DB
:1012F000ECCFC701DF91CF911F910F91FF90EF903D
:10130000DF90CF900895CF93DF931F92CDB7DEB7D4
:101310006983DC01ED91FC910280F381E02D41E0D5
:1013200050E0BE016F5F7F4F09950F90DF91CF9125
:10133000089583E08093E9008091F200882319F0FA
:101340008AE38093E800089583E00E943A0990E0E0
:101350000895FC018485958597FD0BC09FB7F8948F
:1013600082E08093E9008091F2009FBF90E00196B7
:1013700008959FB7F89482E08093E9008091F2008D
:101380009FBF90E008953FB7F89480911703909124
:101390001803A0911903B0911A0326B5A89B05C0A4
:1013A0002F3F19F00196A11DB11D3FBFBA2FA92FE4
:1013B000982F8827820F911DA11DB11DBC01CD0161
:1013C00042E0660F771F881F991F4A95D1F708954D
:1013D0000E94F31ACF93DF931F92CDB7DEB7FC01C3
:1013E0008485958597FD05C02FEF3FEF35872487CE
:1013F0000BC0CE0101960E943F10019719F489811C
:1014000090E002C08FEF9FEF0F90DF91CF91089592
:101410000F931F93CF93DF931F92CDB7DEB78C014D
:10142000FC018485958597FF0EC0CE0101960E9430
:101430003F10019719F4298130E002C02FEF3FEFF0
:10144000F80135872487F801848595850F90DF9111
:10145000CF911F910F9108951F920F920FB60F9287
:1014600011248F939F938091E1009091E100937FED
:101470009093E10083FF0FC01092E90091E09093F8
:10148000EB001092EC0092E39093ED0010922D038C
:1014900098E09093F00082FF20C093E09093E900E1
:1014A0009091F200992319F09AE39093E8009091BB
:1014B0002B03992339F090912B03915090932B0398
:1014C000992389F190912C03992339F090912C0361
:1014D000915090932C03992341F184FF10C0809187
:1014E000E2008E7E81608093E2008091E1008F7E39
:1014F0008093E1008091C3018E7E806111C080FFE6
:1015000016C08091E2008E7E80618093E20080911F
:10151000E1008E7E8093E1008091C3018E7E816028
:101520008093C30104C05D9ACDCF289AD6CF9F91F6
:101530008F910F900FBE0F901F901895DF92EF9232
:10154000FF920F931F93CF93DF93D82E8A017B01D5
:10155000E40EF51EEB01CE15DF0571F0D7FE03C0DA
:10156000FE01849101C088810E94CF0821968111DB
:10157000F2CF8FEF9FEF01C0C801DF91CF911F9194
:101580000F91FF90EF90DF90089580911F038111DC
:101590000DC082E080931B0384E080931C031092B3
:1015A0001E0310921D0381E080931F038BE193E0E3
:1015B00008950F931F93CF93DF931F92CDB7DEB79C
:1015C00082E0898342E450E060E971E080E80E94B3
:1015D0009E0A0E94C50ADC0112960D911C91139778
:1015E0000115110569F0D801ED91FC910280F3819C
:1015F000E02DBE016F5F7F4FC801099597FF07C0BF
:1016000089810F90DF91CF911F910F910895F8017B
:1016100000851185E5CF1F920F920FB60F9211240E
:10162000CF92DF92EF92FF920F931F932F933F93EE
:101630004F935F936F937F938F939F93AF93BF93DA
:10164000EF93FF93CF93DF93CDB7DEB76C97DEBFF9
:10165000CDBF1092E9008091E80083FFEDC168E002
:10166000CE0145960E944B0982EF8093E8008D8958
:1016700087FF05C09091E80090FFFCCF03C09EEF6C
:101680009093E800982F907609F0C6C09E892F8924
:10169000188D91110CC0803829F48091C401809379
:1016A000F10002C01092F1001092F10048C1422FE7
:1016B00050E0512B913051F4811141C1413051051D
:1016C00009F03DC18091C4018D7F0BC0933061F45E
:1016D000811135C14130510509F031C18091C401FA
:1016E00082608093C4012BC1953041F48091E80061
:1016F00080FFFCCF20682093E30021C1963009F0E1
:101700005FC0EB8CFC8C1092E90010922A031092BF
:101710002903123091F510922803109227030E949A
:10172000D90A99E0BE016F5F7F4FDB01E92F1D925F
:10173000EA95E9F799831A8391E09E8390EA988766
:101740009AEF99872091290330912A03275F3F4F11
:101750003C832B838D831092E90010922A03109210
:101760002903F0922803E092270349E050E080E04B
:101770000E949E0A0E94D90AE2C0F0922803E092D9
:1017800027030E94C50ADC011296ED90FC90139786
:10179000E114F10409F4C0C0D701ED91FC9104807B
:1017A000F581E02DBE016B5E7F4FC7010995009763
:1017B00019F00CF0C4C0C7C0F701E084F184E8CF91
:1017C000973009F4C0C0983021F481E08093F10093
:1017D000B6C0993009F0B3C0837009F0B4C0E8E531
:1017E000F1E081E021E036E39081992361F080937C
:1017F000E9002093EB0091919093EC003093ED0081
:101800008F5F873089F78EE78093EA001092EA00B5
:101810008F8980932D0393C08B8D9C8D1092E9004E
:1018200010922A0310922903909328038093270390
:10183000898D811156C08E899D89913A59F48132E2
:1018400009F081C047E050E062E671E080E00E946C
:101850009E0A75C0913209F076C0833289F4888D72
:1018600090E0982F88272F89822BA0E0B0E080930A
:101870005E0190935F01A0936001B09361015FC02E
:10188000803269F48091E80082FFFCCF67E082E655
:1018900091E00E944B098BEF8093E80006C08232F2
:1018A00009F04DC08F89809369018091C20188231E
:1018B00019F0EEEFFAE002C0E0E0F8E0809162019A
:1018C00090916301A0916401B0916501803B9440C7
:1018D000A105B10509F07BC08091690180FF93C02B
:1018E00076C00E94C50ADC0112960D911C911397D7
:1018F0000115110541F1D801ED91FC910190F081A4
:10190000E02DBE016B5E7F4FC8010995811117C0A4
:10191000F80100851185ECCF113009F44EC0133069
:1019200091F48F89882309F445C0823081F440E81E
:1019300060E184EF91E00E94FD08882321F08EEFA2
:101940008093E80079C081E28093EB0075C081301C
:1019500029F440E86BE088EE91E0EDCF833099F711
:101960000E94C50ADC011296ED90FC9013978E013F
:101970000F5F1F4F6801E114F10479F0D701ED9179
:10198000FC910680F781E02DB801C7010995080F89
:10199000111DF701E084F184EECFD8011C92F6010D
:1019A00001900020E9F73197BF016C197D0940E0F3
:1019B000C601C1CF62ED71E002C066ED71E0611554
:1019C000710509F2FB01449150E080E840CF0FB669
:1019D000F894A895809160008861809360001092CF
:1019E00060000FBEA895EE3F2AE0F20739F0809123
:1019F000FE0A9091FF0A91838083A1CF1092FF0A83
:101A00001092FE0A9CCFEE3F8AE0F80731F0808109
:101A100091819093FF0A8093FE0A87E797E791836D
:101A200080839BE088E10FB6F894A89580936000CE
:101A30000FBE9093600083CF6C960FB6F894DEBF14
:101A40000FBECDBFDF91CF91FF91EF91BF91AF91CD
:101A50009F918F917F916F915F914F913F912F91C6
:101A60001F910F91FF90EF90DF90CF900F900FBEDE
:101A70000F901F90189590E0FC013197EF30F10521
:101A8000B0F5EA5AFF4F0C94ED1A809180008F77E1
:101A900003C0809180008F7D8093800008958091A5
:101AA0008000877FF9CF84B58F7702C084B58F7DA2
:101AB00084BD0895809190008F7707C08091900039
:101AC0008F7D03C080919000877F80939000089560
:101AD0008091C0008F7703C08091C0008F7D80937C
:101AE000C00008958091C200877F8093C20008954E
:101AF0001F93CF93DF93282F30E0F901EF5AFD4F6A
:101B00008491F901EE5CFD4FD491F901ED5EFD4F3A
:101B1000C491CC23C9F0162F81110E943B0DEC2FEC
:101B2000F0E0EE0FFF1FEE57FE4FA591B4918FB777
:101B3000F894111105C09C91ED2FE095E92302C0A6
:101B4000EC91ED2BEC938FBFDF91CF911F91089516
:101B5000CF93DF9390E0FC01EE5CFD4F2491FC01FC
:101B6000ED5EFD4F8491882361F190E0880F991F0D
:101B7000FC01EC58FE4FC591D491FC01EE57FE4F8D
:101B8000A591B491611109C09FB7F89488812095FF
:101B900082238883EC912E230BC0623061F49FB7BF
:101BA000F8943881822F809583238883EC912E2BA3
:101BB0002C939FBF06C08FB7F894E8812E2B288303
:101BC0008FBFDF91CF910895823108F08251E82FC5
:101BD000F0E0E859FE4FE49180917B00E3FB22277F
:101BE00020F930E095E0220F331F9A95E1F78F7DC1
:101BF000282B20937B00E770E064E0937C008091C9
:101C00007A00806480937A0080917A0086FDFCCF10
:101C1000809178002091790090E0922B08958F9226
:101C20009F92AF92BF92CF92DF92EF92FF926B01A1
:101C30007C010E94C3094B015C01C114D104E10481
:101C4000F104F1F00E94C309DC01CB018819990964
:101C5000AA09BB09883E9340A105B10570F321E0B4
:101C6000C21AD108E108F10888EE880E83E0981EB8
:101C7000A11CB11CC114D104E104F10419F7DDCF9A
:101C8000FF90EF90DF90CF90BF90AF909F908F909C
:101C900008957F928F929F92AF92BF92CF92DF92E0
:101CA000EF92FF920F931F93CF93DF93C82E8B0178
:101CB0007A0180912D03811103C08FEF9FEF75C0D2
:101CC0008091C30180FF05C08091E0008260809315
:101CD000E000CE2DDF2DD12C8AEF882E8C2D877041
:101CE000B82E8C2D8072A82E8C2D8074982E9AE39D
:101CF000792E209709F452C08C2D0E943A09282F82
:101D000081110AC08A948820C1F261E070E080E00D
:101D100090E00E940F0EEDCF90E0C817D9070CF4A9
:101D20002C2F3FB7F894B092E9008091E80085FF2E
:101D300033C0822F90E0C81BD90BAA2029F0215074
:101D4000A8F01092F100FBCFF801C7FE07C02150A8
:101D500058F044914093F1003196F9CF215020F092
:101D600041914093F100FACF080F191FDD2019F0BF
:101D70007092E8000AC08091E80085FD08C070926A
:101D8000E800DD24D394209739F0D12C05C02097AA
:101D900019F491107092E8003FBFABCFD110ACCFD7
:101DA0005D9884E680932B03C701DF91CF911F914B
:101DB0000F91FF90EF90DF90CF90BF90AF909F90EA
:101DC0008F907F900895CF93DF93EC01809169010C
:101DD000882331F083E00E94490E1816190634F06A
:101DE00081E090E09B838A8380E090E0DF91CF9157
:101DF00008952FB7F89460911303709114038091A4
:101E00001503909116032FBF0895CF93DF93E091B0
:101E10008103F09182030484F585E02D41E0682F71
:101E200081E893E00995EC01892B51F0E091810361
:101E3000F09182030284F385E02D81E893E0099517
:101E4000CE01DF91CF910895CF93DF93E09181038D
:101E5000F09182030484F585E02D40E0682F81E84D
:101E600093E00995EC01892B51F0E0918103F09109
:101E700082030284F385E02D81E893E00995CE0189
:101E8000DF91CF910895CF93DF93E9E5F2E084915C
:101E9000EAE3F2E0D491EBE1F2E0C491CC2391F0DB
:101EA00081110E943B0DEC2FF0E0EE0FFF1FEB5F66
:101EB000FD4FA591B491EC91ED2381E090E021F4E8
:101EC00080E002C080E090E0DF91CF910895CF9351
:101ED000DF93EC0161E08AE00E94A80D209711F4E5
:101EE00060E004C0CF3FD10531F461E08AE0DF91CA
:101EF000CF910C94780DEBE5F2E0E4918E2F90E019
:101F0000FC013197EF30F10508F06CC0EB59FF4F41
:101F10000C94ED1A84B5806884BDC7BD68C084B5D3
:101F2000806284BDC8BD63C080918000806880935A
:101F30008000D0938900C093880059C080918000B0
:101F4000806280938000D0938B00C0938A004FC042
:101F500080918000886080938000D0938D00C09332
:101F60008C0045C080919000806880939000D09351
:101F70009900C09398003BC080919000806280934C
:101F80009000D0939B00C0939A0031C08091900044
:101F9000886080939000D0939D00C0939C0027C0E0
:101FA0008091C00080688093C0008091C0008F7BCA
:101FB0008093C000C093CF001AC08091C00080629F
:101FC0008093C000C093D00012C08091C20088608E
:101FD0008093C2008091C2008B7F8093C200C09327
:101FE000D20005C0C038D1050CF07FCF79CFDF918A
:101FF000CF910895CF93DF9300D000D0CDB7DEB757
:10200000EEE7F3E0928199838A836B831C820190CF
:10201000F081E02D0190F081E02D44E050E0BE0120
:102020006F5F7F4F8EE793E009950F900F900F90B1
:102030000F90DF91CF91089590918003891731F02F
:102040008093800360E080E00C94FA0F0895BC0157
:10205000009791F0FC0101900020E9F73197AF0162
:10206000481B590BE0912E03F0912F030280F3815E
:10207000E02D8EE293E0099480E090E00895FC0169
:1020800080912D03811103C08FEF9FEF08959FB7BB
:10209000F89482E08093E9002091F20030E012167B
:1020A000130614F421E030E02115310559F0289889
:1020B00084E680932C038091F10080838091F2006C
:1020C000882319F09FBFC90108958BE68093E8002B
:1020D000F9CF8F929F92AF92BF920F931F93CF939E
:1020E000DF93CDB7DEB7A1970FB6F894DEBF0FBE72
:1020F000CDBF19A2423008F44AE08E010F5D1F4F98
:10210000842E912CA12CB12CA50194010E94AC1A13
:10211000E62FB901CA0101501109EA3014F4E05D5B
:1021200001C0E95CD801EC93232B242B252B61F70C
:10213000C8010E942710A1960FB6F894DEBF0FBE0B
:10214000CDBFDF91CF911F910F91BF90AF909F9026
:102150008F900895E0912E03F0912F030190F0816C
:10216000E02D682F8EE293E00994CF93DF9300D0A7
:1021700000D0CDB7DEB7789484B5826084BD84B5D5
:10218000816084BD85B5826085BD85B5816085BD72
:1021900080916E00816080936E001092810080912A
:1021A00081008260809381008091810081608093B2
:1021B00081008091800081608093800080919100F7
:1021C0008260809391008091910081608093910062
:1021D000809190008160809390008091C100846024
:1021E0008093C1008091C10082608093C100809182
:1021F000C10081608093C1008091C30081608093A1
:10220000C3008091C00082608093C0008091C200B2
:1022100081608093C20080917A00846080937A000C
:1022200080917A00826080937A0080917A00816048
:1022300080937A0080917A00806880937A0010926F
:102240002D031092C4011092C3018091D7008160C8
:102250008093D70080EA8093D80089B5806189BDDA
:1022600089B5826089BD09B400FEFDCF61E070E0F0
:1022700080E090E00E940F0E8091D8008F7C8061FA
:102280008093D8008091E000807F8093E00080916F
:10229000E1008E7E8093E1008DE08093E200559A0C
:1022A000209AEEEFFFE7859194918B3F9C4D19F4B6
:1022B00081E08093C20168EE73E080E090E00E94CC
:1022C0000F0E8FEF9FEF90933B0380933A0361E0F3
:1022D00086E00E94A80D14E061E086E00E94780D7F
:1022E00062E370E080E090E00E940F0E60E086E024
:1022F0000E94780D62E370E080E090E00E940F0E93
:10230000115051F761E08AE00E94A80D61E080E180
:102310000E94A80D61E08FE00E94A80D61E085E0B9
:102320000E94A80D61E08DE00E94A80D60E080E1B0
:102330000E94780D60E08FE00E94780D60E085E0FB
:102340000E94780D60E08DE00E94780D64E670E0F8
:1023500080E090E00E940F0E0E94E50660E087E1B9
:102360000E94A80D60E08DE10E94A80D60E088E168
:102370000E94A80D60E085E10E94A80D60E084E164
:102380000E94A80D1092320180E090E00E946C1A29
:10239000833611F00E9457080E9440088091310155
:1023A0000E94AB0881E090913201911101C080E060
:1023B0000E948F0881E090913301911101C080E06B
:1023C0000E94800880913401882321F081E080936D
:1023D000340102C0109234010E9457081092C601C5
:1023E0001092C5011092EF01109210021092ED01AF
:1023F00011E01093EC011092C70161E082E00E94AD
:10240000780D61E083E00E94780D8091B9008E7FA5
:102410008093B9008091B9008D7F8093B90088E4E2
:102420008093B80085E48093BC001093EE0184E2B1
:10243000809329021092EF011092100260E08DE863
:1024400093E00E94470380911002813208F045C05A
:102450009091ED019111FCCF92E09093ED0191E00C
:102460009093EC019FEF9093EB011092EA0180931F
:10247000E901A0EFB1E029EC31E0F9019E2F921BB8
:10248000981718F49D919193F9CF1092C8018091FB
:10249000C80188648093C8018091C701813061F4CC
:1024A0001092C7018091C8018093BB008091BC004D
:1024B00083FDF8CF85EC01C085EE8093BC00809150
:1024C000ED018230E1F38091EB018F3F31F080919B
:1024D000EB01803211F08091EB011092EF0110922C
:1024E00010021092EE010E94110780911F028823B2
:1024F00009F497C08DE10E94E40D8C014C0188E144
:102500000E94E40D9A8389831C010E94F90E2B011D
:102510003C01E980FA8068010E94F90EDC01CB01E0
:1025200084199509A609B70980319742A105B1051B
:1025300008F04AC061E086E00E94780D8DE10E94BB
:10254000E40D5C0161E070E080E090E00E940F0E1D
:1025500088E10E94E40D48018C0C9D1C97FE03C08D
:102560003FEF831A930A9594879429813A812E0D1F
:102570003F1D37FF02C02F5F3F4F1901359427944D
:10258000A016B10608F4850149815A818417950780
:1025900010F49A838983CA14DB0408F46501E816F1
:1025A000F90608F47C0164E670E080E090E00E94A7
:1025B0000F0E60E086E00E94780D64E670E080E037
:1025C00090E00E940F0EA8CFC818D908E218F308AF
:1025D0000819190910933A010093390189819A81E8
:1025E0008219930990933C0180933B01D0923E0164
:1025F000C0923D01F0924001E0923F01909236017D
:1026000080923501309238012092370181E0809329
:102610004F0182E390E090934E0180934D010E9420
:1026200057081092800360E080E00E94FA0FE0916A
:102630008103F09182030084F185E02D81E893E02D
:102640000995E0918103F09182030284F385E02DE6
:1026500081E893E0099504E013E08EE293E00E94A4
:10266000A909181619060CF004C18EE293E00E9425
:10267000EA09813609F47CC004F5893409F44CC0B8
:102680004CF4823409F490C08334F1F1813409F0C0
:10269000EDC077C0863599F1873509F456C08C3482
:1026A00009F0E4C064E170E080E090E00E940F0E69
:1026B00010926B0210926A02B4C08D3609F4A2C067
:1026C0008CF4893631F18C3609F4CCC0823609F0AD
:1026D000CDC0609111028EE293E00E948309609167
:1026E000120291C0833709F47DC0873759F18237D0
:1026F00009F0BCC01092270210922802B5C0609168
:102700007C0270917D0237C060917A0270917B02E9
:1027100032C0609134012EC08EE293E00E94A9097C
:10272000019709F0A3C08EE293E00E94EA09813389
:1027300021F481E08093340102C0109234010E94A0
:10274000570892C06091320115C08EE293E00E945A
:10275000A909019709F08AC08EE293E00E94EA0974
:10276000813311F481E001C080E00E948F087CC0B9
:102770006091330170E080E090E04AE00E946910CF
:1027800078C08EE293E00E94A909019709F06EC01B
:102790008EE293E00E94EA09813311F481E001C0E6
:1027A00080E00E94800860C0609127028EE293E082
:1027B0000E948309609128028EE293E00E948309BF
:1027C00010922702109228020E94F90E609388024C
:1027D0007093890280938A0290938B0291E0909388
:1027E0008C0247C060918302809132018111626046
:1027F000809133018111646080913401882319F044
:10280000686001C061E28EE293E00E94830931C0FA
:102810008EE293E00E94EA09813259F4A1E0A0938C
:102820006A028EE293E00E94A9091816190684F341
:102830000BC090916B02E92FF0E0E65DFD4F8083C5
:102840009F5F90936B02EDCF80916A02882339F0ED
:10285000A0906B02A0FE51C58EEB91E04BC58BEBB7
:1028600091E048C50E94E50681E301C08FE30E9424
:10287000AA100E94F90EC0908D02D0908E02E090B6
:102880008F02F0909002DC01CB018C199D09AE09FA
:10289000BF094197A105B10508F480C461E086E055
:1028A0000E94780D0E94110780918C0281110BC447
:1028B00080915501882359F0813061F0823069F0B0
:1028C000833071F0843079F48FE049E10EC085E007
:1028D0004DE70BC088E044E608C08AE04BE405C041
:1028E0008CE042E302C080E040E050E060E070E055
:1028F0004093040150930501609306017093070112
:1029000090E0A0E0B0E08093080190930901A093CB
:102910000A01B0930B014093100150931101609391
:102920001201709313018093140190931501A093E9
:102930001601B093170140931C0150931D01609341
:102940001E0170931F018093200190932101A09399
:102950002201B093230140932801509329016093F1
:102960002A0170932B0180932C0190932D01A09349
:102970002E01B0932F01809151018111ADC0809142
:102980002302882309F441C00E946E0680911B0235
:10299000882321F088E20E94050F03C088E20E948C
:1029A000240F80911C02882321F089E20E94050FE8
:1029B00003C089E20E94240F80911D02882321F028
:1029C00087E30E94050F03C087E30E94240F8091D4
:1029D0001E02882321F08CE20E94050F03C08CE2C6
:1029E0000E94240F80911F02882321F080EE0E9414
:1029F000050F03C080EE0E94240F809120028823DF
:102A000011F081EE69C181EE6EC1809117028823B9
:102A100051F080E00E94990660911302619580E078
:102A20000E94FA0F02C010921302809118028823AC
:102A300049F081E00E9499066091140280E00E94B2
:102A4000FA0F02C01092140280911902882351F0EB
:102A500082E00E9499068091150260E081950E94B3
:102A6000FA0F02C01092150280911A02882349F0D1
:102A700083E00E94990660E0809116020E94FA0F9E
:102A800002C01092160290911B028091800399233C
:102A900011F0826001C08D7F0E941C1090911C0279
:102AA00080918003992311F0816001C08E7F0E9484
:102AB0001C1080911D02882321F087E30E94050FDE
:102AC00003C087E30E94240F80911E02882311F027
:102AD00089E2F1C089E23BC1813009F03FC18091B8
:102AE0004F01882309F41FC18DE10E94E40D7C0190
:102AF00088E10E94E40D2091350130913601A70153
:102B0000421B530B9A0140913701509138011C012F
:102B1000241A350A40914D0150914E014217530736
:102B20000CF0E4C0241B350B421553050CF0EBC030
:102B3000241A350AC0900801D0900901E0900A01DA
:102B4000F0900B0126013701552466247724D12CFF
:102B5000D194C194D1080D2C000CEE08FF08809090
:102B6000390190903A0152E3850E911C092C000C1A
:102B7000AA08BB08C901330FAA0BBB0B9C01AD010E
:102B8000281939094A095B09C301B2016C197D0989
:102B90008E099F090E94DD1A20913D0130913E016E
:102BA00022533109032E000C440B550B2819390907
:102BB0004A095B090E94821ADA01C9018C0D9D1D28
:102BC000AE1DBF1D89839A83AB83BC8380913B017B
:102BD00090913C01C2964C01990FAA08BB08C10113
:102BE000330CAA0BBB0B9C01AD01281939094A090A
:102BF0005B09C701B60164197509860997090E9426
:102C0000DD1A20913F0130914001225331096901C1
:102C1000330FEE08FF08A7019601281939094A0960
:102C20005B090E94821A420E531E641E751E80911B
:102C30005201811175C08981642D909153019111C8
:102C4000819590915401911161950E94FA0F0E9413
:102C50006E069091210280918003992309F466C049
:102C600081600E941C10909123028091800399231F
:102C700009F45EC082600E941C1080911B028823B0
:102C800009F458C088E20E94050F80911C02882335
:102C900009F454C089E20E94050F80911D02882327
:102CA00009F450C087E30E94050F80911E0288231B
:102CB00009F44CC080E10E94050F80911F02811130
:102CC00049C08CE20E94240F80912002882339F0B1
:102CD00080EE0E94050F8EE30E94050F3FC08EE339
:102CE0000E94240F80EE0E94240F38C08827992765
:102CF000841B950B281739071CF4240F351F14CF9C
:102D000020E030E011CF88279927841B950B2816E7
:102D100039061CF4240E351E0DCF212C312C0ACF80
:102D2000842D69818ACF60E080E08FCF8E7F99CF3C
:102D30008D7FA1CF88E20E94240FA7CF89E20E9455
:102D4000240FABCF87E30E94240FAFCF80E10E9416
:102D5000240FB3CF8CE20E94050FB6CF809183027F
:102D6000882309F425C180912102882309F456C0E3
:102D70008091720290917302A0917402B0917502D9
:102D8000892B8A2B8B2B51F40E94F90E60937202CF
:102D90007093730280937402909375020E94F90EEF
:102DA000C0907202D0907302E0907402F0907502AD
:102DB000DC01CB018C199D09AE09BF098838E3E11C
:102DC0009E07A105B10530F4F1E0F09371028BE4A8
:102DD00090E00BC0803127E29207A105B10540F4D5
:102DE00082E08093710286E990E00E94670F55C0EF
:102DF00088393AE39307A105B10528F410937102CD
:102E000088EC90E0F2CF80329E44A105B10508F035
:102E100044C00093710281EE90E0E7CF809171028F
:102E20008823D9F1813049F4809155018F5F853035
:102E300009F0ADC21092550115C0823039F480916D
:102E4000530151E08527809353010CC0833051F426
:102E5000809151018F5F823019F08093510102C03F
:102E6000109251010E9457088FEF90E00E94670F67
:102E700064EF71E080E090E00E940F0E80913101DC
:102E800090E00E94670F10927202109273021092EB
:102E900074021092750210927102809123028823AD
:102EA00009F456C080916D0290916E02A0916F025C
:102EB000B0917002892B8A2B8B2B51F40E94F90E52
:102EC00060936D0270936E0280936F029093700214
:102ED0000E94F90EC0906D02D0906E02E0906F02D9
:102EE000F0907002DC01CB018C199D09AE09BF097D
:102EF0008838E3E19E07A105B10530F4F1E0F093D5
:102F00006C028BE490E021C0803127E29207A1059A
:102F1000B10530F482E080936C0286E990E015C040
:102F200088393AE39307A105B10528F410936C02A0
:102F300088EC90E00AC080329E44A105B10508F0FB
:102F40004BC000936C0281EE90E00E94670F44C07A
:102F500080916C02882309F43FC0813031F4909154
:102F6000520189278093520111C0823039F4809137
:102F7000540151E085278093540108C0833031F417
:102F80008091560191E08927809356010E9457084D
:102F90008FEF90E00E94670F64EF71E080E090E0B7
:102FA0000E940F0E8091310190E00E94670F0AC0CD
:102FB00010927202109273021092740210927502B3
:102FC0001092710210926D0210926E0210926F02B6
:102FD0001092700210926C028091830281118AC05B
:102FE00080915601882309F485C0E12CF12CF7016A
:102FF000E95EFD4F8081882351F00E94F90E6093B5
:103000007602709377028093780290937902AFEF03
:10301000EA1AFA0AB0E1EB16F10449F70E94F90E38
:10302000C0907602D0907702E0907802F09079021A
:10303000DC01CB018C199D09AE09BF0926013701BE
:10304000E0E24E0EEFEB5E1EE2E06E1E711C809021
:103050003101481659066A067B0680F5F8EBCF0E5B
:10306000F9EFDF1EF2E0EF1EF11C912CA12CB12C28
:10307000C816D906EA06FB0610F4D701C6019C0162
:10308000AD0124193509460957096FEF70E080E05A
:1030900090E0681979098A099B090E94DD1AA70145
:1030A000960124193509460957090E94821ADA0146
:1030B000C901880D991DAA1DBB1D01C0882D90E076
:1030C0000E94670F17C00E94F90EC0908802D0902E
:1030D0008902E0908A02F0908B02DC01CB018C190E
:1030E0009D09AE09BF09893E9340A105B10510F0C5
:1030F00010928C0280918302882309F441C0809150
:103100001702882319F082E00E94AB088091180210
:10311000882319F081E00E94AB0880911B0288236C
:1031200019F081E00E948F0880911C02882319F019
:1031300080E00E948F0880911E02882319F081E0B0
:103140000E94800880911D02882319F080E00E946F
:10315000800880911F02882329F031E030933401E8
:103160000E94570880912002882321F01092340198
:103170000E94570868EC70E080E090E00E940F0E1B
:1031800060E086E00E94780D0E94F90E60938D0247
:1031900070938E0280938F02909390020E94F90E9A
:1031A000C0908402D0908502E0908602F090870261
:1031B000DC01CB018C199D09AE09BF09893C910541
:1031C000A105B10508F187E10E94E40D059740F4DF
:1031D0000E94430F892B21F041E04093830202C0FB
:1031E0001092830280918302882321F0109227029B
:1031F000109228020E94F90E609384027093850257
:1032000080938602909387020E94F90EC0907F02FD
:10321000D0908002E0908102F0908202DC01CB012C
:103220008C199D09AE09BF09893E9340A105B105DE
:10323000D8F161E070E080E090E00E940F0E84E140
:103240000E94E40D90937D0280937C0261E070E027
:1032500080E090E00E940F0E85E10E94E40D9093C3
:103260007B0280937A0261E070E080E090E00E944F
:103270000F0E0E94430F20917E02892B41F02111F5
:1032800009C081E080937E020E94E50603C02111FF
:1032900010927E020E94F90E60937F02709380026A
:1032A0008093810290938202A0E0B0E0AB2B09F4FE
:1032B000D4C90E940000CFC9B0FC2DC0B394EFEF79
:1032C000CE1ADE0ABA10F8CF61E085E00E94780DD0
:1032D00060E085E00E94A80D60E085E00E94780D26
:1032E00060E08FE00E94780D60E080E10E94780D40
:1032F00088EB91E00E942710BCCA61E085E00E9443
:10330000A80D60E085E00E94780D8AE2C82E82E078
:10331000D82EB12CD7CFF6019081319780818A3396
:1033200014F4805301C087538295807F9A3314F43C
:10333000905301C09753E92EE80EF12CB1E0BB1277
:1033400013C080E00E94D90628E0922E9A94C7010B
:10335000092C02C0959587950A94E2F781700E9426
:10336000D9069110F3CFAACF81E00E94D90698E048
:10337000992E9A94C701092C02C0959587950A94B5
:10338000E2F781700E94D9069110F3CF97CF809316
:10339000550168CD109231031092300388EE93E00E
:1033A000A0E0B0E08093320390933303A093340302
:1033B000B09335038AE791E090932F0380932E0317
:1033C0008FEF9FEF90933B0380933A03109280031B
:1033D0008CE891E090937F0380937E0380919F031C
:1033E000811113C010929A031092990380E792E022
:1033F00090939C0380939B038BE290E090939E03B9
:1034000080939D0381E080939F030E949D0469E95E
:1034100073E00E948004109284031092830382E977
:1034200091E090938203809381038091AD03811199
:1034300013C01092A8031092A7038BE992E0909317
:10344000AA038093A9038BE390E09093AC0380934D
:10345000AB0381E08093AD030E949D0467EA73E0B3
:103460000E94800484EA91E09093C4038093C30394
:103470008091BB03811113C01092B6031092B50363
:1034800086ED92E09093B8038093B70380E590E0D7
:103490009093BA038093B90381E08093BB030E94A9
:1034A0009D0465EB73E00E948004109290031092DB
:1034B0008F0388EE93E0A0E0B0E0809391039093B7
:1034C0009203A0939303B09394038AEA91E09093BC
:1034D0008E0380938D030895F999FECF92BD81BD2F
:1034E000F89A992780B50895262FF999FECF1FBA2B
:1034F00092BD81BD20BD0FB6F894FA9AF99A0FBE1D
:1035000001960895052E97FB1EF400940E94991AC7
:1035100057FD07D00E94AC1A07FC03D04EF40C9460
:10352000991A50954095309521953F4F4F4F5F4FD9
:10353000089590958095709561957F4F8F4F9F4F1F
:1035400008950E94CE1AA59F900DB49F900DA49F40
:10355000800D911D11240895A1E21A2EAA1BBB1BF8
:10356000FD010DC0AA1FBB1FEE1FFF1FA217B3074F
:10357000E407F50720F0A21BB30BE40BF50B661F65
:10358000771F881F991F1A9469F760957095809529
:1035900090959B01AC01BD01CF010895A29FB001A0
:1035A000B39FC001A39F700D811D1124911DB29F77
:1035B000700D811D1124911D0895DB018F939F9340
:1035C0000E94A11ABF91AF91A29F800D911DA39F50
:1035D000900DB29F900D11240895EE0FFF1F0590DE
:1035E000F491E02D099481E090E0F8940C94F81A9D
:0435F000F894FFCF7D
:1035F40000000000640000000A0000000000000059
:10360400640000000A0000000000000064000000E4
:103614000A00000000000000640000000A0000002E
:103624006300010100000000000000000000000031
:103634000000000000000000000000000032000054
:103644000000000000000000C18081000000FFFFB6
:10365400FFFF00E100000000000000000000BE01C8
:10366400EE03AE03E501000000008309E30EA409A4
:103674009909A909EA09080A000000000F050000D9
:103684000000900258097703760308022005170208
:10369400000000002F050000000047031703770314
:1036A400EB020F03FB02EC024C530046310046329E
:0236B400000014
:00000001FF
