:100000000C9421010C9449010C9449010C94490170
:100010000C9449010C9449010C9449010C94490138
:100020000C9449010C9449010C94A8020C94870388
:100030000C9449010C9449010C9449010C94490118
:100040000C9449010C9449010C9449010C94490108
:100050000C9449010C9449010C9449010C94140925
:100060000C9449010C9449010C9449010C944901E8
:100070000C9449010C9449010C9449010C944901D8
:100080000C9449010C9449010C9449010C944901C8
:100090000C94E4090C9449010C9449010C94490115
:1000A0000C9449010C9449010C944901CF05D205E7
:1000B000C105C505CB05F305F305F305D605DA053E
:1000C000DE05E405E805F305EE054F0D540D590D69
:1000D000630D6D0DB70DB70DB70D770D810D8B0D40
:1000E000950DA20DB70DAA0D070605040100080A1B
:1000F0000B0C0D0900000000240027002A002D0031
:10010000300000000000250028002B002E003100E8
:10011000080B0002020201000904000001020200B3
:100120000005240010010524010101042402060534
:1001300024060001070581031000400904010002A4
:100140000A00000007050202400000070583024084
:1001500000000403090412010002EF0201404123E0
:10016000368000010102030141726475696E6F20DF
:100170004C4C430041726475696E6F204C656F6E24
:100180006172646F00000000002300260029002C2B
:10019000002F000404040404030405020202020404
:1001A0000302020202060606060606040402020212
:1001B0000404040802011040804010204080408068
:1001C00008020401804020100201108010204040ED
:1001D000200000000200090F0000030401000C00D1
:1001E000000000000000000000000000000000000F
:1001F00005010904A1018506050919012920150039
:1002000025017501952081020501A1000930093100
:100210000933093416008026FF7F7510950481028A
:10022000093209351580257F750895028102C005C0
:10023000010939093915012508950275048102C0A3
:100240003E1711241FBECFEFDAE0DEBFCDBF11E0B5
:10025000A0E0B1E0E8EAF0E302C005900D92AA3711
:10026000B107D9F723E0AAE7B1E001C01D92AD358F
:10027000B207E1F711E0C1E2D1E004C02197FE012D
:100280000E944718C032D107C9F70E945B0E0C9438
:1002900052180C94000040915B0250915C02209136
:1002A000590230915A0242175307B4F49091E80072
:1002B0009570E1F39091E80092FD19C08093F100F0
:1002C00080915B0290915C0201968F739927892B34
:1002D00019F48EEF8093E80080915B0290915C02AC
:1002E000019690935C0280935B0281E0089580E028
:1002F0000895CF92DF92EF92FF920F931F93CF93C7
:10030000DF931F92CDB7DEB7182F062FE42E862F6E
:10031000880F8E5F99830E944B0183E00E944B01FE
:10032000F12EC12E9981D92E8C2D8F19801798F41A
:10033000F601E7FE02C0849101C080810E944B015A
:10034000182F80E00E944B018123FFEFCF1ADF0AB4
:100350008111EACF01C081E00F90DF91CF911F9111
:100360000F91FF90EF90DF90CF9008952FB7F89402
:1003700087708093E9009091E800892F807295FF43
:1003800004C09091F20080E4891B2FBF0895615052
:1003900030F02091F100FC0120830196F8CF2898DD
:1003A00084E68093C7020895CF92DF92EF92FF9286
:1003B0000F931F93CF93DF936C017A018B01C0E001
:1003C000D0E0CE15DF0589F0D8016D918D01D60101
:1003D000ED91FC910190F081E02DC6010995892BEA
:1003E00011F47E0102C02196ECCFC701DF91CF91BD
:1003F0001F910F91FF90EF90DF90CF900895CF93D2
:10040000DF931F92CDB7DEB76983DC01ED91FC91DC
:100410000280F381E02D41E050E0BE016F5F7F4F2D
:1004200009950F90DF91CF91089583E08093E900C3
:100430008091F200882319F08AE38093E800089500
:1004400083E00E94B60190E00895FC0184859585C3
:1004500097FD0BC09FB7F89482E08093E9008091EC
:10046000F2009FBF90E0019608959FB7F89482E054
:100470008093E9008091F2009FBF90E008953FB71C
:10048000F8948091490290914A02A0914B02B09158
:100490004C0226B5A89B05C02F3F19F00196A11D5F
:1004A000B11D3FBFBA2FA92F982F8827820F911D0A
:1004B000A11DB11DBC01CD0142E0660F771F881F51
:1004C000991F4A95D1F708950E944D18CF93DF9355
:1004D0001F92CDB7DEB7FC018485958597FD05C0D9
:1004E0002FEF3FEF358724870BC0CE0101960E9486
:1004F000E50D019719F4898190E002C08FEF9FEF1D
:100500000F90DF91CF9108950F931F93CF93DF93B7
:100510001F92CDB7DEB78C01FC018485958597FFCE
:100520000EC0CE0101960E94E50D019719F42981B4
:1005300030E002C02FEF3FEFF80135872487F80144
:10054000848595850F90DF91CF911F910F9108952C
:100550001F920F920FB60F9211248F939F93809149
:10056000E1009091E100937F9093E10083FF0FC041
:100570001092E90091E09093EB001092EC0092E36E
:100580009093ED001092C80298E09093F00082FFE3
:1005900020C093E09093E9009091F200992319F024
:1005A0009AE39093E80090915D02992339F090913D
:1005B0005D02915090935D02992389F19091C70259
:1005C000992339F09091C70291509093C7029923D3
:1005D00041F184FF10C08091E2008E7E81608093A3
:1005E000E2008091E1008F7E8093E10080917B01A9
:1005F0008E7E806111C080FF16C08091E2008E7EE9
:1006000080618093E2008091E1008E7E8093E10022
:1006100080917B018E7E816080937B0104C05D9A16
:10062000CDCF289AD6CF9F918F910F900FBE0F906C
:100630001F901895DF92EF92FF920F931F93CF9325
:10064000DF93D82E8A017B01E40EF51EEB01CE1557
:10065000DF0571F0D7FE03C0FE01849101C08881DF
:100660000E944B0121968111F2CF8FEF9FEF01C0C5
:10067000C801DF91CF911F910F91FF90EF90DF9014
:1006800008958091510281110DC082E080934D0246
:1006900084E080934E021092500210924F0281E04B
:1006A000809351028DE492E008950F931F93CF93AE
:1006B000DF931F92CDB7DEB782E0898342E450E03A
:1006C00060E171E080E80E941A030E944103DC01AE
:1006D00012960D911C9113970115110569F0D8011F
:1006E000ED91FC910280F381E02DBE016F5F7F4FA1
:1006F000C801099597FF07C089810F90DF91CF91BD
:100700001F910F910895F80100851185E5CF1F9283
:100710000F920FB60F921124CF92DF92EF92FF92B9
:100720000F931F932F933F934F935F936F937F93F9
:100730008F939F93AF93BF93EF93FF93CF93DF93E9
:10074000CDB7DEB76C97DEBFCDBF1092E9008091C8
:10075000E80083FFEDC168E0CE0145960E94C70125
:1007600082EF8093E8008D8987FF05C09091E800B3
:1007700090FFFCCF03C09EEF9093E800982F9076F7
:1007800009F0C6C09E892F89188D91110CC0803840
:1007900029F480917C018093F10002C01092F10055
:1007A0001092F10048C1422F50E0512B913051F48A
:1007B000811141C14130510509F03DC180917C0159
:1007C0008D7F0BC0933061F4811135C141305105EB
:1007D00009F031C180917C01826080937C012BC142
:1007E000953041F48091E80080FFFCCF2068209391
:1007F000E30021C1963009F05FC0EB8CFC8C1092B5
:10080000E90010925C0210925B02123091F5109296
:100810005A02109259020E94550399E0BE016F5F7F
:100820007F4FDB01E92F1D92EA95E9F799831A833F
:1008300091E09E8390EA98879AEF998720915B02D6
:1008400030915C02275F3F4F3C832B838D83109256
:10085000E90010925C0210925B02F0925A02E09260
:10086000590249E050E080E00E941A030E945503BB
:10087000E2C0F0925A02E09259020E944103DC0168
:100880001296ED90FC901397E114F10409F4C0C0A6
:10089000D701ED91FC910480F581E02DBE016B5EE6
:1008A0007F4FC7010995009719F00CF0C4C0C7C06D
:1008B000F701E084F184E8CF973009F4C0C09830A4
:1008C00021F481E08093F100B6C0993009F0B3C003
:1008D000837009F0B4C0E8E2F1E081E021E036E3A2
:1008E0009081992361F08093E9002093EB0091912E
:1008F0009093EC003093ED008F5F873089F78EE79F
:100900008093EA001092EA008F898093C80293C016
:100910008B8D9C8D1092E90010925C0210925B020C
:1009200090935A0280935902898D811156C08E8905
:100930009D89913A59F4813209F081C047E050E035
:1009400062E371E080E00E941A0375C0913209F001
:1009500076C0833289F4888D90E0982F88272F897C
:10096000822BA0E0B0E080932E0190932F01A09302
:100970003001B09331015FC0803269F48091E800AA
:1009800082FFFCCF67E082E391E00E94C7018BEF1A
:100990008093E80006C0823209F04DC08F898093B1
:1009A000390180917A01882319F0EEEFFAE002C054
:1009B000E0E0F8E08091320190913301A0913401A0
:1009C000B0913501803B9440A105B10509F07BC091
:1009D0008091390180FF93C076C00E944103DC0101
:1009E00012960D911C9113970115110541F1D80133
:1009F000ED91FC910190F081E02DBE016B5E7F4F87
:100A0000C8010995811117C0F80100851185ECCF47
:100A1000113009F44EC0133091F48F89882309F402
:100A200045C0823081F440E860E184E791E00E94B3
:100A30007901882321F08EEF8093E80079C081E26C
:100A40008093EB0075C0813029F440E86BE088E6C4
:100A500091E0EDCF833099F70E944103DC011296BB
:100A6000ED90FC9013978E010F5F1F4F6801E1140A
:100A7000F10479F0D701ED91FC910680F781E02D2A
:100A8000B801C7010995080F111DF701E084F18431
:100A9000EECFD8011C92F60101900020E9F73197C2
:100AA000BF016C197D0940E0C601C1CF62E571E06C
:100AB00002C066E571E06115710509F2FB01449120
:100AC00050E080E840CF0FB6F894A8958091600080
:100AD000886180936000109260000FBEA895EE3F81
:100AE0002AE0F20739F08091FE0A9091FF0A918383
:100AF0008083A1CF1092FF0A1092FE0A9CCFEE3F96
:100B00008AE0F80731F0808191819093FF0A809309
:100B1000FE0A87E797E7918380839BE088E10FB621
:100B2000F894A895809360000FBE9093600083CFE7
:100B30006C960FB6F894DEBF0FBECDBFDF91CF919C
:100B4000FF91EF91BF91AF919F918F917F916F91A5
:100B50005F914F913F912F911F910F91FF90EF90D7
:100B6000DF90CF900F900FBE0F901F90189590E0E0
:100B7000FC013197EF30F105B0F5EA5AFF4F0C94C4
:100B80004718809180008F7703C0809180008F7D0F
:100B900080938000089580918000877FF9CF84B58D
:100BA0008F7702C084B58F7D84BD089580919000B9
:100BB0008F7707C0809190008F7D03C08091900057
:100BC000877F8093900008958091C0008F7703C045
:100BD0008091C0008F7D8093C00008958091C200F5
:100BE000877F8093C20008951F93CF93DF93282FB0
:100BF00030E0F901EF52FE4F8491F901EE54FE4FBF
:100C0000D491F901ED56FE4FC491CC23C9F0162FB3
:100C100081110E94B705EC2FF0E0EE0FFF1FEE5F91
:100C2000FE4FA591B4918FB7F894111105C09C9116
:100C3000ED2FE095E92302C0EC91ED2BEC938FBFF3
:100C4000DF91CF911F910895CF93DF9390E0FC0146
:100C5000EE54FE4F2491FC01ED56FE4F8491882303
:100C600061F190E0880F991FFC01EC50FF4FC59196
:100C7000D491FC01EE5FFE4FA591B491611109C0C2
:100C80009FB7F8948881209582238883EC912E2346
:100C90000BC0623061F49FB7F8943881822F809541
:100CA00083238883EC912E2B2C939FBF06C08FB794
:100CB000F894E8812E2B28838FBFDF91CF91089580
:100CC000823108F08251E82FF0E0E851FF4FE491C3
:100CD00080917B00E3FB222720F930E095E0220F92
:100CE000331F9A95E1F78F7D282B20937B00E770C7
:100CF000E064E0937C0080917A00806480937A00C5
:100D000080917A0086FDFCCF809178002091790057
:100D100090E0922B08958F929F92AF92BF92CF92C4
:100D2000DF92EF92FF926B017C010E943F024B0128
:100D30005C01C114D104E104F104F1F00E943F020E
:100D4000DC01CB0188199909AA09BB09883E9340A7
:100D5000A105B10570F321E0C21AD108E108F1083C
:100D600088EE880E83E0981EA11CB11CC114D1042A
:100D7000E104F10419F7DDCFFF90EF90DF90CF9001
:100D8000BF90AF909F908F9008957F928F929F9287
:100D9000AF92BF92CF92DF92EF92FF920F931F9389
:100DA000CF93DF93C82E8B017A018091C802811105
:100DB00003C08FEF9FEF75C080917B0180FF05C05E
:100DC0008091E00082608093E000CE2DDF2DD12C59
:100DD0008AEF882E8C2D8770B82E8C2D8072A82ECD
:100DE0008C2D8074982E9AE3792E209709F452C0A6
:100DF0008C2D0E94B601282F81110AC08A94882068
:100E0000C1F261E070E080E090E00E948B06EDCFDF
:100E100090E0C817D9070CF42C2F3FB7F894B09284
:100E2000E9008091E80085FF33C0822F90E0C81B65
:100E3000D90BAA2029F02150A8F01092F100FBCF85
:100E4000F801C7FE07C0215058F044914093F100CB
:100E50003196F9CF215020F041914093F100FACF23
:100E6000080F191FDD2019F07092E8000AC0809168
:100E7000E80085FD08C07092E800DD24D394209737
:100E800039F0D12C05C0209719F491107092E80028
:100E90003FBFABCFD110ACCF5D9884E680935D02AD
:100EA000C701DF91CF911F910F91FF90EF90DF90DD
:100EB000CF90BF90AF909F908F907F900895CF93E9
:100EC000DF93EC0180913901882331F083E00E94A7
:100ED000C5061816190634F081E090E09B838A83DA
:100EE00080E090E0DF91CF9108952FB7F894609162
:100EF00045027091460280914702909148022FBFAF
:100F00000895DC01FB0112968C91129790E02481E8
:100F1000358182179307D1F491818081813A31F430
:100F200081E0913091F0933089F411C0813271F4F5
:100F30009B3021F482811F968C9305C09A3031F446
:100F4000828150968C9381E00895089580E0089501
:100F5000DC01FB0188E4808389E4818384E482836B
:100F60001D969C911D979F709F5B93831D968D91FD
:100F70009C911E9724E0969587952A95E1F78F70AE
:100F80008F5B848385E00895FC0182818F5BFB0188
:100F9000808381E0089585ED8093BC008091BC0042
:100FA00084FDFCCF1092A50108954091A102262F47
:100FB00030E0240F311D21323105DCF42091A501F0
:100FC0002430C9F4FC0180E090E0861758F4309199
:100FD000A1022191DC01A158BD4FA30FB11D2C939B
:100FE0000196F3CF8091A102680F6093A10280E087
:100FF000089581E0089582E008950895E0917E01CA
:1010000080917D01E81730F4F0E0E15AFD4F8081D6
:1010100090E008958FEF9FEF089590917E01809169
:101020007D01981750F4E92FF0E0E15AFD4F20813F
:1010300030E09F5F90937E0102C02FEF3FEFC90128
:10104000089580917D0190E020917E01821B91099D
:101050000895CF92DF92EF92FF920F931F93CF9359
:10106000DF937C01262F972F8A018091A601882388
:1010700091F0C62FD72F6E01C40ED51ECC15DD05FD
:1010800071F06991D701ED91FC910190F081E02D13
:10109000C7010995F3CF642F822F0E94D507C8019D
:1010A000DF91CF911F910F91FF90EF90DF90CF9044
:1010B0000895CF93DF931F92CDB7DEB76983209158
:1010C000A6012223D1F02091C801203240F021E076
:1010D00030E0FC013383228380E090E015C08091F2
:1010E000A701E82FF0E0E855FE4F998190838F5FCC
:1010F0008093A7018093C80105C061E0CE010196ED
:101100000E94D50781E090E00F90DF91CF91089584
:10111000089580E090E00895EF92FF920F931F935F
:10112000CF93DF93FB012081213851F523812232B7
:1011300039F5DC0112962C9130E04481558142173B
:101140005307F1F4EC010B851C85E12CF12C011502
:10115000110591F0F801448155816281738180E825
:101160000E941A038F3FFFEF9F0769F0E80EF91EF8
:10117000D8010D911C91EBCF81E08F87C70105C08D
:1011800080E090E002C08FEF9FEFDF91CF911F9141
:101190000F91FF90EF900895CF93DF93CDB7DEB717
:1011A00069970FB6F894DEBF0FBECDBFFC01DB011F
:1011B0008C918F5F8C93BE016F5F7F4F89E1DB0164
:1011C0001D928A95E9F729E0298384E08A8391E0DA
:1011D0009D8383E08E832A8721E22B879C879D87CE
:1011E0009F8722E2288B27E02B8B25E02C8B8E8B90
:1011F00020E430E0388F2F8B998F82818B83958507
:101200008685998B8A8B838180688D8B49E150E03C
:1012100080E00E941A0369960FB6F894DEBF0FBEF5
:10122000CDBFDF91CF9108951F920F920FB60F920D
:1012300011242F933F938F939F93AF93BF938091EC
:10124000450290914602A0914702B0914802309128
:10125000C60223E0230F2D3720F40196A11DB11DF6
:1012600005C026E8230F0296A11DB11D2093C602DA
:101270008093450290934602A0934702B0934802A0
:101280008091490290914A02A0914B02B0914C0288
:101290000196A11DB11D8093490290934A02A0932B
:1012A0004B02B0934C02BF91AF919F918F913F91B0
:1012B0002F910F900FBE0F901F901895CF93DF9333
:1012C000EC0181E08C838D839E01265F3F4F3F833D
:1012D0002E83198618862EE331E0398328831C86F5
:1012E0001B861E861D868F87888B81EC8A870E94CD
:1012F0004103FC0121818C8190E0820F911D0897B0
:1013000074F5A281B381109719F4D383C2830CC002
:1013100018968D919C911997009711F0DC01F8CFE8
:101320001996DC93CE93189780818A8381818B8371
:1013300090818D81890F808380E09C81891778F46A
:10134000AE81BF81A80FB11D9C91A181B0E0A95DC4
:10135000BE4F9C9391819F5F91838F5FEECFDF9112
:10136000CF910895EF92FF920F931F93CF93DF9346
:101370001F92CDB7DEB78B017A0180912A038111CC
:1013800007C089E193E00E945E0981E080932A030F
:1013900086E0898341E050E0BE016F5F7F4F80911E
:1013A0001C030E94C50697FD07C080911C03A7017E
:1013B000B80180640E94C5060F90DF91CF911F9104
:1013C0000F91FF90EF9008951F920F920FB60F921A
:1013D00011242F933F934F935F936F937F938F933A
:1013E0009F93AF93BF93EF93FF938091B900887F52
:1013F000803609F49CC068F5883209F45BC090F42B
:10140000803109F454C038F4882309F4F6C08830D8
:1014100009F44DC0F6C0883109F44CC0803209F49B
:101420005DC0EFC0803409F468C048F4803309F42B
:1014300055C0883309F0E5C08093A301D8C080353A
:1014400009F44FC0883509F45DC0883409F0D9C06B
:10145000D6C0883909F4C7C0A8F4883709F467C032
:1014600038F4883609F463C0803709F460C0C9C015
:10147000883809F4B8C0803909F45FC0803809F0B1
:10148000C0C05BC0803B09F486C038F4803A09F4E0
:1014900066C0883A09F47FC0B4C0803C09F4A7C094
:1014A000883C09F4A4C0883B09F48AC0AAC0809192
:1014B000800110C09091A2018091A101981770F550
:1014C000E091A20181E08E0F8093A201F0E0EF573E
:1014D000FE4F80818093BB0085EC86C08093A30182
:1014E0008EC0E091A20181E08E0F8093A2018091D5
:1014F000BB00F0E0EF57FE4F80839091A2018091F6
:10150000A1016EC0E091A20181E08E0F8093A20143
:101510008091BB00F0E0EF57FE4F80838091A401E3
:1015200081116DC081E080937F0184EA61C083E016
:101530008093A5011092C502CFCF8091C502803261
:1015400008F051C0E091C50281E08E0F8093C50282
:101550008091BB00F0E0EB55FD4F8083BDCF85EC63
:101560008093BC001092A5018091C502803230F4B6
:10157000E091C502F0E0EB55FD4F10826091C5028D
:1015800070E0E091A302F091A40285EA92E009954F
:101590001092C50236C084E08093A5011092A20289
:1015A0001092A102E0919F02F091A0020995809112
:1015B000A102811105C081E08093A10210927F02F7
:1015C000E091A20281E08E0F8093A202F0E0E15848
:1015D000FD4F80818093BB009091A2028091A10277
:1015E000981708F479CF85E88093BC000AC085EC91
:1015F0008093BC001092A50104C01092A3010E9428
:10160000CB07FF91EF91BF91AF919F918F917F9108
:101610006F915F914F913F912F910F900FBE0F905F
:101620001F901895682F80E10E94F40560E08FE01C
:101630000E94F40561E08FE00C94F40561E080E124
:101640000E94240661E08FE00E94240661E085E0AC
:101650000E94240661E08DE00E94240660E08DE097
:101660000E94F4056AE070E080E090E00E948B0642
:1016700061E08DE00E94F4056AE070E080E090E0B7
:101680000E948B0660E08DE00E94240660E08DE001
:101690000C94F405CF92DF92EF92FF921F93CF93B9
:1016A000DF93CDB7DEB760970FB6F894DEBF0FBEFD
:1016B000CDBF8091A5018111FCCF81E08093A50170
:1016C0008093A4019FEF9093A3011092A2018093B5
:1016D000A1018093800180918001886480938001C2
:1016E00080917F01813061F410927F0180918001AF
:1016F0008093BB008091BC0083FDF8CF85EC01C0D6
:1017000085EE8093BC008091A5018130E1F380914A
:10171000A201823018F48091A20101C082E0A1E808
:10172000B1E02FE532E0F9019E2F921B981718F4D3
:101730009D919193F9CF10927E0180937D0110E0ED
:1017400090917D0180917E01981729F183E493E0C7
:101750000E940D08809548E0149FB001112420E0FC
:1017600030E090E0F901E60FF71F41E050E04C0F48
:101770005D1FE40FF51FAC01022E02C05595479581
:101780000A94E2F7417040832F5F3F4F28303105C4
:1017900049F71F5FD5CF8B818093CB018D818093DB
:1017A000CC018C818093CD018E818093CE018A857E
:1017B0008093CF0189858093D0018C858093D1015E
:1017C0008B858093D20188858093D3018F8180930C
:1017D000D4018A818093D50189818093D6018E8539
:1017E0008093D7018D858093D8018F858093D9010F
:1017F00088898093DA0180E090E0C12CD12C7601B9
:10180000C394FC01E553FE4F2081222381F02091F7
:10181000C901B701A601082E04C0440F551F661F59
:10182000771F0A94D2F7422B4093C90111C030911F
:10183000C901B701A601082E04C0440F551F661F39
:10184000771F0A94D2F74095242F23232093C901B0
:10185000019688309105A9F680E090E0C12CD12C4A
:101860007601C394FC01ED52FE4F3081332381F0A9
:101870003091CA01B701A601082E04C0440F551FBC
:10188000661F771F0A94D2F7432B4093CA0111C0F9
:101890003091CA01B701A601082E04C0440F551F9C
:1018A000661F771F0A94D2F74095242F2323209395
:1018B000CA01019688309105A9F68091C9019091DD
:1018C000DB01892B8093DB018091CA019091DC01BF
:1018D000892B8093DC0160960FB6F894DEBF0FBEB3
:1018E000CDBFDF91CF911F91FF90EF90DF90CF9010
:1018F00008950F931F93CF93DF9300E011E0C0E0B2
:10190000D0E0CE010E94BE17F80181938F0121968D
:10191000C732D105B1F7DF91CF911F910F91089593
:10192000EF92FF920F931F93CF93DF931F92CDB748
:10193000DEB700E011E0E12CF12CF80161918F019C
:10194000C70169830E94BE176981681719F0C70132
:101950000E94C617FFEFEF1AFF0A87E2E816F104AC
:1019600061F70F90DF91CF911F910F91FF90EF9052
:101970000895882329F081E08093030160E003C08B
:101980001092030161E08BE00E9424060C94900CFD
:10199000882341F081E08093020160E089E00E94A9
:1019A000240610C01092020161E089E00E94240622
:1019B00061E089E00E94F40564EF71E080E090E06E
:1019C0000E948B060C94900C90910101813051F48F
:1019D0009B3EB8F4913E10F4965F0EC08BEE809360
:1019E00001010FC0823069F4992359F0292F30E0AA
:1019F0002B30310524F09A509093010102C01092CF
:101A000001018091010190E00E942C0D0C94900C3A
:101A1000CF93DF93E9EDF1E08491EAEBF1E0D4912B
:101A2000EBE9F1E0C491CC2391F081110E94B7055C
:101A3000EC2FF0E0EE0FFF1FEB57FE4FA591B49196
:101A4000EC91ED2381E090E021F480E002C080E0A1
:101A500090E0DF91CF910895CF93DF93EC0161E0A7
:101A60008AE00E942406209711F460E004C0CF3F72
:101A7000D10531F461E08AE0DF91CF910C94F40557
:101A8000EBEDF1E0E4918E2F90E0FC013197EF3027
:101A9000F10508F06CC0EB59FF4F0C94471884B562
:101AA000806884BDC7BD68C084B5806284BDC8BD80
:101AB00063C080918000806880938000D09389000B
:101AC000C093880059C0809180008062809380001C
:101AD000D0938B00C0938A004FC0809180008860B3
:101AE00080938000D0938D00C0938C0045C080917E
:101AF0009000806880939000D0939900C0939800E4
:101B00003BC080919000806280939000D0939B00B6
:101B1000C0939A0031C080919000886080939000BB
:101B2000D0939D00C0939C0027C08091C000806826
:101B30008093C0008091C0008F7B8093C000C093D1
:101B4000CF001AC08091C00080628093C000C09313
:101B5000D00012C08091C20088608093C200809142
:101B6000C2008B7F8093C200C093D20005C0C038F2
:101B7000D1050CF07FCF79CFDF91CF910895E0911F
:101B80003203F09133030190F081E02D4FE050E0FB
:101B900064E373E082E393E00994BC01009791F061
:101BA000FC0101900020E9F73197AF01481B590B68
:101BB000E091C902F091CA020280F381E02D89EC24
:101BC00092E0099480E090E00895FC018091C802C1
:101BD000811103C08FEF9FEF08959FB7F89482E0C3
:101BE0008093E9002091F20030E01216130614F4FD
:101BF00021E030E02115310559F0289884E68093E2
:101C0000C7028091F10080838091F200882319F04F
:101C10009FBFC90108958BE68093E800F9CF8F92AA
:101C20009F92AF92BF920F931F93CF93DF93CDB745
:101C3000DEB7A1970FB6F894DEBF0FBECDBF19A2D5
:101C4000423008F44AE08E010F5D1F4F842E912C24
:101C5000A12CB12CA50194010E940618E62FB90110
:101C6000CA0101501109EA3014F4E05D01C0E95CD9
:101C7000D801EC93232B242B252B61F7C8010E945C
:101C8000CD0DA1960FB6F894DEBF0FBECDBFDF918C
:101C9000CF911F910F91BF90AF909F908F9008951B
:101CA000E091C902F091CA020190F081E02D682F05
:101CB00089EC92E00994789484B5826084BD84B5FF
:101CC000816084BD85B5826085BD85B5816085BD37
:101CD00080916E00816080936E00109281008091EF
:101CE0008100826080938100809181008160809377
:101CF00081008091800081608093800080919100BC
:101D00008260809391008091910081608093910026
:101D1000809190008160809390008091C1008460E8
:101D20008093C1008091C10082608093C100809146
:101D3000C10081608093C1008091C3008160809365
:101D4000C3008091C00082608093C0008091C20077
:101D500081608093C20080917A00846080937A00D1
:101D600080917A00826080937A0080917A0081600D
:101D700080937A0080917A00806880937A00109234
:101D8000C80210927C0110927B018091D700816083
:101D90008093D70080EA8093D80089B5806189BD9F
:101DA00089B5826089BD09B400FEFDCF61E070E0B5
:101DB00080E090E00E948B068091D8008F7C80614B
:101DC0008093D8008091E000807F8093E000809134
:101DD000E1008E7E8093E1008DE08093E200559AD1
:101DE000209AEEEFFFE7859194918B3F9C4D19F47B
:101DF00081E080937A0168EE73E080E090E00E94D9
:101E00008B068FEF9FEF9093D6028093D50261E00F
:101E100086E00E942406C4E061E086E00E94F405AA
:101E200062E370E080E090E00E948B0660E086E074
:101E30000E94F40562E370E080E090E00E948B066F
:101E4000C15051F761E08AE00E94240661E080E120
:101E50000E94240661E08FE00E94240661E085E094
:101E60000E94240661E08DE00E94240660E080E18B
:101E70000E94F40560E08FE00E94F40560E085E0D8
:101E80000E94F40560E08DE00E94F40564E670E0D5
:101E900080E090E00E948B060E941E0B60E087E1CC
:101EA0000E94240660E088E10E94240660E08DE143
:101EB0000E94240660E085E10E94240660E084E13F
:101EC0000E9424061092020180E090E00E94BE175A
:101ED000833611F00E94900C0E94790C80910101D0
:101EE0000E94E40C81E090910201911101C080E018
:101EF0000E94C80C81E090910301911101C080E023
:101F00000E94B90C80910401882321F081E0809324
:101F1000040102C0109204010E94900C10927E01F4
:101F200010927D011092A7011092C8011092A50194
:101F3000C1E0C093A40110927F0161E082E00E94A1
:101F4000F40561E083E00E94F4058091B9008E7F82
:101F50008093B9008091B9008D7F8093B90088E4A7
:101F60008093B80085E48093BC00C093A60184E20E
:101F70008093DD011092A7011092C80160E083E414
:101F800093E00E9459088091C801813208F045C051
:101F90009091A5019111FCCF92E09093A50191E061
:101FA0009093A4019FEF9093A3011092A2018093BC
:101FB000A101A8EAB1E021E831E0F9019E2F921BCE
:101FC000981718F49D919193F9CF10928001809108
:101FD000800188648093800180917F01813061F469
:101FE00010927F01809180018093BB008091BC00A2
:101FF00083FDF8CF85EC01C085EE8093BC00809115
:10200000A5018230E1F38091A3018F3F31F08091EF
:10201000A301803211F08091A3011092A7011092C8
:10202000C8011092A6010E944A0B8091D301882317
:1020300009F48FC088E10E9460068C014C018DE19B
:102040000E946006EC011C010E9475072B013C01F7
:102050007E0168010E947507DC01CB018419950996
:10206000A609B70980319742A105B10508F046C01D
:1020700061E086E00E94F40588E10E9460065C0150
:1020800061E070E080E090E00E948B068DE10E94AC
:10209000600648018C0C9D1C97FE03C04FEF841A0C
:1020A000940A959487949E012E0D3F1D37FF02C020
:1020B0002F5F3F4F190135942794A016B10608F4FD
:1020C00085018C179D0708F4EC01CA14DB0408F4A1
:1020D0006501E816F90608F47C0164E670E080E02A
:1020E00090E00E948B0660E086E00E94F40564E6C2
:1020F00070E080E090E00E948B06ACCFC818D90851
:10210000E218F3080819190910930A01009309014C
:10211000C219D309D0930C01C0930B01D0920E01C8
:10212000C0920D01F0921001E0920F019092060111
:1021300080920501309208012092070181E080938E
:102140001F0182E390E090931E0180931D010E9485
:10215000900C8FE0E4E3F3E0DF011D928A95E9F74C
:10216000E0913203F09133030190F081E02D4FE0D4
:1021700050E064E373E082E393E0099550E0252E9C
:1021800050E0352EC1E0D3E089EC92E00E942502B8
:10219000181619060CF001C189EC92E00E94660243
:1021A000813609F47BC004F5893409F44CC04CF441
:1021B000823409F48FC08334F1F1813409F0EAC02C
:1021C00076C0863599F1873509F455C08C3409F00D
:1021D000E1C064E170E080E090E00E948B06109224
:1021E0001F0210921E02B1C08D3609F4A0C08CF4FB
:1021F000893631F18C3609F4C9C0823609F0CAC07B
:102200006091C90189EC92E00E94FF016091CA01CE
:102210008FC0833709F47BC0873751F1823709F0CB
:10222000B9C01092DB011092DC01B2C060913002A3
:102230007091310236C060912E0270912F0231C030
:10224000609104012DC089EC92E00E942502019763
:1022500009F0A0C089EC92E00E946602813319F473
:10226000C093040102C0109204010E94900C90C01F
:102270006091020115C089EC92E00E94250201974D
:1022800009F088C089EC92E00E946602813311F463
:1022900081E001C080E00E94C80C7AC06091030117
:1022A00070E080E090E04AE00E940F0E76C089EC7A
:1022B00092E00E942502019709F06CC089EC92E03F
:1022C0000E946602813311F481E001C080E00E9427
:1022D000B90C5EC06091DB0189EC92E00E94FF01C5
:1022E0006091DC0189EC92E00E94FF011092DB0119
:1022F0001092DC010E94750760933C0270933D02CE
:1023000080933E0290933F02C093400246C060918A
:102310003702809102018111626080910301811175
:10232000646080910401882319F0686001C061E253
:1023300089EC92E00E94FF0130C089EC92E00E949B
:102340006602813251F4C0931E0289EC92E00E9431
:102350002502181619068CF30BC090911F02E92F65
:10236000F0E0E252FE4F80839F5F90931F02EDCF1B
:1023700080911E02882339F0C0901F02C0FE31C533
:1023800086E791E02BC583E791E028C50E941E0BEC
:1023900081E301C08FE30E94500E0E9475070091F7
:1023A0004102109142022091430230914402DC012B
:1023B000CB01801B910BA20BB30B4197A105B1057B
:1023C00008F463C461E086E00E94F4050E944A0BB1
:1023D000809140028111EFC380914203807F8093FE
:1023E00042039091CC019923A1F085608093420330
:1023F0009091CD01992321F0807F866080934203E4
:102400008091CE01882351F180914203807F8460C6
:1024100023C09091CB019923A1F081608093420366
:102420009091CD01992321F0807F886080934203B1
:102430008091CE01882391F080914203807F826059
:102440000BC09091CD01992311F0876005C0909148
:10245000CE01992319F08360809342032091CF012C
:102460008091340390913503A0913603B0913703E6
:10247000222311F0816001C08E7F809334039093FA
:102480003503A0933603B09337032091D001809198
:10249000340390913503A0913603B0913703222382
:1024A00011F0826001C08D7F8093340390933503D7
:1024B000A0933603B09337032091D1018091340368
:1024C00090913503A0913603B0913703222311F088
:1024D000846001C08B7F8093340390933503A09375
:1024E0003603B09337032091D20180913403909149
:1024F0003503A0913603B0913703222311F0886091
:1025000001C0877F8093340390933503A0933603F3
:10251000B09337032091D301809134039091350318
:10252000A0913603B0913703222311F0806101C0DE
:102530008F7E8093340390933503A0933603B0933A
:1025400037032091D4018091340390913503A091F9
:102550003603B0913703222311F0806201C08F7DD2
:102560008093340390933503A0933603B0933703DD
:102570002091D5018091340390913503A0913603C9
:10258000B0913703222311F0806401C08F7B8093C8
:10259000340390933503A0933603B093370320910F
:1025A000D6018091340390913503A0913603B09108
:1025B0003703222311F0806801C08F7780933403A2
:1025C00090933503A0933603B09337032091D7013E
:1025D0008091340390913503A0913603B091370375
:1025E000222311F0916001C09E7F80933403909369
:1025F0003503A0933603B09337032091D80180911F
:10260000340390913503A0913603B0913703222310
:1026100011F0926001C09D7F809334039093350345
:10262000A0933603B09337032091D90180913403EE
:1026300090913503A0913603B0913703222311F016
:10264000946001C09B7F8093340390933503A093E3
:102650003603B09337032091DA01809134039091CF
:102660003503A0913603B0913703222311F098600F
:1026700001C0977F8093340390933503A093360372
:10268000B093370380913702811102C00E94BF0DC1
:1026900080911F01882309F4D0C088E10E94600660
:1026A0008C018DE10E9460062091050130910601A8
:1026B000A801421B530B9A01409107015091080158
:1026C0006C01C41AD50A00911D0110911E01021758
:1026D00013071CF4201B310B0CC088279927801B83
:1026E000910B281739071CF4200F311F02C020E07E
:1026F00030E08090090190900A0152E3850E911C10
:10270000092C000CAA08BB08C901330FAA0BBB0B8C
:102710009C01AD01281939094A095B09ACE4BFEFF6
:102720000E94F31720910D0130910E0122533109BF
:102730002901330F66087708A30192012819390986
:102740004A095B090E94D41757FD0EC02D348FEF44
:102750003807410551056CF4DA01C901865A9F47D3
:10276000A109B1097C0109C02AE5E22E20E8F22E78
:1027700004C096EAE92E9FE7F92E0C151D0524F4F6
:102780009601201B310B0DC088279927801B910BC8
:10279000C816D90624F49601200F311F02C020E08C
:1027A00030E080900B0190900C0192E3890E911C17
:1027B000092C000CAA08BB08C901330FAA0BBB0BDC
:1027C0009C01AD01281939094A095B09A4EBB0E065
:1027D0000E94011820910F013091100122533109FC
:1027E0008901330F220B330BA901980128193909EC
:1027F0004A095B090E94D417243B3105AFEF4A0711
:102800005A076CF012161306140615065CF0DA016E
:10281000C9018A559048AF4FBF4F9C0105C02AE5BA
:1028200030E802C026EA3FE7F0923903E09238032D
:1028300030933B0320933A0308C01092390310925F
:10284000380310923B0310923A03809137028111B2
:1028500002C00E94BF0D80913702882309F421C174
:102860008091D501882309F456C080912602909169
:102870002702A0912802B0912902892B8A2B8B2B49
:1028800051F40E947507609326027093270280938B
:102890002802909329020E94750700912602109148
:1028A00027022091280230912902DC01CB01801BF4
:1028B000910BA20BB30B8838E3E19E07A105B1058C
:1028C00028F4C09325028BE490E00BC08031F7E23E
:1028D0009F07A105B10540F482E08093250286E9B7
:1028E00090E00E942C0D55C088392AE39207A1057B
:1028F000B10528F4D093250288EC90E0F2CF803225
:102900009E44A105B10508F044C054E0509325024F
:1029100081EE90E0E6CF809125028823D1F18130CD
:1029200049F4809125018F5F853009F0A4C210928F
:10293000250114C0823031F4809123018C278093CB
:1029400023010CC0833051F4809121018F5F8230CC
:1029500019F08093210102C0109221010E94900C75
:102960008FEF90E00E942C0D64EF71E080E090E02A
:102970000E948B068091010190E00E942C0D109224
:102980002602109227021092280210922902109219
:1029900025028091D701882309F456C08091210235
:1029A00090912202A0912302B0912402892B8A2BBC
:1029B0008B2B51F40E9475076093210270932202C1
:1029C00080932302909324020E94750700912102B4
:1029D000109122022091230230912402DC01CB01CC
:1029E000801B910BA20BB30B8838E3E19E07A10576
:1029F000B10528F4C09320028BE490E022C080311E
:102A0000F7E29F07A105B10530F482E08093200230
:102A100086E990E016C088392AE39207A105B1053E
:102A200028F4D093200288EC90E00BC080329E44C2
:102A3000A105B10508F049C054E05093200281EE91
:102A400090E00E942C0D41C0809120028823E9F182
:102A5000813031F4909122018927809322010FC0A7
:102A6000823031F4809124018C278093240107C0A7
:102A7000833029F4809126018C27809326010E94BF
:102A8000900C8FEF90E00E942C0D64EF71E080E0DD
:102A900090E00E948B068091010190E00E942C0D35
:102AA0000AC0109226021092270210922802109259
:102AB00029021092250210922102109222021092F5
:102AC0002302109224021092200280913702811179
:102AD00089C080912601882309F484C000E010E0B9
:102AE000F801E553FE4F8081882351F00E9475075D
:102AF00060932A0270932B0280932C0290932D02F4
:102B00000F5F1F4F0031110559F70E947507C090E4
:102B10002A02D0902B02E0902C02F0902D02AB0103
:102B2000BC014C195D096E097F092601370180E25D
:102B3000480E8FEB581E82E0681E711C80910101C7
:102B4000441655066606770690F598EBC90E99EF80
:102B5000D91E92E0E91EF11C882E912CA12CB12CDB
:102B6000DB01CA01C416D506E606F70610F4D70144
:102B7000C6019C01AD0124193509460957096FEFBB
:102B800070E080E090E0681979098A099B090E9449
:102B90003718A701960124193509460957090E94DB
:102BA000D417DA01C901880D991DAA1DBB1D90E03B
:102BB0000E942C0D17C00E94750700913C021091D5
:102BC0003D0220913E0230913F02DC01CB01801B8F
:102BD000910BA20BB30B893E9340A105B10510F0F8
:102BE0001092400280913702882309F440C08091FE
:102BF000CB01882319F082E00E94E40C8091CC0183
:102C0000882319F081E00E94E40C8091CF01882391
:102C100019F081E00E94C80C8091D001882319F03E
:102C200080E00E94C80C8091D201882319F081E0D5
:102C30000E94B90C8091D101882319F080E00E9494
:102C4000B90C8091D301882321F0C09304010E9424
:102C5000900C8091D401882321F0109204010E94ED
:102C6000900C68EC70E080E090E00E948B0660E0E1
:102C700086E00E94F4050E947507609341027093FC
:102C8000420280934302909344020E947507009190
:102C900038021091390220913A0230913B02DC0156
:102CA000CB01801B910BA20BB30B893C9105A105B5
:102CB000B10500F187E10E946006059738F40E9493
:102CC000080D892B19F0C093370202C01092370209
:102CD00080913702882321F01092DB011092DC01F1
:102CE0000E947507609338027093390280933A020C
:102CF00090933B020E9475070091330210913402B9
:102D00002091350230913602DC01CB01801B910B02
:102D1000A20BB30B893E9340A105B105D0F161E050
:102D200070E080E090E00E948B0684E10E946006E3
:102D3000909331028093300261E070E080E090E097
:102D40000E948B0685E10E94600690932F0280937B
:102D50002E0261E070E080E090E00E948B060E940D
:102D6000080D20913202892B39F0211108C0C0933F
:102D700032020E941E0B03C02111109232020E94E7
:102D800075076093330270933402809335029093F9
:102D900036022114310409F4F7C90E940000F2C977
:102DA000D0FC2DC0D394EFEFEE1AFE0ADC10F8CF62
:102DB00061E085E00E94F40560E085E00E94240661
:102DC00060E085E00E94F40560E08FE00E94F40579
:102DD00060E080E10E94F40580E791E00E94CD0D63
:102DE000DCCA61E085E00E94240660E085E00E9484
:102DF000F4058EEDE82E81E0F82ED12CD7CFD70147
:102E00000C91F701319780818A3314F4805301C00B
:102E100087538295807F0A3314F4005301C007530F
:102E2000080F10E0B1E0DB1213C080E00E94120B2B
:102E300048E0B42EBA94C8010B2C02C09595879532
:102E40000A94E2F781700E94120BB110F3CFAACF5F
:102E500081E00E94120B38E0B32EBA94C8010B2C0B
:102E600002C0959587950A94E2F781700E94120B33
:102E7000B110F3CF97CF8093250170CD1092CC0283
:102E80001092CB0288EE93E0A0E0B0E08093CD02F8
:102E90009093CE02A093CF02B093D0028AE491E047
:102EA0009093CA028093C9028FEF9FEF9093D6024E
:102EB0008093D5028CE591E09093330380933203A5
:102EC00080915503811113C01092500310924F034B
:102ED00080EF91E0909352038093510380E590E05E
:102EE000909354038093530381E080935503809122
:102EF0002A03811107C089E193E00E945E0981E005
:102F000080932A03E0912403F0912503309739F44C
:102F10008FE493E090932503809324030AC080817B
:102F20009181009711F0FC01FACF8FE493E0918337
:102F30008083209153033091540380912603909114
:102F40002703820F931F90932703809326031092E9
:102F500046031092450388EE93E0A0E0B0E0809332
:102F6000470390934803A0934903B0934A0382E632
:102F700091E090934403809343030895F999FECF21
:102F800092BD81BDF89A992780B50895262FF999A9
:102F9000FECF1FBA92BD81BD20BD0FB6F894FA9A3C
:102FA000F99A0FBE01960895052E97FB1EF4009422
:102FB0000E94EB1757FD07D00E94061807FC03D0AC
:102FC0004EF40C94EB1750954095309521953F4F5A
:102FD0004F4F5F4F089590958095709561957F4F05
:102FE0008F4F9F4F08950E942818A59F900DB49F62
:102FF000900DA49F800D911D11240895B7FF0C948E
:10300000F3170E94F317821B930B0895A1E21A2E67
:10301000AA1BBB1BFD010DC0AA1FBB1FEE1FFF1F7C
:10302000A217B307E407F50720F0A21BB30BE40BCC
:10303000F50B661F771F881F991F1A9469F7609513
:103040007095809590959B01AC01BD01CF010895CD
:10305000A29FB001B39FC001A39F700D811D1124D9
:10306000911DB29F700D811D1124911D0895DB01EA
:103070008F939F930E94F317BF91AF91A29F800DF2
:10308000911DA39F900DB29F900D11240895EE0FF6
:10309000FF1F0590F491E02D099481E090E0F894F1
:0830A0000C945218F894FFCFC4
:1030A80063000101000000000000000000000000B3
:1030B80000000000000000000000000000320000D6
:1030C8000000000000000000C18081000000FFFF38
:1030D800FFFF00E100000000000000000000810781
:1030E800CC088C08A80700000000FF015F07200239
:1030F800150225026602840200000000B2090000E1
:103108000000590829088908FD0721080D08FE074D
:0A3118004C5300463100463200001F
:00000001FF
