:100000000C9494010C94BC010C94BC010C94BC01A4
:100010000C94BC010C94BC010C94BC010C94BC016C
:100020000C94BC010C94BC010C942C0A0C940B0B8A
:100030000C94BC010C94BC010C94BC010C94BC014C
:100040000C94BC010C94BC010C94BC010C94BC013C
:100050000C94BC010C94BC010C94BC010C943604AF
:100060000C94BC010C94BC010C94BC010C94BC011C
:100070000C94BC010C94BC010C94BC010C94BC010C
:100080000C94BC010C94BC010C94BC010C94BC01FC
:100090000C9440050C94BC010C94BC010C94BC0164
:1000A0000C94BC010C94BC010C94BC01530D560D76
:1000B000450D490D4F0D770D770D770D5A0D5E0DDE
:1000C000620D680D6C0D770D720DB70FBC0FC10F6F
:1000D000CB0FD50F1F101F101F10DF0FE90FF30FED
:1000E000FD0F0A101F101210000000000000000099
:1000F0002A2B280000000000000000000000000083
:1001000000000000000000002C9EB4A0A1A2A434B6
:10011000A6A7A5AE362D3738271E1F20212223245F
:100120002526B333B62EB7B89F8485868788898AFB
:100130008B8C8D8E8F909192939495969798999A97
:100140009B9C9D2F3130A3AD350405060708090A95
:100150000B0C0D0E0F101112131415161718191A77
:100160001B1C1DAFB1B0B500070605040100080A4D
:100170000B0C0D0900000000240027002A002D00B0
:10018000300000000000250028002B002E00310068
:10019000080B000202020100090400000102020033
:1001A00000052400100105240101010424020605B4
:1001B0002406000107058103100040090401000224
:1001C0000A00000007050202400000070583024004
:1001D00000000403090412010002EF020140412360
:1001E000368000010102030141726475696E6F205F
:1001F0004C4C430041726475696E6F204C656F6EA4
:100200006172646F00000000002300260029002CAA
:10021000002F000404040404030405020202020483
:100220000302020202060606060606040402020291
:1002300004040408020110408040102040804080E7
:10024000080204018040201002011080102040406C
:10025000200000000200090F0000030401000C0050
:10026000000000000000000000000000000000008E
:1002700005010902A10185010509190129081500D7
:1002800025019508750181020501093009310938F8
:100290001581257F750895038106C005010906A112
:1002A000018502050719E029E7150025017501956B
:1002B000088102050C95017508150026FF0019003C
:1002C00029FF8100050795067508150026E7001926
:1002D0000029E78100C005010904A101850605097F
:1002E00019012920150025017501952081020501BC
:1002F000A100093009310933093416008026FF7F37
:10030000751095048102093209351580257F75081D
:1003100095028102C00501093909391501250895A1
:100320000275048102C0231911241FBECFEFDAE049
:10033000DEBFCDBF11E0A0E0B1E0E6EAF4E302C029
:1003400005900D92A03CB107D9F723E0A0ECB1E0F5
:1003500001C01D92AE3CB207E1F711E0C4E9D1E063
:1003600004C02197FE010E94461AC339D107C9F77C
:100370000E94B5100C94511A0C940000DC01FB0192
:1003800012968C91129790E0248135818217930701
:10039000D1F491818081813A31F481E0913091F002
:1003A000933089F411C0813271F49B3021F4828141
:1003B0001F968C9305C09A3031F4828150968C93AD
:1003C00081E00895089580E00895DC01FB0188E450
:1003D000808389E4818384E482831D969C911D97A8
:1003E0009F709F5B93831D968D919C911E9724E037
:1003F000969587952A95E1F78F708F5B848385E0CA
:100400000895FC0182818F5BFB01808381E0089568
:10041000FC0134969C01245F3F4F80E090E04081D6
:10042000411101961192E217F307C9F70895FC01F3
:1004300020E2260F2830F0F0DC01169620E030E0B4
:100440008D91442349F0861304C0E20FF31F6683A5
:1004500026C0811107C0F9CF861304C0E20FF31F35
:1004600016821DC02F5F3F4F2630310549F780E0CF
:1004700090E008953481442349F081E090E001C088
:10048000880F2A95EAF7832B848309C041E050E066
:1004900001C0440F2A95EAF740954323448381E045
:1004A00090E00895EF92FF920F931F93CF93DF9305
:1004B000E62FF0E0E038F10540F021E030E0DC012B
:1004C00013963C932E93129722C0D42F7C01E851AF
:1004D000FF4FC491DC01ED91FC916C2F6F77048488
:1004E000F585E02D09958C01C7FF13C0892B11F408
:1004F000D1110DC0D701ED91FC910484F585E02D5B
:100500004D2F61EEC7010995802B912B02C080E031
:1005100090E0DF91CF911F910F91FF90EF900895A0
:10052000FF920F931F93CF93DF93EC01F62E41E0E0
:100530000E9452028C01892BA9F0E881F981028482
:10054000F385E02DCE01099540E06F2DCE010E948C
:100550005202892B39F0E881F9810284F385E02D7C
:10056000CE010995C801DF91CF911F910F91FF90A6
:10057000089585ED8093BC008091BC0084FDFCCF84
:100580001092EB0108954091CE02262F30E0240F07
:10059000311D21323105DCF42091EB012430C9F406
:1005A000FC0180E090E0861758F43091CE02219152
:1005B000DC01A455BD4FA30FB11D2C930196F3CFC1
:1005C0008091CE02680F6093CE0280E0089581E0B2
:1005D000089582E008950895E091C4018091C301D7
:1005E000E81730F4F0E0E457FD4F808190E0089583
:1005F0008FEF9FEF08959091C4018091C3019817E8
:1006000050F4E92FF0E0E457FD4F208130E09F5F88
:100610009093C40102C02FEF3FEFC901089580916C
:10062000C30190E02091C401821B91090895CF92EB
:10063000DF92EF92FF920F931F93CF93DF937C0192
:10064000262F972F8A018091EC01882391F0C62FE5
:10065000D72F6E01C40ED51ECC15DD0571F0699142
:10066000D701ED91FC910190F081E02DC701099532
:10067000F3CF642F822F0E94C302C801DF91CF9174
:100680001F910F91FF90EF90DF90CF900895CF933F
:10069000DF931F92CDB7DEB769832091EC0122234F
:1006A000D1F020910E02203240F021E030E0FC0138
:1006B0003383228380E090E015C08091ED01E82F24
:1006C000F0E0E251FE4F998190838F5F8093ED01BE
:1006D00080930E0205C061E0CE0101960E94C30224
:1006E00081E090E00F90DF91CF910895089580E030
:1006F00090E00895AF92BF92CF92DF92EF92FF9277
:100700000F931F93CF93DF931F92CDB7DEB77C017A
:1007100069836A01590141E050E0BE016F5F7F4F7C
:10072000FC0183810E94490E8C0197FD0BC0F701EB
:100730008381A501B60180640E94490E97FD02C025
:10074000800F911F0F90DF91CF911F910F91FF901C
:10075000EF90DF90CF90BF90AF900895EF92FF920F
:100760000F931F93CF93DF93FB012081213851F525
:100770002381223239F5DC0112962C9130E044813C
:10078000558142175307F1F4EC010B851C85E12CD0
:10079000F12C0115110591F0F80144815581628118
:1007A000738180E80E949E0A8F3FFFEF9F0769F0E8
:1007B000E80EF91ED8010D911C91EBCF81E08F87D7
:1007C000C70105C080E090E002C08FEF9FEFDF918E
:1007D000CF911F910F91FF90EF900895CF93DF93EA
:1007E000CDB7DEB769970FB6F894DEBF0FBECDBFA9
:1007F000FC01DB018C918F5F8C93BE016F5F7F4F9B
:1008000089E1DB011D928A95E9F729E0298384E0DB
:100810008A8391E09D8383E08E832A8721E22B8760
:100820009C879D879F8722E2288B27E02B8B25E0E2
:100830002C8B8E8B20E430E0388F2F8B998F828128
:100840008B8395858685998B8A8B838180688D8B38
:1008500049E150E080E00E949E0A69960FB6F89444
:10086000DEBF0FBECDBFDF91CF9108951F920F92D3
:100870000FB60F9211242F933F938F939F93AF93B3
:10088000BF9380910D0390910E03A0910F03B0913F
:10089000100330910C0323E0230F2D3720F4019631
:1008A000A11DB11D05C026E8230F0296A11DB11D93
:1008B00020930C0380930D0390930E03A0930F03DA
:1008C000B09310038091110390911203A091130330
:1008D000B09114030196A11DB11D80931103909353
:1008E0001203A0931303B0931403BF91AF919F9190
:1008F0008F913F912F910F900FBE0F901F901895E1
:10090000FC01A385B485109719F47487638709C027
:100910008D919C911197009711F0DC01F9CF6D93A7
:100920007C9325853685DB0114968D919C911597D6
:10093000820F931F96878587089580910403811104
:100940006BC081E08093F7028093F8022DEF32E0D4
:100950003093FA022093F9021092FC021092FB02EB
:100960002DE631E03093F4022093F3021092FF025F
:100970001092FE0210920103109200038093020372
:100980008093030381EC8093FD020E94C50AFC0161
:1009900021818091F70290E0820F911D089724F049
:1009A00081E08093040338C0A281B381109729F4B9
:1009B00083EF92E0938382830EC018968D919C9171
:1009C0001997009711F0DC01F8CF83EF92E01996A8
:1009D0009C938E93189780818093F50281818093F8
:1009E000F60290818091F802890F808380E09091D7
:1009F000F7028917A8F6A091F902B091FA02A80FA0
:100A0000B11D9C91A181B0E0AA5ABE4F9C939181E7
:100A10009F5F91838F5FEBCF83EF92E008950F93F9
:100A20001F93CF93DF93EB018A010E949D049801ED
:100A3000AE0161E0DF91CF911F910F910C947A0389
:100A4000CF93DF93EC010E949D04AE014C5F5F4F9A
:100A500028E030E062E0DF91CF910C947A030F93AD
:100A60001F93CF93DF93EB018A010E949D049801AD
:100A7000AE0166E0DF91CF911F910F910C947A0344
:100A80001F920F920FB60F9211242F933F934F9303
:100A90005F936F937F938F939F93AF93BF93EF93E6
:100AA000FF938091B900887F803609F49CC068F577
:100AB000883209F45BC090F4803109F454C038F4F2
:100AC000882309F4F6C0883009F44DC0F6C0883197
:100AD00009F44CC0803209F45DC0EFC0803409F4E1
:100AE00068C048F4803309F455C0883309F0E5C084
:100AF0008093E901D8C0803509F44FC0883509F4E6
:100B00005DC0883409F0D9C0D6C0883909F4C7C09F
:100B1000A8F4883709F467C038F4883609F463C04C
:100B2000803709F460C0C9C0883809F4B8C080397A
:100B300009F45FC0803809F0C0C05BC0803B09F495
:100B400086C038F4803A09F466C0883A09F47FC058
:100B5000B4C0803C09F4A7C0883C09F4A4C0883B19
:100B600009F48AC0AAC08091C60110C09091E80122
:100B70008091E701981770F5E091E80181E08E0F10
:100B80008093E801F0E0E953FE4F80818093BB0041
:100B900085EC86C08093E9018EC0E091E80181E098
:100BA0008E0F8093E8018091BB00F0E0E953FE4F87
:100BB00080839091E8018091E7016EC0E091E801A7
:100BC00081E08E0F8093E8018091BB00F0E0E95353
:100BD000FE4F80838091EA0181116DC081E0809396
:100BE000C50184EA61C083E08093EB011092F202B8
:100BF000CFCF8091F202803208F051C0E091F20232
:100C000081E08E0F8093F2028091BB00F0E0EE5203
:100C1000FD4F8083BDCF85EC8093BC001092EB012B
:100C20008091F202803230F4E091F202F0E0EE5274
:100C3000FD4F10826091F20270E0E091D002F091DD
:100C4000D10282ED92E009951092F20236C084E062
:100C50008093EB011092CF021092CE02E091CC0271
:100C6000F091CD0209958091CE02811105C081E0FD
:100C70008093CE021092AC02E091CF0281E08E0F01
:100C80008093CF02F0E0E455FD4F80818093BB005C
:100C90009091CF028091CE02981708F479CF85E821
:100CA0008093BC000AC085EC8093BC001092EB01DD
:100CB00004C01092E9010E94B902FF91EF91BF9127
:100CC000AF919F918F917F916F915F914F913F91E4
:100CD0002F910F900FBE0F901F901895682F80E1F5
:100CE0000E94780D60E08FE00E94780D61E08FE057
:100CF0000C94780D61E080E10E94A80D61E08FE026
:100D00000E94A80D61E085E00E94A80D61E08DE0E1
:100D10000E94A80D60E08DE00E94780D6AE070E00E
:100D200080E090E00E940F0E61E08DE00E94780D5F
:100D30006AE070E080E090E00E940F0E60E08DE0DD
:100D40000E94A80D60E08DE00C94780D8091150252
:100D5000882321F082E50E94050F03C082E50E94EE
:100D6000240F80911602882321F081E50E94050F4F
:100D700003C081E50E94240F80911702882321F08F
:100D800080E50E94050F03C080E50E94240F80913A
:100D90001802882319F08FE40C94050F8FE40C944B
:100DA000240F8F929F92AF92BF92CF92DF92EF92D9
:100DB000FF920F931F93CF93DF93082F10E09CE0D7
:100DC000899FE0011124C050DF4FC880D980EA809C
:100DD000FB808C809D80AE80BF800E94F90EC80C85
:100DE000D91CEA1CFB1C6C157D058E059F0560F067
:100DF0000E94F90E688379838A839B83F801EF5EF2
:100E0000FD4F80818F5F8083DF91CF911F910F9184
:100E1000FF90EF90DF90CF90BF90AF909F908F901A
:100E20000895CF92DF92EF92FF921F93CF93DF93BB
:100E3000CDB7DEB760970FB6F894DEBF0FBECDBF5B
:100E40008091EB018111FCCF81E08093EB018093D5
:100E5000EA019FEF9093E9011092E8018093E70186
:100E60008093C6018091C60188648093C6018091F9
:100E7000C501813061F41092C5018091C601809353
:100E8000BB008091BC0083FDF8CF85EC01C085EEEE
:100E90008093BC008091EB018130E1F38091E80107
:100EA000823018F48091E80101C082E0A7ECB1E043
:100EB0002CE832E0F9019E2F921B981718F49D91AF
:100EC0009193F9CF1092C4018093C30110E09091E7
:100ED000C3018091C401981729F187E893E00E942B
:100EE000FB02809548E0149FB001112420E030E01F
:100EF00090E0F901E60FF71F41E050E04C0F5D1F55
:100F0000E40FF51FAC01022E02C0559547950A94D7
:100F1000E2F7417040832F5F3F4F2830310549F79A
:100F20001F5FD5CF8B81809315028D818093160230
:100F30008C81809317028E81809318028A8580931A
:100F40001902898580931A028C8580931B028B85F8
:100F500080931C02888580931D028F8180931E02DE
:100F60008A8180931F028981809320028E858093DD
:100F700021028D85809322028F85809323028889A8
:100F80008093240280E090E0C12CD12C7601C394A0
:100F9000FC01EB5EFD4F2081222381F020910F02A6
:100FA000B701A601082E04C0440F551F661F771F06
:100FB0000A94D2F7422B40930F0211C030910F02D6
:100FC000B701A601082E04C0440F551F661F771FE6
:100FD0000A94D2F74095242F232320930F020196E1
:100FE00088309105A9F680E090E0C12CD12C7601E3
:100FF000C394FC01E35EFD4F3081332381F03091D7
:101000001002B701A601082E04C0440F551F661F29
:10101000771F0A94D2F7432B4093100211C03091EE
:101020001002B701A601082E04C0440F551F661F09
:10103000771F0A94D2F74095242F23232093100280
:10104000019688309105A9F680910F0290912502B2
:10105000892B809325028091100290912602892B82
:101060008093260260960FB6F894DEBF0FBECDBF08
:10107000DF91CF911F91FF90EF90DF90CF90089577
:101080000F931F93CF93DF9300E311E0C0E0D0E014
:10109000CE010E94C519F80181938F012196C632B5
:1010A000D105B1F7DF91CF911F910F910895EF9284
:1010B000FF920F931F93CF93DF931F92CDB7DEB7AD
:1010C00000E311E0E12CF12CF80161918F01C701DF
:1010D00069830E94C5196981681719F0C7010E94C8
:1010E000CD19FFEFEF1AFF0A86E2E816F10461F767
:1010F0000F90DF91CF911F910F91FF90EF90089586
:10110000882329F081E08093330160E003C01092CE
:10111000330161E08BE00E94A80D0C9457088823EE
:1011200041F081E08093320160E089E00E94A80DE7
:1011300010C01092320161E089E00E94A80D61E0C8
:1011400089E00E94780D64EF71E080E090E00E94F9
:101150000F0E0C94570890913101813051F49B3E51
:10116000B8F4913E10F4965F0EC08BEE809331017F
:101170000FC0823069F4992359F0292F30E02B30C9
:10118000310524F09A509093310102C01092310140
:101190008091310190E00E94940F0C945708409187
:1011A00023035091240320912103309122034217FD
:1011B0005307B4F49091E8009570E1F39091E80042
:1011C00092FD19C08093F100809123039091240334
:1011D00001968F739927892B19F48EEF8093E8007D
:1011E000809123039091240301969093240380938C
:1011F000230381E0089580E00895CF92DF92EF927B
:10120000FF920F931F93CF93DF931F92CDB7DEB75B
:10121000182F062FE42E862F880F8E5F99830E9449
:10122000CF0883E00E94CF08F12EC12E9981D92EDC
:101230008C2D8F19801798F4F601E7FE02C0849177
:1012400001C080810E94CF08182F80E00E94CF0843
:101250008123FFEFCF1ADF0A8111EACF01C081E0BD
:101260000F90DF91CF911F910F91FF90EF90DF9042
:10127000CF9008952FB7F89487708093E9009091EC
:10128000E800892F807295FF04C09091F20080E4FD
:10129000891B2FBF0895615030F02091F100FC01AF
:1012A00020830196F8CF289884E68093260308953A
:1012B000CF92DF92EF92FF920F931F93CF93DF9322
:1012C0006C017A018B01C0E0D0E0CE15DF0589F01A
:1012D000D8016D918D01D601ED91FC910190F081C5
:1012E000E02DC6010995892B11F47E0102C02196DB
:1012F000ECCFC701DF91CF911F910F91FF90EF903D
:10130000DF90CF900895CF93DF931F92CDB7DEB7D4
:101310006983DC01ED91FC910280F381E02D41E0D5
:1013200050E0BE016F5F7F4F09950F90DF91CF9125
:10133000089583E08093E9008091F200882319F0FA
:101340008AE38093E800089583E00E943A0990E0E0
:101350000895FC018485958597FD0BC09FB7F8948F
:1013600082E08093E9008091F2009FBF90E00196B7
:1013700008959FB7F89482E08093E9008091F2008D
:101380009FBF90E008953FB7F8948091110390912A
:101390001203A0911303B091140326B5A89B05C0B6
:1013A0002F3F19F00196A11DB11D3FBFBA2FA92FE4
:1013B000982F8827820F911DA11DB11DBC01CD0161
:1013C00042E0660F771F881F991F4A95D1F708954D
:1013D0000E944C1ACF93DF931F92CDB7DEB7FC016A
:1013E0008485958597FD05C02FEF3FEF35872487CE
:1013F0000BC0CE0101960E943F10019719F489811C
:1014000090E002C08FEF9FEF0F90DF91CF91089592
:101410000F931F93CF93DF931F92CDB7DEB78C014D
:10142000FC018485958597FF0EC0CE0101960E9430
:101430003F10019719F4298130E002C02FEF3FEFF0
:10144000F80135872487F801848595850F90DF9111
:10145000CF911F910F9108951F920F920FB60F9287
:1014600011248F939F938091E1009091E100937FED
:101470009093E10083FF0FC01092E90091E09093F8
:10148000EB001092EC0092E39093ED001092270392
:1014900098E09093F00082FF20C093E09093E900E1
:1014A0009091F200992319F09AE39093E8009091BB
:1014B0002503992339F090912503915090932503AA
:1014C000992389F190912603992339F0909126036D
:1014D000915090932603992341F184FF10C080918D
:1014E000E2008E7E81608093E2008091E1008F7E39
:1014F0008093E1008091C1018E7E806111C080FFE8
:1015000016C08091E2008E7E80618093E20080911F
:10151000E1008E7E8093E1008091C1018E7E81602A
:101520008093C10104C05D9ACDCF289AD6CF9F91F8
:101530008F910F900FBE0F901F901895DF92EF9232
:10154000FF920F931F93CF93DF93D82E8A017B01D5
:10155000E40EF51EEB01CE15DF0571F0D7FE03C0DA
:10156000FE01849101C088810E94CF0821968111DB
:10157000F2CF8FEF9FEF01C0C801DF91CF911F9194
:101580000F91FF90EF90DF900895809119038111E2
:101590000DC082E08093150384E0809316031092BF
:1015A00018031092170381E08093190385E193E0FB
:1015B00008950F931F93CF93DF931F92CDB7DEB79C
:1015C00082E0898342E450E060E971E080E80E94B3
:1015D0009E0A0E94C50ADC0112960D911C91139778
:1015E0000115110569F0D801ED91FC910280F3819C
:1015F000E02DBE016F5F7F4FC801099597FF07C0BF
:1016000089810F90DF91CF911F910F910895F8017B
:1016100000851185E5CF1F920F920FB60F9211240E
:10162000CF92DF92EF92FF920F931F932F933F93EE
:101630004F935F936F937F938F939F93AF93BF93DA
:10164000EF93FF93CF93DF93CDB7DEB76C97DEBFF9
:10165000CDBF1092E9008091E80083FFEDC168E002
:10166000CE0145960E944B0982EF8093E8008D8958
:1016700087FF05C09091E80090FFFCCF03C09EEF6C
:101680009093E800982F907609F0C6C09E892F8924
:10169000188D91110CC0803829F48091C20180937B
:1016A000F10002C01092F1001092F10048C1422FE7
:1016B00050E0512B913051F4811141C1413051051D
:1016C00009F03DC18091C2018D7F0BC0933061F460
:1016D000811135C14130510509F031C18091C201FC
:1016E00082608093C2012BC1953041F48091E80063
:1016F00080FFFCCF20682093E30021C1963009F0E1
:101700005FC0EB8CFC8C1092E900109224031092C5
:101710002303123091F510922203109221030E94AC
:10172000D90A99E0BE016F5F7F4FDB01E92F1D925F
:10173000EA95E9F799831A8391E09E8390EA988766
:101740009AEF99872091230330912403275F3F4F1D
:101750003C832B838D831092E90010922403109216
:101760002303F0922203E092210349E050E080E05D
:101770000E949E0A0E94D90AE2C0F0922203E092DF
:1017800021030E94C50ADC011296ED90FC9013978C
:10179000E114F10409F4C0C0D701ED91FC9104807B
:1017A000F581E02DBE016B5E7F4FC7010995009763
:1017B00019F00CF0C4C0C7C0F701E084F184E8CF91
:1017C000973009F4C0C0983021F481E08093F10093
:1017D000B6C0993009F0B3C0837009F0B4C0E7E532
:1017E000F1E081E021E036E39081992361F080937C
:1017F000E9002093EB0091919093EC003093ED0081
:101800008F5F873089F78EE78093EA001092EA00B5
:101810008F898093270393C08B8D9C8D1092E90054
:1018200010922403109223039093220380932103A8
:10183000898D811156C08E899D89913A59F48132E2
:1018400009F081C047E050E061E671E080E00E946D
:101850009E0A75C0913209F076C0833289F4888D72
:1018600090E0982F88272F89822BA0E0B0E080930A
:101870005D0190935E01A0935F01B09360015FC032
:10188000803269F48091E80082FFFCCF67E081E656
:1018900091E00E944B098BEF8093E80006C08232F2
:1018A00009F04DC08F89809368018091C001882321
:1018B00019F0EEEFFAE002C0E0E0F8E0809161019B
:1018C00090916201A0916301B0916401803B9440CA
:1018D000A105B10509F07BC08091680180FF93C02C
:1018E00076C00E94C50ADC0112960D911C911397D7
:1018F0000115110541F1D801ED91FC910190F081A4
:10190000E02DBE016B5E7F4FC8010995811117C0A4
:10191000F80100851185ECCF113009F44EC0133069
:1019200091F48F89882309F445C0823081F440E81E
:1019300060E184EF91E00E94FD08882321F08EEFA2
:101940008093E80079C081E28093EB0075C081301C
:1019500029F440E86BE088EE91E0EDCF833099F711
:101960000E94C50ADC011296ED90FC9013978E013F
:101970000F5F1F4F6801E114F10479F0D701ED9179
:10198000FC910680F781E02DB801C7010995080F89
:10199000111DF701E084F184EECFD8011C92F6010D
:1019A00001900020E9F73197BF016C197D0940E0F3
:1019B000C601C1CF62ED71E002C066ED71E0611554
:1019C000710509F2FB01449150E080E840CF0FB669
:1019D000F894A895809160008861809360001092CF
:1019E00060000FBEA895EE3F2AE0F20739F0809123
:1019F000FE0A9091FF0A91838083A1CF1092FF0A83
:101A00001092FE0A9CCFEE3F8AE0F80731F0808109
:101A100091819093FF0A8093FE0A87E797E791836D
:101A200080839BE088E10FB6F894A89580936000CE
:101A30000FBE9093600083CF6C960FB6F894DEBF14
:101A40000FBECDBFDF91CF91FF91EF91BF91AF91CD
:101A50009F918F917F916F915F914F913F912F91C6
:101A60001F910F91FF90EF90DF90CF900F900FBEDE
:101A70000F901F90189590E0FC013197EF30F10521
:101A8000B0F5EA5AFF4F0C94461A809180008F7788
:101A900003C0809180008F7D8093800008958091A5
:101AA0008000877FF9CF84B58F7702C084B58F7DA2
:101AB00084BD0895809190008F7707C08091900039
:101AC0008F7D03C080919000877F80939000089560
:101AD0008091C0008F7703C08091C0008F7D80937C
:101AE000C00008958091C200877F8093C20008954E
:101AF0001F93CF93DF93282F30E0F901EF5AFD4F6A
:101B00008491F901EE5CFD4FD491F901ED5EFD4F3A
:101B1000C491CC23C9F0162F81110E943B0DEC2FEC
:101B2000F0E0EE0FFF1FEE57FE4FA591B4918FB777
:101B3000F894111105C09C91ED2FE095E92302C0A6
:101B4000EC91ED2BEC938FBFDF91CF911F91089516
:101B5000CF93DF9390E0FC01EE5CFD4F2491FC01FC
:101B6000ED5EFD4F8491882361F190E0880F991F0D
:101B7000FC01EC58FE4FC591D491FC01EE57FE4F8D
:101B8000A591B491611109C09FB7F89488812095FF
:101B900082238883EC912E230BC0623061F49FB7BF
:101BA000F8943881822F809583238883EC912E2BA3
:101BB0002C939FBF06C08FB7F894E8812E2B288303
:101BC0008FBFDF91CF910895823108F08251E82FC5
:101BD000F0E0E859FE4FE49180917B00E3FB22277F
:101BE00020F930E095E0220F331F9A95E1F78F7DC1
:101BF000282B20937B00E770E064E0937C008091C9
:101C00007A00806480937A0080917A0086FDFCCF10
:101C1000809178002091790090E0922B08958F9226
:101C20009F92AF92BF92CF92DF92EF92FF926B01A1
:101C30007C010E94C3094B015C01C114D104E10481
:101C4000F104F1F00E94C309DC01CB018819990964
:101C5000AA09BB09883E9340A105B10570F321E0B4
:101C6000C21AD108E108F10888EE880E83E0981EB8
:101C7000A11CB11CC114D104E104F10419F7DDCF9A
:101C8000FF90EF90DF90CF90BF90AF909F908F909C
:101C900008957F928F929F92AF92BF92CF92DF92E0
:101CA000EF92FF920F931F93CF93DF93C82E8B0178
:101CB0007A0180912703811103C08FEF9FEF75C0D8
:101CC0008091C10180FF05C08091E0008260809317
:101CD000E000CE2DDF2DD12C8AEF882E8C2D877041
:101CE000B82E8C2D8072A82E8C2D8074982E9AE39D
:101CF000792E209709F452C08C2D0E943A09282F82
:101D000081110AC08A948820C1F261E070E080E00D
:101D100090E00E940F0EEDCF90E0C817D9070CF4A9
:101D20002C2F3FB7F894B092E9008091E80085FF2E
:101D300033C0822F90E0C81BD90BAA2029F0215074
:101D4000A8F01092F100FBCFF801C7FE07C02150A8
:101D500058F044914093F1003196F9CF215020F092
:101D600041914093F100FACF080F191FDD2019F0BF
:101D70007092E8000AC08091E80085FD08C070926A
:101D8000E800DD24D394209739F0D12C05C02097AA
:101D900019F491107092E8003FBFABCFD110ACCFD7
:101DA0005D9884E680932503C701DF91CF911F9151
:101DB0000F91FF90EF90DF90CF90BF90AF909F90EA
:101DC0008F907F900895CF93DF93EC01809168010D
:101DD000882331F083E00E94490E1816190634F06A
:101DE00081E090E09B838A8380E090E0DF91CF9157
:101DF00008952FB7F89460910D0370910E038091B0
:101E00000F03909110032FBF0895CF93DF93E091BC
:101E10007B03F0917C030484F585E02D41E0682F7D
:101E20008BE793E00995EC01892B51F0E0917B035E
:101E3000F0917C030284F385E02D8BE793E0099514
:101E4000CE01DF91CF910895CF93DF93E0917B0393
:101E5000F0917C030484F585E02D40E0682F8BE74A
:101E600093E00995EC01892B51F0E0917B03F0910F
:101E70007C030284F385E02D8BE793E00995CE0186
:101E8000DF91CF910895CF93DF93E9E5F2E084915C
:101E9000EAE3F2E0D491EBE1F2E0C491CC2391F0DB
:101EA00081110E943B0DEC2FF0E0EE0FFF1FEB5F66
:101EB000FD4FA591B491EC91ED2381E090E021F4E8
:101EC00080E002C080E090E0DF91CF910895CF9351
:101ED000DF9300D000D0CDB7DEB7E8E7F3E0928122
:101EE00099838A836B831C820190F081E02D01909D
:101EF000F081E02D44E050E0BE016F5F7F4F88E746
:101F000093E009950F900F900F900F90DF91CF9174
:101F1000089590917A03891731F080937A0360E0F5
:101F200080E00C94670F0895CF93DF93EC0161E09C
:101F30008AE00E94A80D209711F460E004C0CF3F12
:101F4000D10531F461E08AE0DF91CF910C94780DF6
:101F5000EBE5F2E0E4918E2F90E0FC013197EF3059
:101F6000F10508F06CC0EB59FF4F0C94461A84B58C
:101F7000806884BDC7BD68C084B5806284BDC8BDAB
:101F800063C080918000806880938000D093890036
:101F9000C093880059C08091800080628093800047
:101FA000D0938B00C0938A004FC0809180008860DE
:101FB00080938000D0938D00C0938C0045C08091A9
:101FC0009000806880939000D0939900C09398000F
:101FD0003BC080919000806280939000D0939B00E2
:101FE000C0939A0031C080919000886080939000E7
:101FF000D0939D00C0939C0027C08091C000806852
:102000008093C0008091C0008F7B8093C000C093FC
:10201000CF001AC08091C00080628093C000C0933E
:10202000D00012C08091C20088608093C20080916D
:10203000C2008B7F8093C200C093D20005C0C0381D
:10204000D1050CF07FCF79CFDF91CF910895BC01FE
:10205000009791F0FC0101900020E9F73197AF0162
:10206000481B590BE0912803F09129030280F3816A
:10207000E02D88E293E0099480E090E00895FC016F
:1020800080912703811103C08FEF9FEF08959FB7C1
:10209000F89482E08093E9002091F20030E012167B
:1020A000130614F421E030E02115310559F0289889
:1020B00084E6809326038091F10080838091F20072
:1020C000882319F09FBFC90108958BE68093E8002B
:1020D000F9CF8F929F92AF92BF920F931F93CF939E
:1020E000DF93CDB7DEB7A1970FB6F894DEBF0FBE72
:1020F000CDBF19A2423008F44AE08E010F5D1F4F98
:10210000842E912CA12CB12CA50194010E94051ABA
:10211000E62FB901CA0101501109EA3014F4E05D5B
:1021200001C0E95CD801EC93232B242B252B61F70C
:10213000C8010E942710A1960FB6F894DEBF0FBE0B
:10214000CDBFDF91CF911F910F91BF90AF909F9026
:102150008F900895E0912803F09129030190F08178
:10216000E02D682F88E293E00994CF93DF9300D0AD
:1021700000D000D0CDB7DEB7789484B5826084BD3E
:1021800084B5816084BD85B5826085BD85B581607B
:1021900085BD80916E00816080936E0010928100F9
:1021A00080918100826080938100809181008160B4
:1021B0008093810080918000816080938000809175
:1021C0009100826080939100809191008160809362
:1021D0009100809190008160809390008091C10077
:1021E00084608093C1008091C10082608093C100AF
:1021F0008091C10081608093C1008091C3008160A3
:102200008093C3008091C00082608093C000809161
:10221000C20081608093C20080917A0084608093C4
:102220007A0080917A00826080937A0080917A00AF
:10223000816080937A0080917A00806880937A0030
:10224000109227031092C2011092C1018091D70011
:1022500081608093D70080EA8093D80089B580613F
:1022600089BD89B5826089BD09B400FEFDCF61E0FA
:1022700070E080E090E00E940F0E8091D8008F7C8B
:1022800080618093D8008091E000807F8093E0009F
:102290008091E1008E7E8093E1008DE08093E200EA
:1022A000559A209AEEEFFFE7859194918B3F9C4DD4
:1022B00019F481E08093C00168EE73E080E090E063
:1022C0000E940F0E8FEF9FEF90933503809334039E
:1022D00061E086E00E94A80D14E061E086E00E94C3
:1022E000780D62E370E080E090E00E940F0E60E005
:1022F00086E00E94780D62E370E080E090E00E944A
:102300000F0E115051F761E08AE00E94A80D61E0C4
:1023100080E10E94A80D61E08FE00E94A80D61E0BD
:1023200085E00E94A80D61E08DE00E94A80D60E0AC
:1023300080E10E94780D60E08FE00E94780D60E0FF
:1023400085E00E94780D60E08DE00E94780D64E6E3
:1023500070E080E090E00E940F0E0E947A0660E03C
:1023600087E10E94A80D60E08DE10E94A80D60E069
:1023700088E10E94A80D60E085E10E94A80D60E060
:1023800084E10E94A80D1092320180E090E00E944A
:10239000C519833611F00E9457080E9440088091A9
:1023A00031010E94AB0881E090913201911101C08E
:1023B00080E00E948F0881E090913301911101C06B
:1023C00080E00E94800880913401882321F081E020
:1023D0008093340102C0109234010E945708109279
:1023E000C4011092C3011092ED0110920E021092DE
:1023F000EB0111E01093EA011092C50161E082E067
:102400000E94780D61E083E00E94780D8091B90010
:102410008E7F8093B9008091B9008D7F8093B90041
:1024200088E48093B80085E48093BC001093EC01AD
:1024300084E2809327021092ED0110920E0260E078
:1024400087E893E00E94470380910E02813208F0F2
:1024500045C09091EB019111FCCF92E09093EB017C
:1024600091E09093EA019FEF9093E9011092E801C7
:102470008093E701AEEEB1E027EC31E0F9019E2F49
:10248000921B981718F49D919193F9CF1092C60161
:102490008091C60188648093C6018091C501813016
:1024A00061F41092C5018091C6018093BB008091B8
:1024B000BC0083FDF8CF85EC01C085EE8093BC00A5
:1024C0008091EB018230E1F38091E9018F3F31F09F
:1024D0008091E901803211F08091E9011092ED01C3
:1024E00010920E021092EC010E94110780911D02C1
:1024F000882309F497C08DE10E94E40D8C014C0102
:1025000088E10E94E40D9A8389831C010E94F90EE0
:102510002B013C01E980FA8068010E94F90EDC0180
:10252000CB0184199509A609B70980319742A10505
:10253000B10508F04AC061E086E00E94780D8DE1A7
:102540000E94E40D5C0161E070E080E090E00E9498
:102550000F0E88E10E94E40D48018C0C9D1C97FE33
:1025600003C03FEF831A930A9594879429813A8197
:102570002E0D3F1D37FF02C02F5F3F4F19013594CD
:102580002794A016B10608F4850149815A81841761
:10259000950710F49A838983CA14DB0408F4650153
:1025A000E816F90608F47C0164E670E080E090E04B
:1025B0000E940F0E60E086E00E94780D64E670E0F5
:1025C00080E090E00E940F0EA8CFC818D908E2184A
:1025D000F3080819190910933A0100933901898108
:1025E0009A818219930990933C0180933B01D09288
:1025F0003E01C0923D01F0924001E0923F01909275
:10260000360180923501309238012092370181E005
:1026100080934F0182E390E090934E0180934D01AF
:102620000E94570810927A0360E080E00E94670FD2
:10263000E0917B03F0917C030084F185E02D8BE732
:1026400093E00995E0917B03F0917C030284F3858C
:10265000E02D8BE793E0099530E0232E30E0332E18
:1026600011E003E088E293E00E94A9091816190618
:102670000CF001C188E293E00E94EA09813609F476
:102680007BC004F5893409F44CC04CF4823409F45D
:102690008FC08334F1F1813409F0EAC076C0863509
:1026A00099F1873509F455C08C3409F0E1C064E133
:1026B00070E080E090E00E940F0E1092690210928C
:1026C0006802B1C08D3609F4A0C08CF4893631F1AE
:1026D0008C3609F4C9C0823609F0CAC060910F0275
:1026E00088E293E00E948309609110028FC08337D3
:1026F00009F47BC0873751F1823709F0B9C01092D5
:10270000250210922602B2C0609176027091770283
:1027100036C0609174027091750231C060913401CD
:102720002DC088E293E00E94A909019709F0A0C09A
:1027300088E293E00E94EA09813319F4109334018E
:1027400002C0109234010E94570890C0609132017B
:1027500015C088E293E00E94A909019709F088C09A
:1027600088E293E00E94EA09813311F481E001C01C
:1027700080E00E948F087AC06091330170E080E0B1
:1027800090E04AE00E94691076C088E293E00E94DF
:10279000A909019709F06CC088E293E00E94EA0958
:1027A000813311F481E001C080E00E9480085EC0A6
:1027B0006091250288E293E00E94830960912602DD
:1027C00088E293E00E94830910922502109226026B
:1027D0000E94F90E609382027093830280938402B8
:1027E000909385021093860246C060917D0280918D
:1027F00032018111626080913301811164608091A6
:102800003401882319F0686001C061E288E293E036
:102810000E94830930C088E293E00E94EA09813275
:1028200051F41093680288E293E00E94A9091816F7
:1028300019068CF30BC090916902E92FF0E0E85D76
:10284000FD4F80839F5F90936902EDCF8091680276
:10285000882339F0C0906902C0FEA4C48DEB91E0DA
:102860009EC48AEB91E09BC40E947A0681E301C07A
:102870008FE30E94AA100E94F90EC0908702D090A8
:102880008802E0908902F0908A02DC01CB018C1969
:102890009D09AE09BF094197A105B10508F4D6C34A
:1028A00061E086E00E94780D0E9411078091860207
:1028B000811162C380917D0281115AC280915501BC
:1028C000882359F0813061F0823069F0833071F0F3
:1028D000843079F48FE049E10EC085E04DE70BC00C
:1028E00088E044E608C08AE04BE405C08CE042E39F
:1028F00002C080E040E050E060E070E040930401FE
:1029000050930501609306017093070190E0A0E0E9
:10291000B0E08093080190930901A0930A01B0935D
:102920000B014093100150931101609312017093B9
:1029300013018093140190931501A0931601B09395
:10294000170140931C0150931D0160931E01709369
:102950001F018093200190932101A0932201B09345
:102960002301409328015093290160932A01709319
:102970002B0180932C0190932D01A0932E01B093F5
:102980002F01809151018111ADC0809121028823D6
:1029900009F441C00E94A60680911902882321F003
:1029A00088E20E94050F03C088E20E94240F8091F4
:1029B0001A02882321F089E20E94050F03C089E2F0
:1029C0000E94240F80911B02882321F087E30E943C
:1029D000050F03C087E30E94240F80911C02882307
:1029E00021F08CE20E94050F03C08CE20E94240FAC
:1029F00080911D02882321F080EE0E94050F03C004
:102A000080EE0E94240F80911E02882311F081EE37
:102A10006DC181EE6FC180911502882351F080E075
:102A20000E94D10660911102619580E00E94670FBB
:102A300002C01092110280911602882349F081E0B1
:102A40000E94D1066091120280E00E94670F02C0CE
:102A50001092120280911702882351F082E00E94A6
:102A6000D1068091130260E081950E94670F02C039
:102A70001092130280911802882349F083E00E948B
:102A8000D10660E0809114020E94670F02C010928C
:102A900014029091190280917A03992311F08260B7
:102AA00001C08D7F0E94890F90911A0280917A0354
:102AB000992311F0816001C08E7F0E94890F80915F
:102AC0001B02882321F087E30E94050F03C087E3E0
:102AD0000E94240F80911C02882311F089E2F8C023
:102AE00089E23FC1813009F05EC280914F018823A5
:102AF00009F423C18DE10E94E40D7C0188E10E946C
:102B0000E40D2091350130913601D701A21BB30BA2
:102B10009D014091370150913801BC01641B750B38
:102B200040914D0150914E014A175B070CF0E5C0F2
:102B3000241B350B461757070CF0ECC0FB01E41BB8
:102B4000F50BFE83ED83C0900801D0900901E09061
:102B50000A01F0900B01460157019924AA24BB24D5
:102B6000D12CD194C194D1080D2C000CEE08FF0893
:102B70004090390150903A0192E3490E511C052CC6
:102B8000000C66087708C901330FAA0BBB0B9C0128
:102B9000AD012419350946095709C501B4016C195D
:102BA0007D098E099F090E94361A20913D013091BE
:102BB0003E0122533109032E000C440B550B2419FE
:102BC0003509460957090E94DB19DA01C9018C0D44
:102BD0009D1DAE1DBF1D89839A83AB83BC8340902E
:102BE0003B0150903C0192E3490E511C052C000C16
:102BF00066087708ED81FE81CF01FF0FAA0BBB0BA2
:102C00009C01AD012419350946095709C701B601D0
:102C1000681979098A099B090E94361A20913F0197
:102C200030914001225331096901330FEE08FF084A
:102C3000A701960124193509460957090E94DB1995
:102C4000820E931EA41EB51E80915201811172C086
:102C50008981682D90915301911181959091540132
:102C6000911161950E94670F0E94A60690911F0224
:102C700080917A03992309F463C081600E94890FCF
:102C80009091210280917A03992309F45BC08260BC
:102C90000E94890F80911902882309F455C088E2A7
:102CA0000E94050F80911A02882309F451C089E21D
:102CB0000E94050F80911B02882309F44DC087E311
:102CC0000E94050F80911B02882309F449C080E10E
:102CD0000E94050F80911D02811146C08CE20E9466
:102CE000240F80911E02882321F08EE30E94050F9D
:102CF0005AC18EE30E94240F56C188279927841B4E
:102D0000950BA817B9071CF4240F351F13CF20E02B
:102D100030E010CF88279927841B950B6817790717
:102D200034F4CB01840F951F9E838D830CCF1E82BC
:102D30001D8209CF882D69818DCF60E080E092CF20
:102D40008E7F9CCF8D7FA4CF88E20E94240FAACFD4
:102D500089E20E94240FAECF87E30E94240FB2CFF6
:102D600080E10E94240FB6CF8CE20E94050FB9CFFC
:102D700080917D02882309F416C180911F02882367
:102D800009F443C08091700290917102A091720287
:102D9000B0917302892B8A2B8B2B51F40E94F90E70
:102DA0006093700270937102809372029093730229
:102DB0000E94F90EC0907002D0907102E0907202F1
:102DC000F0907302DC01CB018C199D09AE09BF099B
:102DD0008838F3E19F07A105B10528F410936F022D
:102DE0008BE490E00FC080319742A105B10530F42B
:102DF00082E080936F0286E990E004C000936F0246
:102E000081EE90E00E94940F3EC080916F0281306D
:102E100049F4809155018F5F853009F00EC2109200
:102E2000550116C0823039F48091530131E0832777
:102E3000809353010DC0833049F4809151018F5F1D
:102E4000823009F0FDC11092510102C0882389F03F
:102E50000E9457088FEF90E00E94940F64EF71E09A
:102E600080E090E00E940F0E8091310190E00E947E
:102E7000940F1092700210927102109272021092CE
:102E8000730210926F0280912102882309F443C0DB
:102E900080916B0290916C02A0916D02B0916E02D4
:102EA000892B8A2B8B2B51F40E94F90E60936B02B5
:102EB00070936C0280936D0290936E020E94F90EE3
:102EC000C0906B02D0906C02E0906D02F0906E02A8
:102ED000DC01CB018C199D09AE09BF09883843E19B
:102EE0009407A105B10528F410936A028BE490E0E1
:102EF0000FC080319742A105B10530F482E0809384
:102F00006A0286E990E004C000936A0281EE90E0D4
:102F10000E94940F48C080916A02813031F49091F0
:102F200052018927809352010BC0823039F480917D
:102F3000540191E089278093540102C0882389F0CD
:102F40000E9457088FEF90E00E94940F64EF71E0A9
:102F500080E090E00E940F0E8091310190E00E948D
:102F6000940F10926B0210926C0210926D021092EC
:102F70006E0210926A0217C00E94F90EC09082027F
:102F8000D0908302E0908402F0908502DC01CB01B6
:102F90008C199D09AE09BF09893E9340A105B10571
:102FA00010F01092860280917D02882309F440C0BF
:102FB00080911502882319F082E00E94AB0880916D
:102FC0001602882319F081E00E94AB088091190253
:102FD000882319F081E00E948F0880911A028823CB
:102FE00019F080E00E948F0880911C02882319F05C
:102FF00081E00E94800880911B02882319F080E004
:103000000E94800880911D02882321F010933401D2
:103010000E94570880911E02882321F010923401EB
:103020000E94570868EC70E080E090E00E940F0E6C
:1030300060E086E00E94780D0E94F90E609387029E
:10304000709388028093890290938A020E94F90EFD
:10305000C0907E02D0907F02E0908002F0908102CA
:10306000DC01CB018C199D09AE09BF09893C910592
:10307000A105B10500F187E10E94E40D059738F440
:103080000E94430F892B19F010937D0202C0109209
:103090007D0280917D02882321F0109225021092FA
:1030A00026020E94F90E60937E0270937F02809345
:1030B0008002909381020E94F90EC0907902D09014
:1030C0007A02E0907B02F0907C02DC01CB018C194B
:1030D0009D09AE09BF09893E9340A105B105D0F114
:1030E00061E070E080E090E00E940F0E84E10E94B9
:1030F000E40D909377028093760261E070E080E0C7
:1031000090E00E940F0E85E10E94E40D90937502FD
:103110008093740261E070E080E090E00E940F0E06
:103120000E94430F20917802892B39F0211108C0A9
:10313000109378020E947A0603C02111109278023F
:103140000E94F90E6093790270937A0280937B0259
:1031500090937C022114310409F484CA0E94000077
:1031600081CAD0FC2DC0D3949FEFE91AF90ADC1074
:10317000F8CF61E085E00E94780D60E085E00E9474
:10318000A80D60E085E00E94780D60E08FE00E946D
:10319000780D60E080E10E94780D87EB91E00E945D
:1031A000271069CB61E085E00E94A80D60E085E012
:1031B0000E94780D88E2E82E82E0F82ED12CD7CF3D
:1031C000D7019C91F701319780818A3314F48053A1
:1031D00001C087538295807F9A3314F4905301C0C5
:1031E0009753890F882E912C81E0D81213C080E06C
:1031F0000E946E0628E0B22EBA94C4010B2C02C0C5
:10320000959587950A94E2F781700E946E06B11039
:10321000F3CFA9CF81E00E946E0698E0B92EBA9450
:10322000C4010B2C02C0959587950A94E2F7817032
:103230000E946E06B110F3CF96CF8093550108CE51
:103240008093510105CE10922B0310922A0388EE31
:1032500093E0A0E0B0E080932C0390932D03A09323
:103260002E03B0932F0389E791E090932903809375
:1032700028038FEF9FEF90933503809334031092D0
:103280007A038BE891E0909379038093780380919F
:103290009903811113C0109294031092930380E755
:1032A00092E090939603809395038BE290E0909345
:1032B00098038093970381E0809399030E949D0473
:1032C00063E973E00E94800410927E0310927D03F4
:1032D00081E991E090937C0380937B038091A70325
:1032E000811113C01092A2031092A1038BE992E006
:1032F0009093A4038093A3038BE390E09093A603A1
:103300008093A50381E08093A7030E949D0461EA56
:1033100073E00E94800483EA91E09093BE0380935F
:10332000BD038091B503811113C01092B0031092B8
:10333000AF0386ED92E09093B2038093B10380E5F2
:1033400090E09093B4038093B30381E08093B5033E
:103350000E949D046FEA73E00E94800410928A0329
:103360001092890388EE93E0A0E0B0E080938B0395
:1033700090938C03A0938D03B0938E0389EA91E020
:1033800090938803809387030895F999FECF92BDA7
:1033900081BDF89A992780B50895262FF999FECF17
:1033A0001FBA92BD81BD20BD0FB6F894FA9AF99A62
:1033B0000FBE01960895052E97FB1EF400940E94FF
:1033C000F21957FD07D00E94051A07FC03D04EF4EE
:1033D0000C94F21950954095309521953F4F4F4FE1
:1033E0005F4F089590958095709561957F4F8F4FB1
:1033F0009F4F08950E94271AA59F900DB49F900D8E
:10340000A49F800D911D11240895A1E21A2EAA1BDC
:10341000BB1BFD010DC0AA1FBB1FEE1FFF1FA21784
:10342000B307E407F50720F0A21BB30BE40BF50B81
:10343000661F771F881F991F1A9469F7609570950A
:10344000809590959B01AC01BD01CF010895A29F8D
:10345000B001B39FC001A39F700D811D1124911D68
:10346000B29F700D811D1124911D0895DB018F9372
:103470009F930E94FA19BF91AF91A29F800D911D59
:10348000A39F900DB29F900D11240895EE0FFF1F82
:103490000590F491E02D099481E090E0F8940C946B
:0634A000511AF894FFCF61
:1034A60000000000640000000A00000000000000A8
:1034B600640000000A000000000000006400000034
:1034C6000A00000000000000640000000A0000007E
:1034D6006300010100000000000000000000000081
:1034E60000000000000000000000000000320000A4
:1034F60000000000000000C18081000000FFFFFF07
:10350600FF00E100000000000000000000BE01EE28
:1035160003AE03E501000000008309E30EA4099948
:1035260009A909EA09080A000000000F05000000C1
:103536000090025809770376030802200517020057
:103546000000002F0500000000470317037703EB78
:10355600020F03FB02EC024C5300463100463200D8
:00000001FF
