:100000000C941A010C9442010C9442010C9442018C
:100010000C9442010C9442010C9442010C94420154
:100020000C9442010C9442010C949A090C94790AA4
:100030000C9442010C9442010C9442010C94420134
:100040000C9442010C9442010C9442010C94420124
:100050000C9442010C9442010C9442010C94E30272
:100060000C9442010C9442010C9442010C94420104
:100070000C9442010C9442010C9442010C944201F4
:100080000C9442010C9442010C9442010C944201E4
:100090000C94B3030C9442010C9442010C94420161
:1000A0000C9442010C9442010C944201D40CD70CE4
:1000B000C60CCA0CCE0CF80CF80CF80CDB0CDF0CE0
:1000C000E30CE90CED0CF80CF30C8C0E910E960E73
:1000D000A00EAA0EF40EF40EF40EB40EBE0EC80E50
:1000E000D20EDF0EF40EE70E070605040100080A23
:1000F0000B0C0D0900000000240027002A002D0031
:10010000300000000000250028002B002E003100E8
:1001100004040404040304050202020204030202AC
:10012000020206060606060604040202020404048D
:1001300008020110408040102040804080080204E6
:100140000180402010020110801020404020080B48
:100150000002020201000904000001020200000581
:1001600024001001052401010104240206052406CF
:1001700000010705810310004009040100020A0084
:10018000000007050202400000070583024000004E
:100190000403090412010002EF02014041233680EA
:1001A00000010102030141726475696E6F204C4CBD
:1001B000430041726475696E6F204C656F6E6172A9
:1001C000646F000000000200090F0000030401003A
:1001D0000C00000000000000000000000000000013
:1001E000000005010904A10185060509190129205E
:1001F000150025017501952081020501A100093036
:1002000009310933093416008026FF7F75109504E3
:100210008102093209351580257F75089502810212
:10022000C0050109390939150125089502750481B0
:1002300002C0491811241FBECFEFDAE0DEBFCDBFE8
:1002400011E0A0E0B1E0EEEBF2E302C005900D9208
:10025000AA37B107D9F723E0AAE7B1E001C01D92A0
:10026000AD35B207E1F711E0CAE1D1E004C0219752
:10027000FE010E945219C931D107C9F70E94980F97
:100280000C945D190C940000DC01FB0112968C911A
:10029000129790E02481358182179307D1F49181E0
:1002A0008081813A31F481E0913091F0933089F48A
:1002B00011C0813271F49B3021F482811F968C939E
:1002C00005C09A3031F4828150968C9381E0089574
:1002D000089580E00895DC01FB0188E4808389E4CF
:1002E000818384E482831D969C911D979F709F5B00
:1002F00093831D968D919C911E9724E096958795EA
:100300002A95E1F78F708F5B848385E00895FC0167
:1003100082818F5BFB01808381E0089585ED80936E
:10032000BC008091BC0084FDFCCF1092A501089513
:1003300040918802262F30E0240F311D21323105F3
:10034000DCF42091A5012430C9F4FC0180E090E0A8
:10035000861758F4309188022191DC01AA59BD4FCB
:10036000A30FB11D2C930196F3CF80918802680FE3
:100370006093880280E0089581E0089582E0089506
:100380000895E0917E0180917D01E81730F4F0E05E
:10039000EA5BFD4F808190E008958FEF9FEF089515
:1003A00090917E0180917D01981750F4E92FF0E043
:1003B000EA5BFD4F208130E09F5F90937E0102C099
:1003C0002FEF3FEFC901089580917D0190E02091CA
:1003D0007E01821B91090895CF92DF92EF92FF92E6
:1003E0000F931F93CF93DF937C01262F972F8A01C2
:1003F0008091A601882391F0C62FD72F6E01C40EDD
:10040000D51ECC15DD0571F06991D701ED91FC91F8
:100410000190F081E02DC7010995F3CF642F822F61
:100420000E949801C801DF91CF911F910F91FF9019
:10043000EF90DF90CF900895CF93DF931F92CDB7C9
:10044000DEB769832091A6012223D1F02091C80153
:10045000203240F021E030E0FC013383228380E051
:1004600090E015C08091A701E82FF0E0E855FE4F1D
:10047000998190838F5F8093A7018093C80105C005
:1004800061E0CE0101960E94980181E090E00F901A
:10049000DF91CF910895089580E090E00895EF9264
:1004A000FF920F931F93CF93DF93FB01208121389D
:1004B00051F52381223239F5DC0112962C9130E07E
:1004C0004481558142175307F1F4EC010B851C85DB
:1004D000E12CF12C0115110591F0F80144815581B1
:1004E0006281738180E80E940C0A8F3FFFEF9F07B3
:1004F00069F0E80EF91ED8010D911C91EBCF81E057
:100500008F87C70105C080E090E002C08FEF9FEFAA
:10051000DF91CF911F910F91FF90EF900895CF93AE
:10052000DF93CDB7DEB769970FB6F894DEBF0FBE85
:10053000CDBFFC01DB018C918F5F8C93BE016F5F9F
:100540007F4F89E1DB011D928A95E9F729E0298334
:1005500084E08A8391E09D8383E08E832A8721E271
:100560002B879C879D879F8722E2288B27E02B8BF8
:1005700025E02C8B8E8B20E430E0388F2F8B998FE9
:1005800082818B8395858685998B8A8B8381806810
:100590008D8B49E150E080E00E940C0A69960FB60D
:1005A000F894DEBF0FBECDBFDF91CF910895682FC5
:1005B00080E10E94A90C60E08FE00E94A90C61E03C
:1005C0008FE00C94A90C1F920F920FB60F9211247A
:1005D0002F933F938F939F93AF93BF938091AE02DE
:1005E0009091AF02A091B002B091B1023091AD02F2
:1005F00023E0230F2D3720F40196A11DB11D05C066
:1006000026E8230F0296A11DB11D2093AD02809311
:10061000AE029093AF02A093B002B093B10280916A
:10062000B2029091B302A091B402B091B5020196CA
:10063000A11DB11D8093B2029093B302A093B402A6
:10064000B093B502BF91AF919F918F913F912F9140
:100650000F900FBE0F901F901895CF93DF93EC0172
:1006600081E08C838D839E01265F3F4F3F832E83E5
:10067000198618862EE331E0398328831C861B8671
:100680001E861D868F87888B81EC8A870E94330A9D
:10069000FC0121818C8190E0820F911D089774F5F7
:1006A000A281B381109719F4D383C2830CC018962A
:1006B0008D919C911997009711F0DC01F8CF199654
:1006C000DC93CE93189780818A8381818B8390817C
:1006D0008D81890F808380E09C81891778F4AE81B9
:1006E000BF81A80FB11D9C91A181B0E0A95DBE4F53
:1006F0009C9391819F5F91838F5FEECFDF91CF912C
:100700000895EF92FF920F931F93CF93DF931F9261
:10071000CDB7DEB78B017A0180912A03811107C022
:1007200089E193E00E942D0381E080932A0386E013
:10073000898341E050E0BE016F5F7F4F80911C03D1
:100740000E94AD0D97FD07C080911C03A701B80161
:1007500080640E94AD0D0F90DF91CF911F910F919A
:10076000FF90EF9008951F920F920FB60F921124F1
:100770002F933F934F935F936F937F938F939F93A9
:10078000AF93BF93EF93FF938091B900887F80363A
:1007900009F49CC068F5883209F45BC090F480319C
:1007A00009F454C038F4882309F4F6C0883009F4F9
:1007B0004DC0F6C0883109F44CC0803209F45DC0E8
:1007C000EFC0803409F468C048F4803309F455C0A0
:1007D000883309F0E5C08093A301D8C0803509F4BF
:1007E0004FC0883509F45DC0883409F0D9C0D6C03F
:1007F000883909F4C7C0A8F4883709F467C038F409
:10080000883609F463C0803709F460C0C9C08838ED
:1008100009F4B8C0803909F45FC0803809F0C0C05D
:100820005BC0803B09F486C038F4803A09F466C0A6
:10083000883A09F47FC0B4C0803C09F4A7C0883C62
:1008400009F4A4C0883B09F48AC0AAC08091800141
:1008500010C09091A2018091A101981770F5E091CC
:10086000A20181E08E0F8093A201F0E0EF57FE4FCE
:1008700080818093BB0085EC86C08093A3018EC0ED
:10088000E091A20181E08E0F8093A2018091BB00D4
:10089000F0E0EF57FE4F80839091A2018091A1017B
:1008A0006EC0E091A20181E08E0F8093A201809141
:1008B000BB00F0E0EF57FE4F80838091A4018111CF
:1008C0006DC081E080937F0184EA61C083E0809302
:1008D000A5011092AC02CFCF8091AC02803208F01B
:1008E00051C0E091AC0281E08E0F8093AC02809108
:1008F000BB00F0E0E457FD4F8083BDCF85EC8093D3
:10090000BC001092A5018091AC02803230F4E091DD
:10091000AC02F0E0E457FD4F10826091AC0270E051
:10092000E0918A02F0918B028CE892E00995109296
:10093000AC0236C084E08093A50110928902109227
:100940008802E0918602F0918702099580918802E1
:10095000811105C081E08093880210926602E091C7
:10096000890281E08E0F80938902F0E0EA59FD4F01
:1009700080818093BB0090918902809188029817B2
:1009800008F479CF85E88093BC000AC085EC809399
:10099000BC001092A50104C01092A3010E948E0118
:1009A000FF91EF91BF91AF919F918F917F916F9147
:1009B0005F914F913F912F910F900FBE0F901F901D
:1009C000189561E085E00E940C0D60E085E00C94D4
:1009D000A90C0F931F93CF93082F81E00E94D70299
:1009E000C8E010E0C150C8010C2E02C09595879553
:1009F0000A94E2F781700E94D702C111F3CFCF9120
:100A00001F910F9108950F931F93CF93082F80E0AC
:100A10000E94D702C8E010E0C150C8010C2E02C0ED
:100A2000959587950A94E2F781700E94D702C111CB
:100A3000F3CFCF911F910F91089581110C94E10490
:100A400061E085E00E94A90C60E085E00E940C0D49
:100A500060E085E00E94A90C60E08FE00E94A90C94
:100A600060E080E10C94A90C61E080E10E940C0D33
:100A700061E08FE00E940C0D61E085E00E940C0DAA
:100A800061E08DE00E940C0D60E08DE00E94A90CF9
:100A90006AE070E080E090E00E94730D61E08DE01C
:100AA0000E94A90C6AE070E080E090E00E94730D63
:100AB00062E08DE00E940C0D0E94E10489EB0E942F
:100AC00003058FEF0E94E90483E80E94E90483E6AE
:100AD0000E94E90480E00E941D050E94E10481EB70
:100AE0000E94030581E80E94E90480E30E94E90472
:100AF00084E00E94E90484E30E94E90482E00E9409
:100B0000E90483E10E94E90481E10E94E90480E0B4
:100B10000E94E9048AE30E94E90482E40E94E90455
:100B20008FE30E94E9048FE30E94E90480E00E94C1
:100B30001D050E94E10484EB0E94030588E00E94E9
:100B4000E90482E10E94E90482E70E94E90482E16B
:100B50000E94E90486E00E94E90483E00E94E9041F
:100B600084E50E94E90483E00E94E9048EE40E9487
:100B7000E90480E00E941D050E94E1048FEB0E94C1
:100B8000030580E00E94E90480E10E94E90480E01E
:100B90000E941D050E94E10486EB0E94030582E18C
:100BA0000E94E90480E00E941D050E94E10483EB9D
:100BB0000E94030581E00E94E90480E00E941D0577
:100BC0000E94E10486E30E9403058AE00E94E90492
:100BD00080E00E941D050E94E1048CEC0E94030548
:100BE00082E00E94E90480E00E941D050E94E10469
:100BF00080EE0E94030580E00E94E90480E80E94E4
:100C0000E90480E00E94E9048CE80E94E90483E1A1
:100C10000E94E90487EA0E94E90485E00E94E90451
:100C20008DE00E94E90480E50E94E90484E10E94CD
:100C3000E90486E10E94E90485E50E94E90486E171
:100C40000E94E90487E80E94E90483E00E94E90425
:100C500080E00E94E90480E80E94E90480E00E94AC
:100C6000E9048CE80E94E90483E10E94E90487EA30
:100C70000E94E90485E00E94E9048DE00E94E904F5
:100C800080E50E94E90484E10E94E90486E10E9473
:100C9000E90485E50E94E90486E10E94E90487E809
:100CA0000E94E90483E00E94E90480E00E941D059F
:100CB0000E94E1048AE30E94030580E60E94E904A1
:100CC00080E00E941D050E94E10481E10E9403056D
:100CD00080E00E941D0566E970E080E090E00E94DF
:100CE000730D0E94E10489E20E94030580E00E94E6
:100CF0001D0566E970E080E090E00C94730DCF92E2
:100D0000DF92EF92FF921F93CF93DF93CDB7DEB7C1
:100D100060970FB6F894DEBF0FBECDBF8091A501DE
:100D20008111FCCF81E08093A5018093A4019FEF06
:100D30009093A3011092A2018093A101809380015E
:100D40008091800188648093800180917F0181304F
:100D500061F410927F01809180018093BB008091AB
:100D6000BC0083FDF8CF85EC01C085EE8093BC000C
:100D70008091A5018130E1F38091A201823018F4C5
:100D80008091A20101C082E0A1E8B1E026E432E056
:100D9000F9019E2F921B981718F49D919193F9CF0A
:100DA00010927E0180937D0110E090917D018091F1
:100DB0007E01981729F183E493E00E94D001809589
:100DC00048E0149FB001112420E030E090E0F901E8
:100DD000E60FF71F41E050E04C0F5D1FE40FF51FD9
:100DE000AC01022E02C0559547950A94E2F7417076
:100DF00040832F5F3F4F2830310549F71F5FD5CF24
:100E00008B818093CB018D818093CC018C818093E9
:100E1000CD018E818093CE018A858093CF01898513
:100E20008093D0018C858093D1018B858093D201F2
:100E300088858093D3018F818093D4018A818093A8
:100E4000D50189818093D6018E858093D7018D85C8
:100E50008093D8018F858093D90188898093DA01A6
:100E600080E090E0C12CD12C7601C394FC01E553C5
:100E7000FE4F2081222381F02091C901B701A601F4
:100E8000082E04C0440F551F661F771F0A94D2F71F
:100E9000422B4093C90111C03091C901B701A6018D
:100EA000082E04C0440F551F661F771F0A94D2F7FF
:100EB0004095242F23232093C90101968830910562
:100EC000A9F680E090E0C12CD12C7601C394FC01FE
:100ED000ED52FE4F3081332381F03091CA01B701CA
:100EE000A601082E04C0440F551F661F771F0A94E1
:100EF000D2F7432B4093CA0111C03091CA01B70108
:100F0000A601082E04C0440F551F661F771F0A94C0
:100F1000D2F74095242F23232093CA0101968830CD
:100F20009105A9F68091C9019091DB01892B8093ED
:100F3000DB018091CA019091DC01892B8093DC0157
:100F400060960FB6F894DEBF0FBECDBFDF91CF9194
:100F50001F91FF90EF90DF90CF9008950F931F9314
:100F6000CF93DF9300E011E0C0E0D0E0CE010E941B
:100F7000C918F80181938F012196C732D105B1F7C5
:100F8000DF91CF911F910F910895EF92FF920F93F0
:100F90001F93CF93DF931F92CDB7DEB700E011E030
:100FA000E12CF12CF80161918F01C70169830E9446
:100FB000C9186981681719F0C7010E94D118FFEF9D
:100FC000EF1AFF0A87E2E816F10461F70F90DF914C
:100FD000CF911F910F91FF90EF900895882329F0F2
:100FE00081E08093030160E003C01092030161E09F
:100FF0008BE00E940C0D0C94C507882341F081E022
:101000008093020160E089E00E940C0D10C01092F4
:10101000020161E089E00E940C0D61E089E00E941C
:10102000A90C64EF71E080E090E00E94730D0C94D5
:10103000C50790910101813051F49B3EB8F4913E77
:1010400010F4965F0EC08BEE809301010FC08230CA
:1010500069F4992359F0292F30E02B30310524F021
:101060009A509093010102C01092010180910101F8
:1010700090E00E94690E0C94C5074091C402509103
:10108000C5022091C2023091C30242175307B4F443
:101090009091E8009570E1F39091E80092FD19C0FD
:1010A0008093F1008091C4029091C50201968F73E4
:1010B0009927892B19F48EEF8093E8008091C40260
:1010C0009091C50201969093C5028093C40281E07D
:1010D000089580E00895CF92DF92EF92FF920F93F0
:1010E0001F93CF93DF931F92CDB7DEB7182F062F34
:1010F000E42E862F880F8E5F99830E943D0883E03F
:101100000E943D08F12EC12E9981D92E8C2D8F1968
:10111000801798F4F601E7FE02C0849101C0808137
:101120000E943D08182F80E00E943D088123FFEFB8
:10113000CF1ADF0A8111EACF01C081E00F90DF9161
:10114000CF911F910F91FF90EF90DF90CF90089576
:101150002FB7F89487708093E9009091E800892F69
:10116000807295FF04C09091F20080E4891B2FBF2C
:101170000895615030F02091F100FC012083019628
:10118000F8CF289884E68093C7020895CF92DF9223
:10119000EF92FF920F931F93CF93DF936C017A012D
:1011A0008B01C0E0D0E0CE15DF0589F0D8016D914C
:1011B0008D01D601ED91FC910190F081E02DC601E9
:1011C0000995892B11F47E0102C02196ECCFC7014D
:1011D000DF91CF911F910F91FF90EF90DF90CF9013
:1011E0000895CF93DF931F92CDB7DEB76983DC01FB
:1011F000ED91FC910280F381E02D41E050E0BE01D1
:101200006F5F7F4F09950F90DF91CF91089583E035
:101210008093E9008091F200882319F08AE380939B
:10122000E800089583E00E94A80890E00895FC017A
:101230008485958597FD0BC09FB7F89482E08093D5
:10124000E9008091F2009FBF90E0019608959FB75A
:10125000F89482E08093E9008091F2009FBF90E0D3
:1012600008953FB7F8948091B2029091B302A09193
:10127000B402B091B50226B5A89B05C02F3F19F066
:101280000196A11DB11D3FBFBA2FA92F982F882706
:10129000820F911DA11DB11DBC01CD0142E0660F61
:1012A000771F881F991F4A95D1F708950E945819F2
:1012B0000F931F93CF93DF931F92CDB7DEB78C01AF
:1012C000FC018485958597FF0EC0CE0101960E9492
:1012D000220F019719F4298130E002C02FEF3FEF70
:1012E000F80135872487F801848595850F90DF9173
:1012F000CF911F910F910895CF93DF931F92CDB798
:10130000DEB7FC018485958597FD05C02FEF3FEF83
:10131000358724870BC0CE0101960E94220F0197CA
:1013200019F4898190E002C08FEF9FEF0F90DF9159
:10133000CF9108951F920F920FB60F9211248F93A1
:101340009F938091E1009091E100937F9093E10061
:1013500083FF0FC01092E90091E09093EB00109290
:10136000EC0092E39093ED001092C80298E0909305
:10137000F00082FF20C093E09093E9009091F2008A
:10138000992319F09AE39093E8009091C60299236B
:1013900039F09091C60291509093C602992389F139
:1013A0009091C702992339F09091C7029150909380
:1013B000C702992341F184FF10C08091E2008E7E24
:1013C00081608093E2008091E1008F7E8093E10054
:1013D00080917B018E7E806111C080FF16C080915C
:1013E000E2008E7E80618093E2008091E1008E7E3B
:1013F0008093E10080917B018E7E816080937B01F0
:1014000004C05D9ACDCF289AD6CF9F918F910F902F
:101410000FBE0F901F901895DF92EF92FF920F93DF
:101420001F93CF93DF93D82E8A017B01E40EF51E24
:10143000EB01CE15DF0571F0D7FE03C0FE018491EC
:1014400001C088810E943D0821968111F2CF8FEF63
:101450009FEF01C0C801DF91CF911F910F91FF90C5
:10146000EF90DF9008958091BA0281110DC082E063
:101470008093B60284E08093B7021092B902109272
:10148000B80281E08093BA0286EB92E008950F9350
:101490001F93CF93DF931F92CDB7DEB782E089838E
:1014A00042E450E06EE471E080E80E940C0A0E9481
:1014B000330ADC0112960D911C9113970115110549
:1014C00069F0D801ED91FC910280F381E02DBE011D
:1014D0006F5F7F4FC801099597FF07C089810F9003
:1014E000DF91CF911F910F910895F801008511852B
:1014F000E5CF1F920F920FB60F921124CF92DF9279
:10150000EF92FF920F931F932F933F934F935F930D
:101510006F937F938F939F93AF93BF93EF93FF93BB
:10152000CF93DF93CDB7DEB76C97DEBFCDBF109200
:10153000E9008091E80083FFEDC168E0CE014596A7
:101540000E94B90882EF8093E8008D8987FF05C06B
:101550009091E80090FFFCCF03C09EEF9093E800CD
:10156000982F907609F0C6C09E892F89188D911109
:101570000CC0803829F480917C018093F10002C076
:101580001092F1001092F10048C1422F50E0512B0F
:10159000913051F4811141C14130510509F03DC1F3
:1015A00080917C018D7F0BC0933061F4811135C136
:1015B0004130510509F031C180917C0182608093F6
:1015C0007C012BC1953041F48091E80080FFFCCF75
:1015D00020682093E30021C1963009F05FC0EB8CB6
:1015E000FC8C1092E9001092C5021092C4021230D5
:1015F00091F51092C3021092C2020E94470A99E02C
:10160000BE016F5F7F4FDB01E92F1D92EA95E9F77D
:1016100099831A8391E09E8390EA98879AEF99873D
:101620002091C4023091C502275F3F4F3C832B833A
:101630008D831092E9001092C5021092C402F092BC
:10164000C302E092C20249E050E080E00E940C0A2E
:101650000E94470AE2C0F092C302E092C2020E94D6
:10166000330ADC011296ED90FC901397E114F1041B
:1016700009F4C0C0D701ED91FC910480F581E02D03
:10168000BE016B5E7F4FC7010995009719F00CF002
:10169000C4C0C7C0F701E084F184E8CF973009F4F3
:1016A000C0C0983021F481E08093F100B6C0993039
:1016B00009F0B3C0837009F0B4C0E8E2F1E081E062
:1016C00021E036E39081992361F08093E900209333
:1016D000EB0091919093EC003093ED008F5F873099
:1016E00089F78EE78093EA001092EA008F89809351
:1016F000C80293C08B8D9C8D1092E9001092C50298
:101700001092C4029093C3028093C202898D81110A
:1017100056C08E899D89913A59F4813209F081C071
:1017200047E050E062E371E080E00E940C0A75C07F
:10173000913209F076C0833289F4888D90E0982F39
:1017400088272F89822BA0E0B0E080932E01909310
:101750002F01A0933001B09331015FC0803269F452
:101760008091E80082FFFCCF67E082E391E00E9475
:10177000B9088BEF8093E80006C0823209F04DC0B3
:101780008F898093390180917A01882319F0EEEFD7
:10179000FAE002C0E0E0F8E080913201909133017C
:1017A000A0913401B0913501803B9440A105B10571
:1017B00009F07BC08091390180FF93C076C00E9400
:1017C000330ADC0112960D911C9113970115110536
:1017D00041F1D801ED91FC910190F081E02DBE0125
:1017E0006B5E7F4FC8010995811117C0F801008514
:1017F0001185ECCF113009F44EC0133091F48F896C
:10180000882309F445C0823081F440E860E182EB2E
:1018100091E00E946B08882321F08EEF8093E8000E
:1018200079C081E28093EB0075C0813029F440E8F3
:101830006BE086EA91E0EDCF833099F70E94330A9E
:10184000DC011296ED90FC9013978E010F5F1F4FF5
:101850006801E114F10479F0D701ED91FC91068063
:10186000F781E02DB801C7010995080F111DF70197
:10187000E084F184EECFD8011C92F60101900020A3
:10188000E9F73197BF016C197D0940E0C601C1CF6E
:1018900060E971E002C064E971E06115710509F267
:1018A000FB01449150E080E840CF0FB6F894A89532
:1018B00080916000886180936000109260000FBE8C
:1018C000A895EE3F2AE0F20739F08091FE0A909148
:1018D000FF0A91838083A1CF1092FF0A1092FE0A23
:1018E0009CCFEE3F8AE0F80731F0808191819093A0
:1018F000FF0A8093FE0A87E797E7918380839BE046
:1019000088E10FB6F894A895809360000FBE90937D
:10191000600083CF6C960FB6F894DEBF0FBECDBFCC
:10192000DF91CF91FF91EF91BF91AF919F918F91F7
:101930007F916F915F914F913F912F911F910F91E7
:10194000FF90EF90DF90CF900F900FBE0F901F9001
:101950001895362F90E0FC01ED53FE4F4491FC01A9
:10196000E15DFE4F2491FC01E05FFE4F84918823EE
:1019700009F451C04423E1F150E0FA013197EF300E
:10198000F105B0F5EA5AFF4F0C945219909180007E
:101990009F7707C0909180009F7D03C09091800049
:1019A000977F9093800024C094B59F7702C094B530
:1019B0009F7D94BD1DC0909190009F7707C090912E
:1019C00090009F7D03C090919000977F909390002E
:1019D0000FC09091C0009F7703C09091C0009F7D81
:1019E0009093C00005C09091C200977F9093C20071
:1019F000E82FF0E0EE0FFF1FEE5FFE4FA591B491D0
:101A00008FB7F894EC91311103C020952E2301C0BB
:101A10002E2B2C938FBF0895CF93DF9390E0FC0182
:101A2000E15DFE4F2491FC01E05FFE4F849188232D
:101A300061F190E0880F991FFC01EC50FF4FC591B8
:101A4000D491FC01EE5FFE4FA591B491611109C0E4
:101A50009FB7F8948881209582238883EC912E2368
:101A60000BC0623061F49FB7F8943881822F809563
:101A700083238883EC912E2B2C939FBF06C08FB7B6
:101A8000F894E8812E2B28838FBFDF91CF910895A2
:101A9000823108F08251E82FF0E0E851FF4FE491E5
:101AA00080917B00E3FB222720F930E095E0220FB4
:101AB000331F9A95E1F78F7D282B20937B00E770E9
:101AC000E064E0937C0080917A00806480937A00E7
:101AD00080917A0086FDFCCF80917800209179007A
:101AE00090E0922B08958F929F92AF92BF92CF92E7
:101AF000DF92EF92FF926B017C010E9431094B0152
:101B00005C01C114D104E104F104F1F00E94310937
:101B1000DC01CB0188199909AA09BB09883E9340C9
:101B2000A105B10570F321E0C21AD108E108F1085E
:101B300088EE880E83E0981EA11CB11CC114D1044C
:101B4000E104F10419F7DDCFFF90EF90DF90CF9023
:101B5000BF90AF909F908F9008957F928F929F92A9
:101B6000AF92BF92CF92DF92EF92FF920F931F93AB
:101B7000CF93DF93C82E8B017A018091C802811127
:101B800003C08FEF9FEF75C080917B0180FF05C080
:101B90008091E00082608093E000CE2DDF2DD12C7B
:101BA0008AEF882E8C2D8770B82E8C2D8072A82EEF
:101BB0008C2D8074982E9AE3792E209709F452C0C8
:101BC0008C2D0E94A808282F81110AC08A94882091
:101BD000C1F261E070E080E090E00E94730DEDCF13
:101BE00090E0C817D9070CF42C2F3FB7F894B092A7
:101BF000E9008091E80085FF33C0822F90E0C81B88
:101C0000D90BAA2029F02150A8F01092F100FBCFA7
:101C1000F801C7FE07C0215058F044914093F100ED
:101C20003196F9CF215020F041914093F100FACF45
:101C3000080F191FDD2019F07092E8000AC080918A
:101C4000E80085FD08C07092E800DD24D394209759
:101C500039F0D12C05C0209719F491107092E8004A
:101C60003FBFABCFD110ACCF5D9884E68093C60266
:101C7000C701DF91CF911F910F91FF90EF90DF90FF
:101C8000CF90BF90AF909F908F907F900895CF930B
:101C9000DF93EC0180913901882331F083E00E94C9
:101CA000AD0D1816190634F081E090E09B838A830D
:101CB00080E090E0DF91CF9108952FB7F894609184
:101CC000AE027091AF028091B0029091B1022FBF2D
:101CD0000895CF93DF93EC0161E08AE00E940C0D40
:101CE000209711F460E004C0CF3FD10531F461E0EA
:101CF0008AE0DF91CF910C94A90CEDECF1E0E49136
:101D00008E2F90E0FC013197EF30F10508F06CC0A8
:101D1000EB59FF4F0C94521984B5806884BDC7BD40
:101D200068C084B5806284BDC8BD63C080918000F6
:101D3000806880938000D0938900C093880059C048
:101D400080918000806280938000D0938B00C0934C
:101D50008A004FC080918000886080938000D0937B
:101D60008D00C0938C0045C0809190008068809366
:101D70009000D0939900C09398003BC08091900050
:101D8000806280939000D0939B00C0939A0031C0F2
:101D900080919000886080939000D0939D00C093C4
:101DA0009C0027C08091C00080688093C000809113
:101DB000C0008F7B8093C000C093CF001AC0809179
:101DC000C00080628093C000C093D00012C0809198
:101DD000C20088608093C2008091C2008B7F809394
:101DE000C200C093D20005C0C038D1050CF07FCF2F
:101DF00079CFDF91CF910895E0913203F0913303D1
:101E00000190F081E02D4FE050E064E373E082E365
:101E100093E00994BC01009791F0FC01019000202F
:101E2000E9F73197AF01481B590BE091C902F091D6
:101E3000CA020280F381E02D89EC92E0099480E0EF
:101E400090E00895FC018091C802811103C08FEFDA
:101E50009FEF08959FB7F89482E08093E900209166
:101E6000F20030E01216130614F421E030E02115E0
:101E7000310559F0289884E68093C7028091F100DB
:101E800080838091F200882319F09FBFC9010895D3
:101E90008BE68093E800F9CF8F929F92AF92BF922A
:101EA0000F931F93CF93DF93CDB7DEB7A1970FB6F4
:101EB000F894DEBF0FBECDBF19A2423008F44AE04D
:101EC0008E010F5D1F4F842E912CA12CB12CA501EA
:101ED00094010E941119E62FB901CA01015011099C
:101EE000EA3014F4E05D01C0E95CD801EC93232BE7
:101EF000242B252B61F7C8010E940A0FA1960FB66B
:101F0000F894DEBF0FBECDBFDF91CF911F910F912F
:101F1000BF90AF909F908F900895E091C902F0918B
:101F2000CA020190F081E02D682F89EC92E00994BB
:101F3000789484B5826084BD84B5816084BD85B5A4
:101F4000826085BD85B5816085BD80916E008160B0
:101F500080936E0010928100809181008260809356
:101F60008100809181008160809381008091800058
:101F700081608093800080919100826080939100C5
:101F800080919100816080939100809190008160A8
:101F9000809390008091C10084608093C100809103
:101FA000C10082608093C1008091C10081608093F4
:101FB000C1008091C30081608093C3008091C00004
:101FC00082608093C0008091C20081608093C200D3
:101FD00080917A00846080937A0080917A00826098
:101FE00080937A0080917A00816080937A0080915A
:101FF0007A00806880937A001092C80210927C0167
:1020000010927B018091D70081608093D70080EA95
:102010008093D80089B5806189BD89B5826089BD0A
:1020200009B400FEFDCF61E070E080E090E00E9426
:10203000730D8091D8008F7C80618093D80080914F
:10204000E000807F8093E0008091E1008E7E8093AD
:10205000E1008DE08093E200559A209AEEEFFFE7D1
:10206000859194918B3F9C4D19F481E080937A0186
:1020700068EE73E080E090E00E94730D8FEF9FEFB9
:102080009093D6028093D50261E086E00E940C0D09
:10209000C4E061E086E00E94A90C62E370E080E0A9
:1020A00090E00E94730D60E086E00E94A90C62E35C
:1020B00070E080E090E00E94730DC15051F761E044
:1020C0008AE00E940C0D61E080E10E940C0D61E04D
:1020D0008FE00E940C0D61E085E00E940C0D61E034
:1020E0008DE00E940C0D60E080E10E94A90C60E090
:1020F0008FE00E94A90C60E085E00E94A90C60E0DE
:102100008DE00E94A90C64E670E080E090E00E94FF
:10211000730D0E94340560E087E10E940C0D60E0C1
:1021200088E10E940C0D60E08DE10E940C0D60E0E2
:1021300085E10E940C0D60E084E10E940C0D80E0BE
:1021400090E00E94C918833611F00E94C5070E94D2
:10215000AE07809101010E94190881E0909102016F
:10216000911101C080E00E94FD0781E09091030180
:10217000911101C080E00E94EE0780910401882344
:1021800021F081E08093040102C0109204010E94BA
:10219000C50710927E0110927D011092A701109246
:1021A000C8011092A501C1E0C093A40110927F0163
:1021B00061E082E00E94A90C61E083E00E94A90C2A
:1021C0008091B9008E7F8093B9008091B9008D7F96
:1021D0008093B90088E48093B80085E48093BC00C4
:1021E000C093A60184E28093DD011092A7011092B2
:1021F000C80160E083E493E00E941C028091C80162
:10220000813208F045C09091A5019111FCCF92E078
:102210009093A50191E09093A4019FEF9093A30167
:102220001092A2018093A101A8EAB1E021E831E077
:10223000F9019E2F921B981718F49D919193F9CF55
:102240001092800180918001886480938001809148
:102250007F01813061F410927F0180918001809331
:10226000BB008091BC0083FDF8CF85EC01C085EEFA
:102270008093BC008091A5018230E1F38091A3019D
:102280008F3F31F08091A301803211F08091A30142
:102290001092A7011092C8011092A6010E947F0619
:1022A0008091D301882309F48FC088E10E94480DF2
:1022B0008C014C018DE10E94480DEC011C010E9433
:1022C0005D0E2B013C017E0168010E945D0EDC0168
:1022D000CB0184199509A609B70980319742A10558
:1022E000B10508F046C061E086E00E94A90C88E1D3
:1022F0000E94480D5C0161E070E080E090E00E9487
:10230000730D8DE10E94480D48018C0C9D1C97FEB9
:1023100003C04FEF841A940A959487949E012E0D62
:102320003F1D37FF02C02F5F3F4F1901359427949F
:10233000A016B10608F485018C179D0708F4EC017E
:10234000CA14DB0408F46501E816F90608F47C01F8
:1023500064E670E080E090E00E94730D60E086E04B
:102360000E94A90C64E670E080E090E00E94730D8A
:10237000ACCFC818D908E218F30808191909109346
:102380000A0100930901C219D309D0930C01C0932B
:102390000B01D0920E01C0920D01F0921001E0925B
:1023A0000F0190920601809205013092080120925F
:1023B000070181E080931F0182E390E090931E016A
:1023C00080931D010E94C5078FE0E4E3F3E0DF0185
:1023D0001D928A95E9F7E0913203F0913303019061
:1023E000F081E02D4FE050E064E373E082E393E09E
:1023F000099580E0282E80E0382E89EC92E00E943A
:102400001709181619060CF004C189EC92E00E9415
:102410007C09813609F47CC004F5893409F44CC088
:102420004CF4823409F490C08334F1F1813409F022
:10243000EDC077C0863599F1873509F456C08C34E4
:1024400009F0E4C064E170E080E090E00E94730D68
:1024500010921F0210921E02B4C08D3609F4A2C061
:102460008CF4893631F18C3609F4CCC0823609F00F
:10247000CDC06091C90189EC92E00E94F1086091A1
:10248000CA0191C0833709F47DC0873759F182377B
:1024900009F0BCC01092DB011092DC01B5C0609164
:1024A00030027091310237C060912E0270912F027C
:1024B00032C0609104012EC089EC92E00E9417099D
:1024C000019709F0A3C089EC92E00E947C09813356
:1024D00021F4B1E0B093040102C0109204010E9403
:1024E000C50792C06091020115C089EC92E00E947C
:1024F0001709019709F08AC089EC92E00E947C09D3
:10250000813311F481E001C080E00E94FD077CC0AE
:102510006091030170E080E090E04AE00E944C0F7F
:1025200078C089EC92E00E941709019709F06EC00B
:1025300089EC92E00E947C09813311F481E001C0B2
:1025400080E00E94EE0760C06091DB0189EC92E0C0
:102550000E94F1086091DC0189EC92E00E94F10890
:102560001092DB011092DC010E945D0E60933C0230
:1025700070933D0280933E0290933F0221E02093AE
:10258000400247C060913702809102018111626070
:10259000809103018111646080910401882319F006
:1025A000686001C061E189EC92E00E94F10831C0ED
:1025B00089EC92E00E947C09813259F441E0409319
:1025C0001E0289EC92E00E9417091816190684F37E
:1025D0000BC090911F02E92FF0E0E252FE4F808382
:1025E0009F5F90931F02EDCF80911E02882339F0E8
:1025F00010911F0210FF21C586E791E01BC583E7FC
:1026000091E018C50E94340581E301C08FE30E9468
:102610008D0F0E945D0E00914102109142022091A7
:10262000430230914402DC01CB01801B910BA20BD1
:10263000B30B4197A105B10508F464C461E086E0DD
:102640000E94A90C0E947F06809140028111EFC375
:1026500080914203807F809342039091CC01992323
:10266000A1F08560809342039091CD01992321F0E0
:10267000807F8660809342038091CE01882351F150
:1026800080914203807F846023C09091CB01992385
:10269000A1F08160809342039091CD01992321F0B4
:1026A000807F8860809342038091CE01882391F0DF
:1026B00080914203807F82600BC09091CD0199236D
:1026C00011F0876005C09091CE01992319F08360C5
:1026D000809342032091CF01809134039091350380
:1026E000A0913603B0913703222311F0816001C01D
:1026F0008E7F8093340390933503A0933603B09379
:1027000037032091D0018091340390913503A0913B
:102710003603B0913703222311F0826001C08D7F10
:102720008093340390933503A0933603B09337031B
:102730002091D1018091340390913503A09136030B
:10274000B0913703222311F0846001C08B7F809306
:10275000340390933503A0933603B093370320914D
:10276000D2018091340390913503A0913603B0914A
:102770003703222311F0886001C0877F80933403E0
:1027800090933503A0933603B09337032091D30180
:102790008091340390913503A0913603B0913703B3
:1027A000222311F0806101C08F7E809334039093C7
:1027B0003503A0933603B09337032091D401809161
:1027C000340390913503A0913603B091370322234F
:1027D00011F0806201C08F7D8093340390933503A4
:1027E000A0933603B09337032091D5018091340331
:1027F00090913503A0913603B0913703222311F055
:10280000806401C08F7B8093340390933503A09341
:102810003603B09337032091D60180913403909111
:102820003503A0913603B0913703222311F080685D
:1028300001C08F778093340390933503A0933603C0
:10284000B09337032091D7018091340390913503E1
:10285000A0913603B0913703222311F0916001C09B
:102860009E7F8093340390933503A0933603B093F7
:1028700037032091D8018091340390913503A091C2
:102880003603B0913703222311F0926001C09D7F7F
:102890008093340390933503A0933603B0933703AA
:1028A0002091D9018091340390913503A091360392
:1028B000B0913703222311F0946001C09B7F809375
:1028C000340390933503A0933603B09337032091DC
:1028D000DA018091340390913503A0913603B091D1
:1028E0003703222311F0986001C0977F809334034F
:1028F00090933503A0933603B0933703809137024A
:10290000811102C00E94FC0E80911F01882309F4EE
:10291000CAC088E10E94480DEC018DE10E94480D7B
:102920002091050130910601DE01A21BB30B9D0130
:102930004091070150910801EC01C41BD50BE090B8
:102940001D01F0901E01EA16FB061CF42E193F092A
:102950000CC0882799278E199F09A817B9071CF45E
:102960002E0D3F1D02C020E030E040900901509044
:102970000A01B2E34B0E511C052C000C66087708C7
:10298000C901330FAA0BBB0B9C01AD0124193509FA
:1029900046095709ACE4BFEF0E94FE1820910D01D3
:1029A00030910E01225331098901330F220B330B71
:1029B000A901980124193509460957090E94DF1811
:1029C00057FD0EC02D348FEF3807410551055CF4DB
:1029D000DA01C901865A9F47A109B1098C0105C0D6
:1029E0000AE510E802C006EA1FE7EC16FD061CF433
:1029F000CE19DF090CC0882799278E199F09C8179F
:102A0000D9071CF4CE0DDF1D02C0C0E0D0E0C0909D
:102A10000B01D0900C0192E3C90ED11C0D2C000CBF
:102A2000EE08FF08CE01DD0FAA0BBB0B9C01AD0128
:102A30002C193D094E095F09A4EBB0E00E940C1966
:102A400020910F0130911001225331094901330FB8
:102A5000AA08BB08A50194012C193D094E095F097C
:102A60000E94DF18243B3105AFEF4A075A076CF08C
:102A700012161306140615065CF0DA01C9018A5510
:102A80009048AF4FBF4F9C0105C02AE530E802C017
:102A900026EA3FE7109339030093380330933B0352
:102AA00020933A0308C01092390310923803109211
:102AB0003B0310923A0380913702811102C00E94B9
:102AC000FC0E80913702882309F429C18091D50139
:102AD000882309F458C08091260290912702A09182
:102AE0002802B0912902892B8A2B8B2B51F40E944A
:102AF0005D0E6093260270932702809328029093C4
:102B000029020E945D0E0091260210912702209159
:102B1000280230912902DC01CB01801B910BA20B12
:102B2000B30B883823E19207A105B10530F441E0E9
:102B3000409325028BE490E00BC0803157E295076B
:102B4000A105B10540F482E08093250286E990E07A
:102B50000E94690E57C088392AE39207A105B10582
:102B600030F443E04093250288EC90E0F1CF8032CE
:102B70009E44A105B10508F045C084E0809325027C
:102B800081EE90E0E5CF809125028823D9F1813054
:102B900049F4809125018F5F853009F06DC2109254
:102BA000250115C0823039F48091230191E08927F5
:102BB000809323010CC0833051F4809121018F5FF9
:102BC000823019F08093210102C0109221010E94ED
:102BD000C5078FEF90E00E94690E64EF71E080E01E
:102BE00090E00E94730D8091010190E00E94690EB7
:102BF00010922602109227021092280210922902A7
:102C0000109225028091D701882309F458C0809141
:102C1000210290912202A0912302B0912402892BDB
:102C20008A2B8B2B51F40E945D0E609321027093CE
:102C3000220280932302909324020E945D0E009151
:102C40002102109122022091230230912402DC0102
:102C5000CB01801B910BA20BB30B883823E19207A9
:102C6000A105B10530F441E0409320028BE490E0EF
:102C700023C0803157E29507A105B10530F482E009
:102C80008093200286E990E017C088392AE39207F2
:102C9000A105B10530F443E04093200288EC90E0B8
:102CA0000BC080329E44A105B10508F04CC084E001
:102CB0008093200281EE90E00E94690E44C08091D2
:102CC0002002882309F43FC0813031F49091220121
:102CD00089278093220111C0823039F48091240128
:102CE00091E089278093240108C0833031F48091DA
:102CF0002601A1E08A27809326010E94C5078FEF55
:102D000090E00E94690E64EF71E080E090E00E9424
:102D1000730D8091010190E00E94690E0AC010922B
:102D20002602109227021092280210922902109275
:102D30002502109221021092220210922302109278
:102D400024021092200280913702811187C0809165
:102D50002601882309F482C0C0E0D0E0FE01E553DB
:102D6000FE4F8081882351F00E945D0E60932A02FD
:102D700070932B0280932C0290932D022196C031E8
:102D8000D10561F70E945D0EC0902A02D0902B02FF
:102D9000E0902C02F0902D02DC01CB018C199D09F2
:102DA000AE09BF094601570120E2820E2FEB921EA9
:102DB00022E0A21EB11C4090010188169906AA06C5
:102DC000BB0680F548EBC40E49EFD41E42E0E41E7A
:102DD000F11C512C612C712CC816D906EA06FB0691
:102DE00010F4D701C6019C01AD01281939094A091F
:102DF0005B096FEF70E080E090E064197509860967
:102E000097090E944219A7019601281939094A0910
:102E10005B090E94DF18DA01C901840D951DA61D0A
:102E2000B71D01C0842D90E00E94690E17C00E945A
:102E30005D0E00913C0210913D0220913E023091C6
:102E40003F02DC01CB01801B910BA20BB30B893E2F
:102E50009340A105B10510F0109240028091370215
:102E6000882309F441C08091CB01882319F082E0C6
:102E70000E9419088091CC01882319F081E00E94FA
:102E800019088091CF01882319F081E00E94FD0785
:102E90008091D001882319F080E00E94FD07809185
:102EA000D201882319F081E00E94EE078091D101C0
:102EB000882319F080E00E94EE078091D3018823D7
:102EC00029F081E0809304010E94C5078091D4011C
:102ED000882321F0109204010E94C50768EC70E07D
:102EE00080E090E00E94730D60E086E00E94A90CF3
:102EF0000E945D0E609341027093420280934302F0
:102F0000909344020E945D0E0091380210913902A4
:102F100020913A0230913B02DC01CB01801B910BE6
:102F2000A20BB30B893C9105A105B10508F187E11E
:102F30000E94480D059740F4809130029091310233
:102F40008835924008F49BC0109237028091370276
:102F5000882321F01092DB011092DC010E945D0EAB
:102F6000609338027093390280933A0290933B0247
:102F70000E945D0E009133021091340220913502BF
:102F800030913602DC01CB01801B910BA20BB30BFD
:102F9000893E9340A105B105D8F161E070E080E081
:102FA00090E00E94730D84E10E94480D90933102DD
:102FB0008093300261E070E080E090E00E94730D49
:102FC00085E10E94480D90932F0280932E0261E0CC
:102FD00070E080E090E00E94730D2091300230910B
:102FE0003102809132022835324008F04CC0811104
:102FF00005C051E0509332020E9434050E945D0EDC
:1030000060933302709334028093350290933602BA
:103010002114310409F4F1C90E940000EEC900FD39
:1030200012C00F5F21960113FACF80E00E941D05A8
:1030300080E791E00E940A0FECCA0E94E104CEED05
:10304000D1E000E0F0CF8881FE01319790819A3382
:1030500014F4905301C097539295907F8A3314F4DF
:10306000805301C08753890F013019F40E94030572
:10307000D8CF0E94E904D5CF80932501A8CD81E067
:103080008093370263CF882309F4B8CF10923202BD
:10309000B5CF1092CC021092CB0288EE93E0A0E064
:1030A000B0E08093CD029093CE02A093CF02B09374
:1030B000D0028AE491E09093CA028093C9028FEF14
:1030C0009FEF9093D6028093D5028CE591E0909388
:1030D00033038093320380915503811113C0109202
:1030E000500310924F0382EE91E09093520380932D
:1030F000510380E590E0909354038093530381E063
:103100008093550380912A03811107C089E193E0E0
:103110000E942D0381E080932A03E0912403F09123
:103120002503309739F48FE493E09093250380933F
:1031300024030AC080819181009711F0FC01FACF2D
:103140008FE493E091838083209153033091540363
:103150008091260390912703820F931F909327035A
:1031600080932603109246031092450388EE93E065
:10317000A0E0B0E08093470390934803A0934903F5
:10318000B0934A0382E691E0909344038093430313
:103190000895F999FECF92BD81BDF89A992780B51F
:1031A0000895262FF999FECF1FBA92BD81BD20BD8B
:1031B0000FB6F894FA9AF99A0FBE01960895052E63
:1031C00097FB1EF400940E94F61857FD07D00E944A
:1031D000111907FC03D04EF40C94F6185095409545
:1031E000309521953F4F4F4F5F4F089590958095B3
:1031F000709561957F4F8F4F9F4F08950E943319AF
:10320000A59F900DB49F900DA49F800D911D11243A
:103210000895B7FF0C94FE180E94FE18821B930BB2
:103220000895A1E21A2EAA1BBB1BFD010DC0AA1F07
:10323000BB1FEE1FFF1FA217B307E407F50720F01F
:10324000A21BB30BE40BF50B661F771F881F991F9A
:103250001A9469F760957095809590959B01AC01E3
:10326000BD01CF010895A29FB001B39FC001A39FEC
:10327000700D811D1124911DB29F700D811D1124AF
:10328000911D0895DB018F939F930E94FE18BF91BB
:10329000AF91A29F800D911DA39F900DB29F900DA5
:1032A00011240895EE0FFF1F0590F491E02D09946D
:0E32B00081E090E0F8940C945D19F894FFCF43
:1032BE00630001010000000000000000000000009B
:1032CE0000000000000000000000000000320000BE
:1032DE000000000000000000C18081000000FFFF20
:1032EE00FFFF00E1000000000000000000004401AC
:1032FE008F024F026B0100000000F108470E120909
:10330E00070917097C095809000000008103000015
:10331E0000001C02EC014C02C001E401D001C1010D
:0A332E004C53004631004632000007
:00000001FF
